{"bytecode":"608060405234801561001057600080fd5b5060405161143938038061143983398101604081905261002f916100a6565b60006100396100a2565b600080546001600160a01b0319166001600160a01b0383169081178255604051929350917f8be0079c531659141344cd1fd0a4f28419497f9722a3daafe3b4186f6b6457e0908290a35060018055600060045560fa81111561009a57600080fd5b6002556100be565b3390565b6000602082840312156100b7578081fd5b5051919050565b61136c806100cd6000396000f3fe608060405234801561001057600080fd5b50600436106101165760003560e01c80638da5cb5b116100a2578063d2f3ea4311610071578063d2f3ea431461022f578063ddca3f4314610242578063df7677921461024a578063e3fae2691461025d578063f2fde38b1461027057610116565b80638da5cb5b146101e2578063ac78655e146101ea578063b5f522f7146101fd578063c1b2bd5a1461022757610116565b806366ec6633116100e957806366ec66331461018c578063715018a6146101a15780637545823b146101a95780638bf0af3e146101bc5780638cd42991146101cf57610116565b8063017e7e581461011b57806303ac8a721461013957806304ca277514610159578063187e83b714610179575b600080fd5b610123610283565b604051610130919061102d565b60405180910390f35b61014c610147366004610f4f565b610292565b604051610130919061132d565b61016c610167366004610ff4565b6104d6565b60405161013091906110e0565b61014c610187366004610ff4565b610532565b61019f61019a366004610ff4565b610547565b005b61019f610744565b6101236101b7366004610ff4565b6107c3565b61019f6101ca36600461100c565b6107e1565b61014c6101dd366004610ff4565b610b46565b610123610baa565b61014c6101f8366004610ff4565b610bb9565b61021061020b366004610ff4565b610bda565b6040516101309b9a9998979695949392919061107e565b61014c610c44565b61014c61023d366004610ff4565b610c4a565b61014c610c60565b610123610258366004610ff4565b610c66565b61014c61026b366004610ff4565b610c81565b61019f61027e366004610f34565b610c96565b6003546001600160a01b031681565b6004546000906102a3906001610d4c565b6004556102ae610e9f565b6040518061016001604052808c6001600160a01b031681526020018b6001600160a01b031681526020018a6001600160a01b03168152602001896001600160a01b03168152602001888152602001878152602001868152602001858152602001848152602001428152602001600081525090508060056000600454815260200190815260200160002060008201518160000160006101000a8154816001600160a01b0302191690836001600160a01b0316021790555060208201518160010160006101000a8154816001600160a01b0302191690836001600160a01b0316021790555060408201518160020160006101000a8154816001600160a01b0302191690836001600160a01b0316021790555060608201518160030160006101000a8154816001600160a01b0302191690836001600160a01b031602179055506080820151816004015560a0820151816005015560c0820151816006015560e082015181600701556101008201518160080155610120820151816009015561014082015181600a0155905050600081600001519050806001600160a01b03166323b872dd33308b6040518463ffffffff1660e01b815260040161047093929190611041565b602060405180830381600087803b15801561048a57600080fd5b505af115801561049e573d6000803e3d6000fd5b505050506040513d601f19601f820116820180604052508101906104c29190610fd4565b50506004549b9a5050505050505050505050565b6000818152600560205260408120600881015460098201546104f791610d4c565b421161050757600191505061052d565b6008810154600982015461051a91610d4c565b42111561052b57600091505061052d565b505b919050565b6000908152600560205260409020600a015490565b600081815260056020526040902060038101546001600160a01b0316331461056e57600080fd5b610577826104d6565b1561059d5760405162461bcd60e51b8152600401610594906111ad565b60405180910390fd5b60006105ba82600a01548360040154610d7a90919063ffffffff16565b116105d75760405162461bcd60e51b81526004016105949061120f565b60006105f482600a01548360040154610d7a90919063ffffffff16565b8254600284015460405163a9059cbb60e01b81529293506001600160a01b0391821692839263a9059cbb92610630929116908690600401611065565b602060405180830381600087803b15801561064a57600080fd5b505af115801561065e573d6000803e3d6000fd5b505050506040513d601f19601f820116820180604052508101906106829190610fd4565b5050600480546000908152600560208190526040909120845481546001600160a01b03199081166001600160a01b039283161783556001808801549084018054831691841691909117905560028088015490840180548316918416919091179055600380880154908401805490921692169190911790558285015492810192909255808401549082015560068084015490820155600780840154908201556008808401549082015560098084015490820155600a928301549201919091555050565b61074c610dbc565b6000546001600160a01b039081169116146107795760405162461bcd60e51b815260040161059490611280565b600080546040516001600160a01b03909116907f8be0079c531659141344cd1fd0a4f28419497f9722a3daafe3b4186f6b6457e0908390a3600080546001600160a01b0319169055565b6000908152600560205260409020600101546001600160a01b031690565b600260015414156108045760405162461bcd60e51b8152600401610594906112f6565b60026001556000828152600560205260409020610820836104d6565b61083c5760405162461bcd60e51b815260040161059490611184565b80600601548210158015610854575080600701548211155b6108705760405162461bcd60e51b8152600401610594906112b5565b60006108978260040154610891846005015486610dc090919063ffffffff16565b90610dfa565b905060006108b661271061089160025485610dc090919063ffffffff16565b6001840154845460405163a9059cbb60e01b81529293506001600160a01b0391821692911690819063a9059cbb906108f49033908a90600401611065565b602060405180830381600087803b15801561090e57600080fd5b505af1158015610922573d6000803e3d6000fd5b505050506040513d601f19601f820116820180604052508101906109469190610fd4565b5060028501546001600160a01b03808416916323b872dd9133911661096b8888610d7a565b6040518463ffffffff1660e01b815260040161098993929190611041565b602060405180830381600087803b1580156109a357600080fd5b505af11580156109b7573d6000803e3d6000fd5b505050506040513d601f19601f820116820180604052508101906109db9190610fd4565b50816001600160a01b03166323b872dd336109f4610baa565b866040518463ffffffff1660e01b8152600401610a1393929190611041565b602060405180830381600087803b158015610a2d57600080fd5b505af1158015610a41573d6000803e3d6000fd5b505050506040513d601f19601f82011682018060405250810190610a659190610fd4565b50600a850154610a759087610d4c565b600a808701918255600480546000908152600560208190526040909120895481546001600160a01b03199081166001600160a01b039283161783556001808d0154818501805484169185169190911790556002808e0154908501805484169185169190911790556003808e015490850180549093169316929092179055838b015493820193909355818a0154918101919091556006808a0154908201556007808a0154908201556008808a015490820155600998890154988101989098559154960195909555505050908055505050565b6000818152600560205260408120610b5d836104d6565b1515600114610b7e5760405162461bcd60e51b815260040161059490611184565b610ba342610b9d83600801548460090154610d4c90919063ffffffff16565b90610d7a565b9392505050565b6000546001600160a01b031690565b6000818152600560205260408120600a8101546004820154610ba391610d7a565b600560208190526000918252604090912080546001820154600283015460038401546004850154958501546006860154600787015460088801546009890154600a909901546001600160a01b039889169a978916999689169890951696959394929391929091908b565b60045481565b6000908152600560208190526040909120015490565b60025481565b6000908152600560205260409020546001600160a01b031690565b60009081526005602052604090206004015490565b610c9e610dbc565b6000546001600160a01b03908116911614610ccb5760405162461bcd60e51b815260040161059490611280565b6001600160a01b038116610cf15760405162461bcd60e51b81526004016105949061113e565b600080546040516001600160a01b03808516939216917f8be0079c531659141344cd1fd0a4f28419497f9722a3daafe3b4186f6b6457e091a3600080546001600160a01b0319166001600160a01b0392909216919091179055565b600082820183811015610d715760405162461bcd60e51b8152600401610594906111d8565b90505b92915050565b6000610d7183836040518060400160405280601e81526020017f536166654d6174683a207375627472616374696f6e206f766572666c6f770000815250610e3c565b3390565b600082610dcf57506000610d74565b82820282848281610ddc57fe5b0414610d715760405162461bcd60e51b81526004016105949061123f565b6000610d7183836040518060400160405280601a81526020017f536166654d6174683a206469766973696f6e206279207a65726f000000000000815250610e68565b60008184841115610e605760405162461bcd60e51b815260040161059491906110eb565b505050900390565b60008183610e895760405162461bcd60e51b815260040161059491906110eb565b506000838581610e9557fe5b0495945050505050565b60405180610160016040528060006001600160a01b0316815260200160006001600160a01b0316815260200160006001600160a01b0316815260200160006001600160a01b03168152602001600081526020016000815260200160008152602001600081526020016000815260200160008152602001600081525090565b80356001600160a01b0381168114610d7457600080fd5b600060208284031215610f45578081fd5b610d718383610f1d565b60008060008060008060008060006101208a8c031215610f6d578485fd5b610f778b8b610f1d565b9850610f868b60208c01610f1d565b9750610f958b60408c01610f1d565b9650610fa48b60608c01610f1d565b989b979a50959860808101359760a0820135975060c0820135965060e08201359550610100909101359350915050565b600060208284031215610fe5578081fd5b81518015158114610d71578182fd5b600060208284031215611005578081fd5b5035919050565b6000806040838503121561101e578182fd5b50508035926020909101359150565b6001600160a01b0391909116815260200190565b6001600160a01b039384168152919092166020820152604081019190915260600190565b6001600160a01b03929092168252602082015260400190565b6001600160a01b039b8c168152998b1660208b0152978a1660408a0152959098166060880152608087019390935260a086019190915260c085015260e08401526101008301939093526101208201929092526101408101919091526101600190565b901515815260200190565b6000602080835283518082850152825b81811015611117578581018301518582016040015282016110fb565b818111156111285783604083870101525b50601f01601f1916929092016040019392505050565b60208082526026908201527f4f776e61626c653a206e6577206f776e657220697320746865207a65726f206160408201526564647265737360d01b606082015260800190565b6020808252600f908201526e53616c65204e6f742041637469766560881b604082015260600190565b60208082526011908201527053616c65205374696c6c2041637469766560781b604082015260600190565b6020808252601b908201527f536166654d6174683a206164646974696f6e206f766572666c6f770000000000604082015260600190565b602080825260169082015275139bdd08195b9bdd59da081d1bdad95b9cc81b19599d60521b604082015260600190565b60208082526021908201527f536166654d6174683a206d756c7469706c69636174696f6e206f766572666c6f6040820152607760f81b606082015260800190565b6020808252818101527f4f776e61626c653a2063616c6c6572206973206e6f7420746865206f776e6572604082015260600190565b60208082526021908201527f53616c65204e6f742077697468696e206d696e206d6178207468726573686f6c6040820152601960fa1b606082015260800190565b6020808252601f908201527f5265656e7472616e637947756172643a207265656e7472616e742063616c6c00604082015260600190565b9081526020019056fea264697066735822122006a932eb0d96d8d0d8e2d8f48ed991ee5aebdac89554e0f1a4f49e358148251564736f6c634300060c0033","bytecodeSha1":"46e37ba17c7ed95d9008e5aa5583448bd9caefd2","type":"contract","abi":[{"inputs":[{"internalType":"uint256","name":"_fee","type":"uint256"}],"stateMutability":"nonpayable","type":"constructor","name":"constructor"},{"anonymous":false,"inputs":[{"indexed":true,"internalType":"address","name":"previousOwner","type":"address"},{"indexed":true,"internalType":"address","name":"newOwner","type":"address"}],"name":"OwnershipTransferred","type":"event"},{"inputs":[{"internalType":"uint256","name":"_saleNumber","type":"uint256"}],"name":"amountRemaining","outputs":[{"internalType":"uint256","name":"","type":"uint256"}],"stateMutability":"view","type":"function"},{"inputs":[],"name":"fee","outputs":[{"internalType":"uint256","name":"","type":"uint256"}],"stateMutability":"view","type":"function"},{"inputs":[],"name":"feeTo","outputs":[{"internalType":"address","name":"","type":"address"}],"stateMutability":"view","type":"function"},{"inputs":[{"internalType":"uint256","name":"_saleNumber","type":"uint256"}],"name":"getAmountOffered","outputs":[{"internalType":"uint256","name":"","type":"uint256"}],"stateMutability":"view","type":"function"},{"inputs":[{"internalType":"uint256","name":"_saleNumber","type":"uint256"}],"name":"getBuyTokens","outputs":[{"internalType":"address","name":"","type":"address"}],"stateMutability":"view","type":"function"},{"inputs":[{"internalType":"uint256","name":"_saleNumber","type":"uint256"}],"name":"getPurchaseAmount","outputs":[{"internalType":"uint256","name":"","type":"uint256"}],"stateMutability":"view","type":"function"},{"inputs":[{"internalType":"uint256","name":"_saleNumber","type":"uint256"}],"name":"getSaleTokens","outputs":[{"internalType":"address","name":"","type":"address"}],"stateMutability":"view","type":"function"},{"inputs":[{"internalType":"uint256","name":"_saleNumber","type":"uint256"}],"name":"getTimeRemaining","outputs":[{"internalType":"uint256","name":"","type":"uint256"}],"stateMutability":"view","type":"function"},{"inputs":[{"internalType":"uint256","name":"_saleNumber","type":"uint256"}],"name":"getTotalSold","outputs":[{"internalType":"uint256","name":"","type":"uint256"}],"stateMutability":"view","type":"function"},{"inputs":[{"internalType":"address","name":"_saleToken","type":"address"},{"internalType":"address","name":"_buyToken","type":"address"},{"internalType":"address","name":"_treasury","type":"address"},{"internalType":"address","name":"_saleOwner","type":"address"},{"internalType":"uint256","name":"_amountOffered","type":"uint256"},{"internalType":"uint256","name":"_purchaseAmount","type":"uint256"},{"internalType":"uint256","name":"_minPurhcase","type":"uint256"},{"internalType":"uint256","name":"_maxPurchase","type":"uint256"},{"internalType":"uint256","name":"_saleTime","type":"uint256"}],"name":"newSale","outputs":[{"internalType":"uint256","name":"","type":"uint256"}],"stateMutability":"nonpayable","type":"function"},{"inputs":[],"name":"owner","outputs":[{"internalType":"address","name":"","type":"address"}],"stateMutability":"view","type":"function"},{"inputs":[{"internalType":"uint256","name":"_saleNumber","type":"uint256"},{"internalType":"uint256","name":"_amount","type":"uint256"}],"name":"purchaseTokens","outputs":[],"stateMutability":"nonpayable","type":"function"},{"inputs":[{"internalType":"uint256","name":"_saleNumber","type":"uint256"}],"name":"redeemUnpurchased","outputs":[],"stateMutability":"nonpayable","type":"function"},{"inputs":[],"name":"renounceOwnership","outputs":[],"stateMutability":"nonpayable","type":"function"},{"inputs":[{"internalType":"uint256","name":"_saleNumber","type":"uint256"}],"name":"saleActive","outputs":[{"internalType":"bool","name":"","type":"bool"}],"stateMutability":"view","type":"function"},{"inputs":[],"name":"saleNumber","outputs":[{"internalType":"uint256","name":"","type":"uint256"}],"stateMutability":"view","type":"function"},{"inputs":[{"internalType":"uint256","name":"","type":"uint256"}],"name":"sales","outputs":[{"internalType":"address","name":"saleToken","type":"address"},{"internalType":"address","name":"buyToken","type":"address"},{"internalType":"address","name":"treasury","type":"address"},{"internalType":"address","name":"saleOwner","type":"address"},{"internalType":"uint256","name":"amountOffered","type":"uint256"},{"internalType":"uint256","name":"purchaseAmount","type":"uint256"},{"internalType":"uint256","name":"minPurhcase","type":"uint256"},{"internalType":"uint256","name":"maxPurchase","type":"uint256"},{"internalType":"uint256","name":"saleTime","type":"uint256"},{"internalType":"uint256","name":"openingTime","type":"uint256"},{"internalType":"uint256","name":"totalSold","type":"uint256"}],"stateMutability":"view","type":"function"},{"inputs":[{"internalType":"address","name":"newOwner","type":"address"}],"name":"transferOwnership","outputs":[],"stateMutability":"nonpayable","type":"function"}],"compiler":{"version":"0.6.12+commit.27d51765","evm_version":"istanbul","optimizer":{"enabled":true,"runs":200}},"contractName":"saleContract","language":"Solidity","natspec":{"methods":{"owner()":{"details":"Returns the address of the current owner."},"renounceOwnership()":{"details":"Leaves the contract without owner. It will not be possible to call `onlyOwner` functions anymore. Can only be called by the current owner. NOTE: Renouncing ownership will leave the contract without an owner, thereby removing any functionality that is only available to the owner."},"transferOwnership(address)":{"details":"Transfers ownership of the contract to a new account (`newOwner`). Can only be called by the current owner."},"saleNumber()":{"notice":"address that receives proceeds "},"sales(uint256)":{"notice":"tracking the sale number "}},"kind":"dev","version":1},"opcodes":"PUSH1 0x80 PUSH1 0x40 MSTORE CALLVALUE DUP1 ISZERO PUSH2 0x10 JUMPI PUSH1 0x0 DUP1 REVERT JUMPDEST POP PUSH1 0x4 CALLDATASIZE LT PUSH2 0x116 JUMPI PUSH1 0x0 CALLDATALOAD PUSH1 0xE0 SHR DUP1 PUSH4 0x8DA5CB5B GT PUSH2 0xA2 JUMPI DUP1 PUSH4 0xD2F3EA43 GT PUSH2 0x71 JUMPI DUP1 PUSH4 0xD2F3EA43 EQ PUSH2 0x22F JUMPI DUP1 PUSH4 0xDDCA3F43 EQ PUSH2 0x242 JUMPI DUP1 PUSH4 0xDF767792 EQ PUSH2 0x24A JUMPI DUP1 PUSH4 0xE3FAE269 EQ PUSH2 0x25D JUMPI DUP1 PUSH4 0xF2FDE38B EQ PUSH2 0x270 JUMPI PUSH2 0x116 JUMP JUMPDEST DUP1 PUSH4 0x8DA5CB5B EQ PUSH2 0x1E2 JUMPI DUP1 PUSH4 0xAC78655E EQ PUSH2 0x1EA JUMPI DUP1 PUSH4 0xB5F522F7 EQ PUSH2 0x1FD JUMPI DUP1 PUSH4 0xC1B2BD5A EQ PUSH2 0x227 JUMPI PUSH2 0x116 JUMP JUMPDEST DUP1 PUSH4 0x66EC6633 GT PUSH2 0xE9 JUMPI DUP1 PUSH4 0x66EC6633 EQ PUSH2 0x18C JUMPI DUP1 PUSH4 0x715018A6 EQ PUSH2 0x1A1 JUMPI DUP1 PUSH4 0x7545823B EQ PUSH2 0x1A9 JUMPI DUP1 PUSH4 0x8BF0AF3E EQ PUSH2 0x1BC JUMPI DUP1 PUSH4 0x8CD42991 EQ PUSH2 0x1CF JUMPI PUSH2 0x116 JUMP JUMPDEST DUP1 PUSH4 0x17E7E58 EQ PUSH2 0x11B JUMPI DUP1 PUSH4 0x3AC8A72 EQ PUSH2 0x139 JUMPI DUP1 PUSH4 0x4CA2775 EQ PUSH2 0x159 JUMPI DUP1 PUSH4 0x187E83B7 EQ PUSH2 0x179 JUMPI JUMPDEST PUSH1 0x0 DUP1 REVERT JUMPDEST PUSH2 0x123 PUSH2 0x283 JUMP JUMPDEST PUSH1 0x40 MLOAD PUSH2 0x130 SWAP2 SWAP1 PUSH2 0x102D JUMP JUMPDEST PUSH1 0x40 MLOAD DUP1 SWAP2 SUB SWAP1 RETURN JUMPDEST PUSH2 0x14C PUSH2 0x147 CALLDATASIZE PUSH1 0x4 PUSH2 0xF4F JUMP JUMPDEST PUSH2 0x292 JUMP JUMPDEST PUSH1 0x40 MLOAD PUSH2 0x130 SWAP2 SWAP1 PUSH2 0x132D JUMP JUMPDEST PUSH2 0x16C PUSH2 0x167 CALLDATASIZE PUSH1 0x4 PUSH2 0xFF4 JUMP JUMPDEST PUSH2 0x4D6 JUMP JUMPDEST PUSH1 0x40 MLOAD PUSH2 0x130 SWAP2 SWAP1 PUSH2 0x10E0 JUMP JUMPDEST PUSH2 0x14C PUSH2 0x187 CALLDATASIZE PUSH1 0x4 PUSH2 0xFF4 JUMP JUMPDEST PUSH2 0x532 JUMP JUMPDEST PUSH2 0x19F PUSH2 0x19A CALLDATASIZE PUSH1 0x4 PUSH2 0xFF4 JUMP JUMPDEST PUSH2 0x547 JUMP JUMPDEST STOP JUMPDEST PUSH2 0x19F PUSH2 0x744 JUMP JUMPDEST PUSH2 0x123 PUSH2 0x1B7 CALLDATASIZE PUSH1 0x4 PUSH2 0xFF4 JUMP JUMPDEST PUSH2 0x7C3 JUMP JUMPDEST PUSH2 0x19F PUSH2 0x1CA CALLDATASIZE PUSH1 0x4 PUSH2 0x100C JUMP JUMPDEST PUSH2 0x7E1 JUMP JUMPDEST PUSH2 0x14C PUSH2 0x1DD CALLDATASIZE PUSH1 0x4 PUSH2 0xFF4 JUMP JUMPDEST PUSH2 0xB46 JUMP JUMPDEST PUSH2 0x123 PUSH2 0xBAA JUMP JUMPDEST PUSH2 0x14C PUSH2 0x1F8 CALLDATASIZE PUSH1 0x4 PUSH2 0xFF4 JUMP JUMPDEST PUSH2 0xBB9 JUMP JUMPDEST PUSH2 0x210 PUSH2 0x20B CALLDATASIZE PUSH1 0x4 PUSH2 0xFF4 JUMP JUMPDEST PUSH2 0xBDA JUMP JUMPDEST PUSH1 0x40 MLOAD PUSH2 0x130 SWAP12 SWAP11 SWAP10 SWAP9 SWAP8 SWAP7 SWAP6 SWAP5 SWAP4 SWAP3 SWAP2 SWAP1 PUSH2 0x107E JUMP JUMPDEST PUSH2 0x14C PUSH2 0xC44 JUMP JUMPDEST PUSH2 0x14C PUSH2 0x23D CALLDATASIZE PUSH1 0x4 PUSH2 0xFF4 JUMP JUMPDEST PUSH2 0xC4A JUMP JUMPDEST PUSH2 0x14C PUSH2 0xC60 JUMP JUMPDEST PUSH2 0x123 PUSH2 0x258 CALLDATASIZE PUSH1 0x4 PUSH2 0xFF4 JUMP JUMPDEST PUSH2 0xC66 JUMP JUMPDEST PUSH2 0x14C PUSH2 0x26B CALLDATASIZE PUSH1 0x4 PUSH2 0xFF4 JUMP JUMPDEST PUSH2 0xC81 JUMP JUMPDEST PUSH2 0x19F PUSH2 0x27E CALLDATASIZE PUSH1 0x4 PUSH2 0xF34 JUMP JUMPDEST PUSH2 0xC96 JUMP JUMPDEST PUSH1 0x3 SLOAD PUSH1 0x1 PUSH1 0x1 PUSH1 0xA0 SHL SUB AND DUP2 JUMP JUMPDEST PUSH1 0x4 SLOAD PUSH1 0x0 SWAP1 PUSH2 0x2A3 SWAP1 PUSH1 0x1 PUSH2 0xD4C JUMP JUMPDEST PUSH1 0x4 SSTORE PUSH2 0x2AE PUSH2 0xE9F JUMP JUMPDEST PUSH1 0x40 MLOAD DUP1 PUSH2 0x160 ADD PUSH1 0x40 MSTORE DUP1 DUP13 PUSH1 0x1 PUSH1 0x1 PUSH1 0xA0 SHL SUB AND DUP2 MSTORE PUSH1 0x20 ADD DUP12 PUSH1 0x1 PUSH1 0x1 PUSH1 0xA0 SHL SUB AND DUP2 MSTORE PUSH1 0x20 ADD DUP11 PUSH1 0x1 PUSH1 0x1 PUSH1 0xA0 SHL SUB AND DUP2 MSTORE PUSH1 0x20 ADD DUP10 PUSH1 0x1 PUSH1 0x1 PUSH1 0xA0 SHL SUB AND DUP2 MSTORE PUSH1 0x20 ADD DUP9 DUP2 MSTORE PUSH1 0x20 ADD DUP8 DUP2 MSTORE PUSH1 0x20 ADD DUP7 DUP2 MSTORE PUSH1 0x20 ADD DUP6 DUP2 MSTORE PUSH1 0x20 ADD DUP5 DUP2 MSTORE PUSH1 0x20 ADD TIMESTAMP DUP2 MSTORE PUSH1 0x20 ADD PUSH1 0x0 DUP2 MSTORE POP SWAP1 POP DUP1 PUSH1 0x5 PUSH1 0x0 PUSH1 0x4 SLOAD DUP2 MSTORE PUSH1 0x20 ADD SWAP1 DUP2 MSTORE PUSH1 0x20 ADD PUSH1 0x0 KECCAK256 PUSH1 0x0 DUP3 ADD MLOAD DUP2 PUSH1 0x0 ADD PUSH1 0x0 PUSH2 0x100 EXP DUP2 SLOAD DUP2 PUSH1 0x1 PUSH1 0x1 PUSH1 0xA0 SHL SUB MUL NOT AND SWAP1 DUP4 PUSH1 0x1 PUSH1 0x1 PUSH1 0xA0 SHL SUB AND MUL OR SWAP1 SSTORE POP PUSH1 0x20 DUP3 ADD MLOAD DUP2 PUSH1 0x1 ADD PUSH1 0x0 PUSH2 0x100 EXP DUP2 SLOAD DUP2 PUSH1 0x1 PUSH1 0x1 PUSH1 0xA0 SHL SUB MUL NOT AND SWAP1 DUP4 PUSH1 0x1 PUSH1 0x1 PUSH1 0xA0 SHL SUB AND MUL OR SWAP1 SSTORE POP PUSH1 0x40 DUP3 ADD MLOAD DUP2 PUSH1 0x2 ADD PUSH1 0x0 PUSH2 0x100 EXP DUP2 SLOAD DUP2 PUSH1 0x1 PUSH1 0x1 PUSH1 0xA0 SHL SUB MUL NOT AND SWAP1 DUP4 PUSH1 0x1 PUSH1 0x1 PUSH1 0xA0 SHL SUB AND MUL OR SWAP1 SSTORE POP PUSH1 0x60 DUP3 ADD MLOAD DUP2 PUSH1 0x3 ADD PUSH1 0x0 PUSH2 0x100 EXP DUP2 SLOAD DUP2 PUSH1 0x1 PUSH1 0x1 PUSH1 0xA0 SHL SUB MUL NOT AND SWAP1 DUP4 PUSH1 0x1 PUSH1 0x1 PUSH1 0xA0 SHL SUB AND MUL OR SWAP1 SSTORE POP PUSH1 0x80 DUP3 ADD MLOAD DUP2 PUSH1 0x4 ADD SSTORE PUSH1 0xA0 DUP3 ADD MLOAD DUP2 PUSH1 0x5 ADD SSTORE PUSH1 0xC0 DUP3 ADD MLOAD DUP2 PUSH1 0x6 ADD SSTORE PUSH1 0xE0 DUP3 ADD MLOAD DUP2 PUSH1 0x7 ADD SSTORE PUSH2 0x100 DUP3 ADD MLOAD DUP2 PUSH1 0x8 ADD SSTORE PUSH2 0x120 DUP3 ADD MLOAD DUP2 PUSH1 0x9 ADD SSTORE PUSH2 0x140 DUP3 ADD MLOAD DUP2 PUSH1 0xA ADD SSTORE SWAP1 POP POP PUSH1 0x0 DUP2 PUSH1 0x0 ADD MLOAD SWAP1 POP DUP1 PUSH1 0x1 PUSH1 0x1 PUSH1 0xA0 SHL SUB AND PUSH4 0x23B872DD CALLER ADDRESS DUP12 PUSH1 0x40 MLOAD DUP5 PUSH4 0xFFFFFFFF AND PUSH1 0xE0 SHL DUP2 MSTORE PUSH1 0x4 ADD PUSH2 0x470 SWAP4 SWAP3 SWAP2 SWAP1 PUSH2 0x1041 JUMP JUMPDEST PUSH1 0x20 PUSH1 0x40 MLOAD DUP1 DUP4 SUB DUP2 PUSH1 0x0 DUP8 DUP1 EXTCODESIZE ISZERO DUP1 ISZERO PUSH2 0x48A JUMPI PUSH1 0x0 DUP1 REVERT JUMPDEST POP GAS CALL ISZERO DUP1 ISZERO PUSH2 0x49E JUMPI RETURNDATASIZE PUSH1 0x0 DUP1 RETURNDATACOPY RETURNDATASIZE PUSH1 0x0 REVERT JUMPDEST POP POP POP POP PUSH1 0x40 MLOAD RETURNDATASIZE PUSH1 0x1F NOT PUSH1 0x1F DUP3 ADD AND DUP3 ADD DUP1 PUSH1 0x40 MSTORE POP DUP2 ADD SWAP1 PUSH2 0x4C2 SWAP2 SWAP1 PUSH2 0xFD4 JUMP JUMPDEST POP POP PUSH1 0x4 SLOAD SWAP12 SWAP11 POP POP POP POP POP POP POP POP POP POP POP JUMP JUMPDEST PUSH1 0x0 DUP2 DUP2 MSTORE PUSH1 0x5 PUSH1 0x20 MSTORE PUSH1 0x40 DUP2 KECCAK256 PUSH1 0x8 DUP2 ADD SLOAD PUSH1 0x9 DUP3 ADD SLOAD PUSH2 0x4F7 SWAP2 PUSH2 0xD4C JUMP JUMPDEST TIMESTAMP GT PUSH2 0x507 JUMPI PUSH1 0x1 SWAP2 POP POP PUSH2 0x52D JUMP JUMPDEST PUSH1 0x8 DUP2 ADD SLOAD PUSH1 0x9 DUP3 ADD SLOAD PUSH2 0x51A SWAP2 PUSH2 0xD4C JUMP JUMPDEST TIMESTAMP GT ISZERO PUSH2 0x52B JUMPI PUSH1 0x0 SWAP2 POP POP PUSH2 0x52D JUMP JUMPDEST POP JUMPDEST SWAP2 SWAP1 POP JUMP JUMPDEST PUSH1 0x0 SWAP1 DUP2 MSTORE PUSH1 0x5 PUSH1 0x20 MSTORE PUSH1 0x40 SWAP1 KECCAK256 PUSH1 0xA ADD SLOAD SWAP1 JUMP JUMPDEST PUSH1 0x0 DUP2 DUP2 MSTORE PUSH1 0x5 PUSH1 0x20 MSTORE PUSH1 0x40 SWAP1 KECCAK256 PUSH1 0x3 DUP2 ADD SLOAD PUSH1 0x1 PUSH1 0x1 PUSH1 0xA0 SHL SUB AND CALLER EQ PUSH2 0x56E JUMPI PUSH1 0x0 DUP1 REVERT JUMPDEST PUSH2 0x577 DUP3 PUSH2 0x4D6 JUMP JUMPDEST ISZERO PUSH2 0x59D JUMPI PUSH1 0x40 MLOAD PUSH3 0x461BCD PUSH1 0xE5 SHL DUP2 MSTORE PUSH1 0x4 ADD PUSH2 0x594 SWAP1 PUSH2 0x11AD JUMP JUMPDEST PUSH1 0x40 MLOAD DUP1 SWAP2 SUB SWAP1 REVERT JUMPDEST PUSH1 0x0 PUSH2 0x5BA DUP3 PUSH1 0xA ADD SLOAD DUP4 PUSH1 0x4 ADD SLOAD PUSH2 0xD7A SWAP1 SWAP2 SWAP1 PUSH4 0xFFFFFFFF AND JUMP JUMPDEST GT PUSH2 0x5D7 JUMPI PUSH1 0x40 MLOAD PUSH3 0x461BCD PUSH1 0xE5 SHL DUP2 MSTORE PUSH1 0x4 ADD PUSH2 0x594 SWAP1 PUSH2 0x120F JUMP JUMPDEST PUSH1 0x0 PUSH2 0x5F4 DUP3 PUSH1 0xA ADD SLOAD DUP4 PUSH1 0x4 ADD SLOAD PUSH2 0xD7A SWAP1 SWAP2 SWAP1 PUSH4 0xFFFFFFFF AND JUMP JUMPDEST DUP3 SLOAD PUSH1 0x2 DUP5 ADD SLOAD PUSH1 0x40 MLOAD PUSH4 0xA9059CBB PUSH1 0xE0 SHL DUP2 MSTORE SWAP3 SWAP4 POP PUSH1 0x1 PUSH1 0x1 PUSH1 0xA0 SHL SUB SWAP2 DUP3 AND SWAP3 DUP4 SWAP3 PUSH4 0xA9059CBB SWAP3 PUSH2 0x630 SWAP3 SWAP2 AND SWAP1 DUP7 SWAP1 PUSH1 0x4 ADD PUSH2 0x1065 JUMP JUMPDEST PUSH1 0x20 PUSH1 0x40 MLOAD DUP1 DUP4 SUB DUP2 PUSH1 0x0 DUP8 DUP1 EXTCODESIZE ISZERO DUP1 ISZERO PUSH2 0x64A JUMPI PUSH1 0x0 DUP1 REVERT JUMPDEST POP GAS CALL ISZERO DUP1 ISZERO PUSH2 0x65E JUMPI RETURNDATASIZE PUSH1 0x0 DUP1 RETURNDATACOPY RETURNDATASIZE PUSH1 0x0 REVERT JUMPDEST POP POP POP POP PUSH1 0x40 MLOAD RETURNDATASIZE PUSH1 0x1F NOT PUSH1 0x1F DUP3 ADD AND DUP3 ADD DUP1 PUSH1 0x40 MSTORE POP DUP2 ADD SWAP1 PUSH2 0x682 SWAP2 SWAP1 PUSH2 0xFD4 JUMP JUMPDEST POP POP PUSH1 0x4 DUP1 SLOAD PUSH1 0x0 SWAP1 DUP2 MSTORE PUSH1 0x5 PUSH1 0x20 DUP2 SWAP1 MSTORE PUSH1 0x40 SWAP1 SWAP2 KECCAK256 DUP5 SLOAD DUP2 SLOAD PUSH1 0x1 PUSH1 0x1 PUSH1 0xA0 SHL SUB NOT SWAP1 DUP2 AND PUSH1 0x1 PUSH1 0x1 PUSH1 0xA0 SHL SUB SWAP3 DUP4 AND OR DUP4 SSTORE PUSH1 0x1 DUP1 DUP9 ADD SLOAD SWAP1 DUP5 ADD DUP1 SLOAD DUP4 AND SWAP2 DUP5 AND SWAP2 SWAP1 SWAP2 OR SWAP1 SSTORE PUSH1 0x2 DUP1 DUP9 ADD SLOAD SWAP1 DUP5 ADD DUP1 SLOAD DUP4 AND SWAP2 DUP5 AND SWAP2 SWAP1 SWAP2 OR SWAP1 SSTORE PUSH1 0x3 DUP1 DUP9 ADD SLOAD SWAP1 DUP5 ADD DUP1 SLOAD SWAP1 SWAP3 AND SWAP3 AND SWAP2 SWAP1 SWAP2 OR SWAP1 SSTORE DUP3 DUP6 ADD SLOAD SWAP3 DUP2 ADD SWAP3 SWAP1 SWAP3 SSTORE DUP1 DUP5 ADD SLOAD SWAP1 DUP3 ADD SSTORE PUSH1 0x6 DUP1 DUP5 ADD SLOAD SWAP1 DUP3 ADD SSTORE PUSH1 0x7 DUP1 DUP5 ADD SLOAD SWAP1 DUP3 ADD SSTORE PUSH1 0x8 DUP1 DUP5 ADD SLOAD SWAP1 DUP3 ADD SSTORE PUSH1 0x9 DUP1 DUP5 ADD SLOAD SWAP1 DUP3 ADD SSTORE PUSH1 0xA SWAP3 DUP4 ADD SLOAD SWAP3 ADD SWAP2 SWAP1 SWAP2 SSTORE POP POP JUMP JUMPDEST PUSH2 0x74C PUSH2 0xDBC JUMP JUMPDEST PUSH1 0x0 SLOAD PUSH1 0x1 PUSH1 0x1 PUSH1 0xA0 SHL SUB SWAP1 DUP2 AND SWAP2 AND EQ PUSH2 0x779 JUMPI PUSH1 0x40 MLOAD PUSH3 0x461BCD PUSH1 0xE5 SHL DUP2 MSTORE PUSH1 0x4 ADD PUSH2 0x594 SWAP1 PUSH2 0x1280 JUMP JUMPDEST PUSH1 0x0 DUP1 SLOAD PUSH1 0x40 MLOAD PUSH1 0x1 PUSH1 0x1 PUSH1 0xA0 SHL SUB SWAP1 SWAP2 AND SWAP1 PUSH32 0x8BE0079C531659141344CD1FD0A4F28419497F9722A3DAAFE3B4186F6B6457E0 SWAP1 DUP4 SWAP1 LOG3 PUSH1 0x0 DUP1 SLOAD PUSH1 0x1 PUSH1 0x1 PUSH1 0xA0 SHL SUB NOT AND SWAP1 SSTORE JUMP JUMPDEST PUSH1 0x0 SWAP1 DUP2 MSTORE PUSH1 0x5 PUSH1 0x20 MSTORE PUSH1 0x40 SWAP1 KECCAK256 PUSH1 0x1 ADD SLOAD PUSH1 0x1 PUSH1 0x1 PUSH1 0xA0 SHL SUB AND SWAP1 JUMP JUMPDEST PUSH1 0x2 PUSH1 0x1 SLOAD EQ ISZERO PUSH2 0x804 JUMPI PUSH1 0x40 MLOAD PUSH3 0x461BCD PUSH1 0xE5 SHL DUP2 MSTORE PUSH1 0x4 ADD PUSH2 0x594 SWAP1 PUSH2 0x12F6 JUMP JUMPDEST PUSH1 0x2 PUSH1 0x1 SSTORE PUSH1 0x0 DUP3 DUP2 MSTORE PUSH1 0x5 PUSH1 0x20 MSTORE PUSH1 0x40 SWAP1 KECCAK256 PUSH2 0x820 DUP4 PUSH2 0x4D6 JUMP JUMPDEST PUSH2 0x83C JUMPI PUSH1 0x40 MLOAD PUSH3 0x461BCD PUSH1 0xE5 SHL DUP2 MSTORE PUSH1 0x4 ADD PUSH2 0x594 SWAP1 PUSH2 0x1184 JUMP JUMPDEST DUP1 PUSH1 0x6 ADD SLOAD DUP3 LT ISZERO DUP1 ISZERO PUSH2 0x854 JUMPI POP DUP1 PUSH1 0x7 ADD SLOAD DUP3 GT ISZERO JUMPDEST PUSH2 0x870 JUMPI PUSH1 0x40 MLOAD PUSH3 0x461BCD PUSH1 0xE5 SHL DUP2 MSTORE PUSH1 0x4 ADD PUSH2 0x594 SWAP1 PUSH2 0x12B5 JUMP JUMPDEST PUSH1 0x0 PUSH2 0x897 DUP3 PUSH1 0x4 ADD SLOAD PUSH2 0x891 DUP5 PUSH1 0x5 ADD SLOAD DUP7 PUSH2 0xDC0 SWAP1 SWAP2 SWAP1 PUSH4 0xFFFFFFFF AND JUMP JUMPDEST SWAP1 PUSH2 0xDFA JUMP JUMPDEST SWAP1 POP PUSH1 0x0 PUSH2 0x8B6 PUSH2 0x2710 PUSH2 0x891 PUSH1 0x2 SLOAD DUP6 PUSH2 0xDC0 SWAP1 SWAP2 SWAP1 PUSH4 0xFFFFFFFF AND JUMP JUMPDEST PUSH1 0x1 DUP5 ADD SLOAD DUP5 SLOAD PUSH1 0x40 MLOAD PUSH4 0xA9059CBB PUSH1 0xE0 SHL DUP2 MSTORE SWAP3 SWAP4 POP PUSH1 0x1 PUSH1 0x1 PUSH1 0xA0 SHL SUB SWAP2 DUP3 AND SWAP3 SWAP2 AND SWAP1 DUP2 SWAP1 PUSH4 0xA9059CBB SWAP1 PUSH2 0x8F4 SWAP1 CALLER SWAP1 DUP11 SWAP1 PUSH1 0x4 ADD PUSH2 0x1065 JUMP JUMPDEST PUSH1 0x20 PUSH1 0x40 MLOAD DUP1 DUP4 SUB DUP2 PUSH1 0x0 DUP8 DUP1 EXTCODESIZE ISZERO DUP1 ISZERO PUSH2 0x90E JUMPI PUSH1 0x0 DUP1 REVERT JUMPDEST POP GAS CALL ISZERO DUP1 ISZERO PUSH2 0x922 JUMPI RETURNDATASIZE PUSH1 0x0 DUP1 RETURNDATACOPY RETURNDATASIZE PUSH1 0x0 REVERT JUMPDEST POP POP POP POP PUSH1 0x40 MLOAD RETURNDATASIZE PUSH1 0x1F NOT PUSH1 0x1F DUP3 ADD AND DUP3 ADD DUP1 PUSH1 0x40 MSTORE POP DUP2 ADD SWAP1 PUSH2 0x946 SWAP2 SWAP1 PUSH2 0xFD4 JUMP JUMPDEST POP PUSH1 0x2 DUP6 ADD SLOAD PUSH1 0x1 PUSH1 0x1 PUSH1 0xA0 SHL SUB DUP1 DUP5 AND SWAP2 PUSH4 0x23B872DD SWAP2 CALLER SWAP2 AND PUSH2 0x96B DUP9 DUP9 PUSH2 0xD7A JUMP JUMPDEST PUSH1 0x40 MLOAD DUP5 PUSH4 0xFFFFFFFF AND PUSH1 0xE0 SHL DUP2 MSTORE PUSH1 0x4 ADD PUSH2 0x989 SWAP4 SWAP3 SWAP2 SWAP1 PUSH2 0x1041 JUMP JUMPDEST PUSH1 0x20 PUSH1 0x40 MLOAD DUP1 DUP4 SUB DUP2 PUSH1 0x0 DUP8 DUP1 EXTCODESIZE ISZERO DUP1 ISZERO PUSH2 0x9A3 JUMPI PUSH1 0x0 DUP1 REVERT JUMPDEST POP GAS CALL ISZERO DUP1 ISZERO PUSH2 0x9B7 JUMPI RETURNDATASIZE PUSH1 0x0 DUP1 RETURNDATACOPY RETURNDATASIZE PUSH1 0x0 REVERT JUMPDEST POP POP POP POP PUSH1 0x40 MLOAD RETURNDATASIZE PUSH1 0x1F NOT PUSH1 0x1F DUP3 ADD AND DUP3 ADD DUP1 PUSH1 0x40 MSTORE POP DUP2 ADD SWAP1 PUSH2 0x9DB SWAP2 SWAP1 PUSH2 0xFD4 JUMP JUMPDEST POP DUP2 PUSH1 0x1 PUSH1 0x1 PUSH1 0xA0 SHL SUB AND PUSH4 0x23B872DD CALLER PUSH2 0x9F4 PUSH2 0xBAA JUMP JUMPDEST DUP7 PUSH1 0x40 MLOAD DUP5 PUSH4 0xFFFFFFFF AND PUSH1 0xE0 SHL DUP2 MSTORE PUSH1 0x4 ADD PUSH2 0xA13 SWAP4 SWAP3 SWAP2 SWAP1 PUSH2 0x1041 JUMP JUMPDEST PUSH1 0x20 PUSH1 0x40 MLOAD DUP1 DUP4 SUB DUP2 PUSH1 0x0 DUP8 DUP1 EXTCODESIZE ISZERO DUP1 ISZERO PUSH2 0xA2D JUMPI PUSH1 0x0 DUP1 REVERT JUMPDEST POP GAS CALL ISZERO DUP1 ISZERO PUSH2 0xA41 JUMPI RETURNDATASIZE PUSH1 0x0 DUP1 RETURNDATACOPY RETURNDATASIZE PUSH1 0x0 REVERT JUMPDEST POP POP POP POP PUSH1 0x40 MLOAD RETURNDATASIZE PUSH1 0x1F NOT PUSH1 0x1F DUP3 ADD AND DUP3 ADD DUP1 PUSH1 0x40 MSTORE POP DUP2 ADD SWAP1 PUSH2 0xA65 SWAP2 SWAP1 PUSH2 0xFD4 JUMP JUMPDEST POP PUSH1 0xA DUP6 ADD SLOAD PUSH2 0xA75 SWAP1 DUP8 PUSH2 0xD4C JUMP JUMPDEST PUSH1 0xA DUP1 DUP8 ADD SWAP2 DUP3 SSTORE PUSH1 0x4 DUP1 SLOAD PUSH1 0x0 SWAP1 DUP2 MSTORE PUSH1 0x5 PUSH1 0x20 DUP2 SWAP1 MSTORE PUSH1 0x40 SWAP1 SWAP2 KECCAK256 DUP10 SLOAD DUP2 SLOAD PUSH1 0x1 PUSH1 0x1 PUSH1 0xA0 SHL SUB NOT SWAP1 DUP2 AND PUSH1 0x1 PUSH1 0x1 PUSH1 0xA0 SHL SUB SWAP3 DUP4 AND OR DUP4 SSTORE PUSH1 0x1 DUP1 DUP14 ADD SLOAD DUP2 DUP6 ADD DUP1 SLOAD DUP5 AND SWAP2 DUP6 AND SWAP2 SWAP1 SWAP2 OR SWAP1 SSTORE PUSH1 0x2 DUP1 DUP15 ADD SLOAD SWAP1 DUP6 ADD DUP1 SLOAD DUP5 AND SWAP2 DUP6 AND SWAP2 SWAP1 SWAP2 OR SWAP1 SSTORE PUSH1 0x3 DUP1 DUP15 ADD SLOAD SWAP1 DUP6 ADD DUP1 SLOAD SWAP1 SWAP4 AND SWAP4 AND SWAP3 SWAP1 SWAP3 OR SWAP1 SSTORE DUP4 DUP12 ADD SLOAD SWAP4 DUP3 ADD SWAP4 SWAP1 SWAP4 SSTORE DUP2 DUP11 ADD SLOAD SWAP2 DUP2 ADD SWAP2 SWAP1 SWAP2 SSTORE PUSH1 0x6 DUP1 DUP11 ADD SLOAD SWAP1 DUP3 ADD SSTORE PUSH1 0x7 DUP1 DUP11 ADD SLOAD SWAP1 DUP3 ADD SSTORE PUSH1 0x8 DUP1 DUP11 ADD SLOAD SWAP1 DUP3 ADD SSTORE PUSH1 0x9 SWAP9 DUP10 ADD SLOAD SWAP9 DUP2 ADD SWAP9 SWAP1 SWAP9 SSTORE SWAP2 SLOAD SWAP7 ADD SWAP6 SWAP1 SWAP6 SSTORE POP POP POP SWAP1 DUP1 SSTORE POP POP POP JUMP JUMPDEST PUSH1 0x0 DUP2 DUP2 MSTORE PUSH1 0x5 PUSH1 0x20 MSTORE PUSH1 0x40 DUP2 KECCAK256 PUSH2 0xB5D DUP4 PUSH2 0x4D6 JUMP JUMPDEST ISZERO ISZERO PUSH1 0x1 EQ PUSH2 0xB7E JUMPI PUSH1 0x40 MLOAD PUSH3 0x461BCD PUSH1 0xE5 SHL DUP2 MSTORE PUSH1 0x4 ADD PUSH2 0x594 SWAP1 PUSH2 0x1184 JUMP JUMPDEST PUSH2 0xBA3 TIMESTAMP PUSH2 0xB9D DUP4 PUSH1 0x8 ADD SLOAD DUP5 PUSH1 0x9 ADD SLOAD PUSH2 0xD4C SWAP1 SWAP2 SWAP1 PUSH4 0xFFFFFFFF AND JUMP JUMPDEST SWAP1 PUSH2 0xD7A JUMP JUMPDEST SWAP4 SWAP3 POP POP POP JUMP JUMPDEST PUSH1 0x0 SLOAD PUSH1 0x1 PUSH1 0x1 PUSH1 0xA0 SHL SUB AND SWAP1 JUMP JUMPDEST PUSH1 0x0 DUP2 DUP2 MSTORE PUSH1 0x5 PUSH1 0x20 MSTORE PUSH1 0x40 DUP2 KECCAK256 PUSH1 0xA DUP2 ADD SLOAD PUSH1 0x4 DUP3 ADD SLOAD PUSH2 0xBA3 SWAP2 PUSH2 0xD7A JUMP JUMPDEST PUSH1 0x5 PUSH1 0x20 DUP2 SWAP1 MSTORE PUSH1 0x0 SWAP2 DUP3 MSTORE PUSH1 0x40 SWAP1 SWAP2 KECCAK256 DUP1 SLOAD PUSH1 0x1 DUP3 ADD SLOAD PUSH1 0x2 DUP4 ADD SLOAD PUSH1 0x3 DUP5 ADD SLOAD PUSH1 0x4 DUP6 ADD SLOAD SWAP6 DUP6 ADD SLOAD PUSH1 0x6 DUP7 ADD SLOAD PUSH1 0x7 DUP8 ADD SLOAD PUSH1 0x8 DUP9 ADD SLOAD PUSH1 0x9 DUP10 ADD SLOAD PUSH1 0xA SWAP1 SWAP10 ADD SLOAD PUSH1 0x1 PUSH1 0x1 PUSH1 0xA0 SHL SUB SWAP9 DUP10 AND SWAP11 SWAP8 DUP10 AND SWAP10 SWAP7 DUP10 AND SWAP9 SWAP1 SWAP6 AND SWAP7 SWAP6 SWAP4 SWAP5 SWAP3 SWAP4 SWAP2 SWAP3 SWAP1 SWAP2 SWAP1 DUP12 JUMP JUMPDEST PUSH1 0x4 SLOAD DUP2 JUMP JUMPDEST PUSH1 0x0 SWAP1 DUP2 MSTORE PUSH1 0x5 PUSH1 0x20 DUP2 SWAP1 MSTORE PUSH1 0x40 SWAP1 SWAP2 KECCAK256 ADD SLOAD SWAP1 JUMP JUMPDEST PUSH1 0x2 SLOAD DUP2 JUMP JUMPDEST PUSH1 0x0 SWAP1 DUP2 MSTORE PUSH1 0x5 PUSH1 0x20 MSTORE PUSH1 0x40 SWAP1 KECCAK256 SLOAD PUSH1 0x1 PUSH1 0x1 PUSH1 0xA0 SHL SUB AND SWAP1 JUMP JUMPDEST PUSH1 0x0 SWAP1 DUP2 MSTORE PUSH1 0x5 PUSH1 0x20 MSTORE PUSH1 0x40 SWAP1 KECCAK256 PUSH1 0x4 ADD SLOAD SWAP1 JUMP JUMPDEST PUSH2 0xC9E PUSH2 0xDBC JUMP JUMPDEST PUSH1 0x0 SLOAD PUSH1 0x1 PUSH1 0x1 PUSH1 0xA0 SHL SUB SWAP1 DUP2 AND SWAP2 AND EQ PUSH2 0xCCB JUMPI PUSH1 0x40 MLOAD PUSH3 0x461BCD PUSH1 0xE5 SHL DUP2 MSTORE PUSH1 0x4 ADD PUSH2 0x594 SWAP1 PUSH2 0x1280 JUMP JUMPDEST PUSH1 0x1 PUSH1 0x1 PUSH1 0xA0 SHL SUB DUP2 AND PUSH2 0xCF1 JUMPI PUSH1 0x40 MLOAD PUSH3 0x461BCD PUSH1 0xE5 SHL DUP2 MSTORE PUSH1 0x4 ADD PUSH2 0x594 SWAP1 PUSH2 0x113E JUMP JUMPDEST PUSH1 0x0 DUP1 SLOAD PUSH1 0x40 MLOAD PUSH1 0x1 PUSH1 0x1 PUSH1 0xA0 SHL SUB DUP1 DUP6 AND SWAP4 SWAP3 AND SWAP2 PUSH32 0x8BE0079C531659141344CD1FD0A4F28419497F9722A3DAAFE3B4186F6B6457E0 SWAP2 LOG3 PUSH1 0x0 DUP1 SLOAD PUSH1 0x1 PUSH1 0x1 PUSH1 0xA0 SHL SUB NOT AND PUSH1 0x1 PUSH1 0x1 PUSH1 0xA0 SHL SUB SWAP3 SWAP1 SWAP3 AND SWAP2 SWAP1 SWAP2 OR SWAP1 SSTORE JUMP JUMPDEST PUSH1 0x0 DUP3 DUP3 ADD DUP4 DUP2 LT ISZERO PUSH2 0xD71 JUMPI PUSH1 0x40 MLOAD PUSH3 0x461BCD PUSH1 0xE5 SHL DUP2 MSTORE PUSH1 0x4 ADD PUSH2 0x594 SWAP1 PUSH2 0x11D8 JUMP JUMPDEST SWAP1 POP JUMPDEST SWAP3 SWAP2 POP POP JUMP JUMPDEST PUSH1 0x0 PUSH2 0xD71 DUP4 DUP4 PUSH1 0x40 MLOAD DUP1 PUSH1 0x40 ADD PUSH1 0x40 MSTORE DUP1 PUSH1 0x1E DUP2 MSTORE PUSH1 0x20 ADD PUSH32 0x536166654D6174683A207375627472616374696F6E206F766572666C6F770000 DUP2 MSTORE POP PUSH2 0xE3C JUMP JUMPDEST CALLER SWAP1 JUMP JUMPDEST PUSH1 0x0 DUP3 PUSH2 0xDCF JUMPI POP PUSH1 0x0 PUSH2 0xD74 JUMP JUMPDEST DUP3 DUP3 MUL DUP3 DUP5 DUP3 DUP2 PUSH2 0xDDC JUMPI INVALID JUMPDEST DIV EQ PUSH2 0xD71 JUMPI PUSH1 0x40 MLOAD PUSH3 0x461BCD PUSH1 0xE5 SHL DUP2 MSTORE PUSH1 0x4 ADD PUSH2 0x594 SWAP1 PUSH2 0x123F JUMP JUMPDEST PUSH1 0x0 PUSH2 0xD71 DUP4 DUP4 PUSH1 0x40 MLOAD DUP1 PUSH1 0x40 ADD PUSH1 0x40 MSTORE DUP1 PUSH1 0x1A DUP2 MSTORE PUSH1 0x20 ADD PUSH32 0x536166654D6174683A206469766973696F6E206279207A65726F000000000000 DUP2 MSTORE POP PUSH2 0xE68 JUMP JUMPDEST PUSH1 0x0 DUP2 DUP5 DUP5 GT ISZERO PUSH2 0xE60 JUMPI PUSH1 0x40 MLOAD PUSH3 0x461BCD PUSH1 0xE5 SHL DUP2 MSTORE PUSH1 0x4 ADD PUSH2 0x594 SWAP2 SWAP1 PUSH2 0x10EB JUMP JUMPDEST POP POP POP SWAP1 SUB SWAP1 JUMP JUMPDEST PUSH1 0x0 DUP2 DUP4 PUSH2 0xE89 JUMPI PUSH1 0x40 MLOAD PUSH3 0x461BCD PUSH1 0xE5 SHL DUP2 MSTORE PUSH1 0x4 ADD PUSH2 0x594 SWAP2 SWAP1 PUSH2 0x10EB JUMP JUMPDEST POP PUSH1 0x0 DUP4 DUP6 DUP2 PUSH2 0xE95 JUMPI INVALID JUMPDEST DIV SWAP6 SWAP5 POP POP POP POP POP JUMP JUMPDEST PUSH1 0x40 MLOAD DUP1 PUSH2 0x160 ADD PUSH1 0x40 MSTORE DUP1 PUSH1 0x0 PUSH1 0x1 PUSH1 0x1 PUSH1 0xA0 SHL SUB AND DUP2 MSTORE PUSH1 0x20 ADD PUSH1 0x0 PUSH1 0x1 PUSH1 0x1 PUSH1 0xA0 SHL SUB AND DUP2 MSTORE PUSH1 0x20 ADD PUSH1 0x0 PUSH1 0x1 PUSH1 0x1 PUSH1 0xA0 SHL SUB AND DUP2 MSTORE PUSH1 0x20 ADD PUSH1 0x0 PUSH1 0x1 PUSH1 0x1 PUSH1 0xA0 SHL SUB AND DUP2 MSTORE PUSH1 0x20 ADD PUSH1 0x0 DUP2 MSTORE PUSH1 0x20 ADD PUSH1 0x0 DUP2 MSTORE PUSH1 0x20 ADD PUSH1 0x0 DUP2 MSTORE PUSH1 0x20 ADD PUSH1 0x0 DUP2 MSTORE PUSH1 0x20 ADD PUSH1 0x0 DUP2 MSTORE PUSH1 0x20 ADD PUSH1 0x0 DUP2 MSTORE PUSH1 0x20 ADD PUSH1 0x0 DUP2 MSTORE POP SWAP1 JUMP JUMPDEST DUP1 CALLDATALOAD PUSH1 0x1 PUSH1 0x1 PUSH1 0xA0 SHL SUB DUP2 AND DUP2 EQ PUSH2 0xD74 JUMPI PUSH1 0x0 DUP1 REVERT JUMPDEST PUSH1 0x0 PUSH1 0x20 DUP3 DUP5 SUB SLT ISZERO PUSH2 0xF45 JUMPI DUP1 DUP2 REVERT JUMPDEST PUSH2 0xD71 DUP4 DUP4 PUSH2 0xF1D JUMP JUMPDEST PUSH1 0x0 DUP1 PUSH1 0x0 DUP1 PUSH1 0x0 DUP1 PUSH1 0x0 DUP1 PUSH1 0x0 PUSH2 0x120 DUP11 DUP13 SUB SLT ISZERO PUSH2 0xF6D JUMPI DUP5 DUP6 REVERT JUMPDEST PUSH2 0xF77 DUP12 DUP12 PUSH2 0xF1D JUMP JUMPDEST SWAP9 POP PUSH2 0xF86 DUP12 PUSH1 0x20 DUP13 ADD PUSH2 0xF1D JUMP JUMPDEST SWAP8 POP PUSH2 0xF95 DUP12 PUSH1 0x40 DUP13 ADD PUSH2 0xF1D JUMP JUMPDEST SWAP7 POP PUSH2 0xFA4 DUP12 PUSH1 0x60 DUP13 ADD PUSH2 0xF1D JUMP JUMPDEST SWAP9 SWAP12 SWAP8 SWAP11 POP SWAP6 SWAP9 PUSH1 0x80 DUP2 ADD CALLDATALOAD SWAP8 PUSH1 0xA0 DUP3 ADD CALLDATALOAD SWAP8 POP PUSH1 0xC0 DUP3 ADD CALLDATALOAD SWAP7 POP PUSH1 0xE0 DUP3 ADD CALLDATALOAD SWAP6 POP PUSH2 0x100 SWAP1 SWAP2 ADD CALLDATALOAD SWAP4 POP SWAP2 POP POP JUMP JUMPDEST PUSH1 0x0 PUSH1 0x20 DUP3 DUP5 SUB SLT ISZERO PUSH2 0xFE5 JUMPI DUP1 DUP2 REVERT JUMPDEST DUP2 MLOAD DUP1 ISZERO ISZERO DUP2 EQ PUSH2 0xD71 JUMPI DUP2 DUP3 REVERT JUMPDEST PUSH1 0x0 PUSH1 0x20 DUP3 DUP5 SUB SLT ISZERO PUSH2 0x1005 JUMPI DUP1 DUP2 REVERT JUMPDEST POP CALLDATALOAD SWAP2 SWAP1 POP JUMP JUMPDEST PUSH1 0x0 DUP1 PUSH1 0x40 DUP4 DUP6 SUB SLT ISZERO PUSH2 0x101E JUMPI DUP2 DUP3 REVERT JUMPDEST POP POP DUP1 CALLDATALOAD SWAP3 PUSH1 0x20 SWAP1 SWAP2 ADD CALLDATALOAD SWAP2 POP JUMP JUMPDEST PUSH1 0x1 PUSH1 0x1 PUSH1 0xA0 SHL SUB SWAP2 SWAP1 SWAP2 AND DUP2 MSTORE PUSH1 0x20 ADD SWAP1 JUMP JUMPDEST PUSH1 0x1 PUSH1 0x1 PUSH1 0xA0 SHL SUB SWAP4 DUP5 AND DUP2 MSTORE SWAP2 SWAP1 SWAP3 AND PUSH1 0x20 DUP3 ADD MSTORE PUSH1 0x40 DUP2 ADD SWAP2 SWAP1 SWAP2 MSTORE PUSH1 0x60 ADD SWAP1 JUMP JUMPDEST PUSH1 0x1 PUSH1 0x1 PUSH1 0xA0 SHL SUB SWAP3 SWAP1 SWAP3 AND DUP3 MSTORE PUSH1 0x20 DUP3 ADD MSTORE PUSH1 0x40 ADD SWAP1 JUMP JUMPDEST PUSH1 0x1 PUSH1 0x1 PUSH1 0xA0 SHL SUB SWAP12 DUP13 AND DUP2 MSTORE SWAP10 DUP12 AND PUSH1 0x20 DUP12 ADD MSTORE SWAP8 DUP11 AND PUSH1 0x40 DUP11 ADD MSTORE SWAP6 SWAP1 SWAP9 AND PUSH1 0x60 DUP9 ADD MSTORE PUSH1 0x80 DUP8 ADD SWAP4 SWAP1 SWAP4 MSTORE PUSH1 0xA0 DUP7 ADD SWAP2 SWAP1 SWAP2 MSTORE PUSH1 0xC0 DUP6 ADD MSTORE PUSH1 0xE0 DUP5 ADD MSTORE PUSH2 0x100 DUP4 ADD SWAP4 SWAP1 SWAP4 MSTORE PUSH2 0x120 DUP3 ADD SWAP3 SWAP1 SWAP3 MSTORE PUSH2 0x140 DUP2 ADD SWAP2 SWAP1 SWAP2 MSTORE PUSH2 0x160 ADD SWAP1 JUMP JUMPDEST SWAP1 ISZERO ISZERO DUP2 MSTORE PUSH1 0x20 ADD SWAP1 JUMP JUMPDEST PUSH1 0x0 PUSH1 0x20 DUP1 DUP4 MSTORE DUP4 MLOAD DUP1 DUP3 DUP6 ADD MSTORE DUP3 JUMPDEST DUP2 DUP2 LT ISZERO PUSH2 0x1117 JUMPI DUP6 DUP2 ADD DUP4 ADD MLOAD DUP6 DUP3 ADD PUSH1 0x40 ADD MSTORE DUP3 ADD PUSH2 0x10FB JUMP JUMPDEST DUP2 DUP2 GT ISZERO PUSH2 0x1128 JUMPI DUP4 PUSH1 0x40 DUP4 DUP8 ADD ADD MSTORE JUMPDEST POP PUSH1 0x1F ADD PUSH1 0x1F NOT AND SWAP3 SWAP1 SWAP3 ADD PUSH1 0x40 ADD SWAP4 SWAP3 POP POP POP JUMP JUMPDEST PUSH1 0x20 DUP1 DUP3 MSTORE PUSH1 0x26 SWAP1 DUP3 ADD MSTORE PUSH32 0x4F776E61626C653A206E6577206F776E657220697320746865207A65726F2061 PUSH1 0x40 DUP3 ADD MSTORE PUSH6 0x646472657373 PUSH1 0xD0 SHL PUSH1 0x60 DUP3 ADD MSTORE PUSH1 0x80 ADD SWAP1 JUMP JUMPDEST PUSH1 0x20 DUP1 DUP3 MSTORE PUSH1 0xF SWAP1 DUP3 ADD MSTORE PUSH15 0x53616C65204E6F7420416374697665 PUSH1 0x88 SHL PUSH1 0x40 DUP3 ADD MSTORE PUSH1 0x60 ADD SWAP1 JUMP JUMPDEST PUSH1 0x20 DUP1 DUP3 MSTORE PUSH1 0x11 SWAP1 DUP3 ADD MSTORE PUSH17 0x53616C65205374696C6C20416374697665 PUSH1 0x78 SHL PUSH1 0x40 DUP3 ADD MSTORE PUSH1 0x60 ADD SWAP1 JUMP JUMPDEST PUSH1 0x20 DUP1 DUP3 MSTORE PUSH1 0x1B SWAP1 DUP3 ADD MSTORE PUSH32 0x536166654D6174683A206164646974696F6E206F766572666C6F770000000000 PUSH1 0x40 DUP3 ADD MSTORE PUSH1 0x60 ADD SWAP1 JUMP JUMPDEST PUSH1 0x20 DUP1 DUP3 MSTORE PUSH1 0x16 SWAP1 DUP3 ADD MSTORE PUSH22 0x139BDD08195B9BDD59DA081D1BDAD95B9CC81B19599D PUSH1 0x52 SHL PUSH1 0x40 DUP3 ADD MSTORE PUSH1 0x60 ADD SWAP1 JUMP JUMPDEST PUSH1 0x20 DUP1 DUP3 MSTORE PUSH1 0x21 SWAP1 DUP3 ADD MSTORE PUSH32 0x536166654D6174683A206D756C7469706C69636174696F6E206F766572666C6F PUSH1 0x40 DUP3 ADD MSTORE PUSH1 0x77 PUSH1 0xF8 SHL PUSH1 0x60 DUP3 ADD MSTORE PUSH1 0x80 ADD SWAP1 JUMP JUMPDEST PUSH1 0x20 DUP1 DUP3 MSTORE DUP2 DUP2 ADD MSTORE PUSH32 0x4F776E61626C653A2063616C6C6572206973206E6F7420746865206F776E6572 PUSH1 0x40 DUP3 ADD MSTORE PUSH1 0x60 ADD SWAP1 JUMP JUMPDEST PUSH1 0x20 DUP1 DUP3 MSTORE PUSH1 0x21 SWAP1 DUP3 ADD MSTORE PUSH32 0x53616C65204E6F742077697468696E206D696E206D6178207468726573686F6C PUSH1 0x40 DUP3 ADD MSTORE PUSH1 0x19 PUSH1 0xFA SHL PUSH1 0x60 DUP3 ADD MSTORE PUSH1 0x80 ADD SWAP1 JUMP JUMPDEST PUSH1 0x20 DUP1 DUP3 MSTORE PUSH1 0x1F SWAP1 DUP3 ADD MSTORE PUSH32 0x5265656E7472616E637947756172643A207265656E7472616E742063616C6C00 PUSH1 0x40 DUP3 ADD MSTORE PUSH1 0x60 ADD SWAP1 JUMP JUMPDEST SWAP1 DUP2 MSTORE PUSH1 0x20 ADD SWAP1 JUMP INVALID LOG2 PUSH5 0x6970667358 0x22 SLT KECCAK256 MOD 0xA9 ORIGIN 0xEB 0xD SWAP7 0xD8 0xD0 0xD8 0xE2 0xD8 DELEGATECALL DUP15 0xD9 SWAP2 0xEE GAS 0xEB 0xDA 0xC8 SWAP6 SLOAD 0xE0 CALL LOG4 DELEGATECALL SWAP15 CALLDATALOAD DUP2 0x48 0x25 ISZERO PUSH5 0x736F6C6343 STOP MOD 0xC STOP CALLER ","sha1":"e6648baaea03bf6ee810f6644720a788cdcd508a","source":"// SPDX-License-Identifier: AGPL-3.0\npragma solidity 0.6.12;\npragma experimental ABIEncoderV2;\n\nimport {\n    SafeERC20,\n    SafeMath,\n    IERC20,\n    Address\n} from \"@openzeppelin/contracts/token/ERC20/SafeERC20.sol\";\nimport {ERC20} from \"@openzeppelin/contracts/token/ERC20/ERC20.sol\";\nimport {Math} from \"@openzeppelin/contracts/math/Math.sol\";\nimport {Ownable} from \"@openzeppelin/contracts/access/Ownable.sol\";\nimport \"../interfaces/options.sol\";\nimport \"../interfaces/vaults.sol\";\nimport \"@openzeppelin/contracts/utils/ReentrancyGuard.sol\";\n\nstruct saleInformation{\n\n\n    address saleToken;\n    address buyToken;\n    address treasury;\n    address saleOwner; \n    uint256 amountOffered; \n    uint256 purchaseAmount; \n    uint256 minPurhcase;\n    uint256 maxPurchase;\n    uint256 saleTime;\n    uint256 openingTime; \n    uint256 totalSold; \n}\n\ncontract saleContract is Ownable, ReentrancyGuard {\n\n    using SafeERC20 for IERC20;\n    using Address for address;\n    using SafeMath for uint256;\n    uint256 constant BPS_Adj = 10000;\n    uint256 public fee;\n    address public feeTo; /// address that receives proceeds \n    uint256 public saleNumber; /// tracking the sale number \n    mapping(uint256 => saleInformation) public sales; \n\n    constructor (uint256 _fee) public {\n        saleNumber = 0;\n        require(_fee <= 250); // fee cannot be higher than 2.5%\n        fee = _fee;\n        \n    }\n\n    function newSale(\n        address _saleToken,\n        address _buyToken,\n        address _treasury,\n        address _saleOwner,\n        uint256 _amountOffered, \n        uint256 _purchaseAmount, \n        uint256 _minPurhcase,\n        uint256 _maxPurchase,\n        uint256 _saleTime        \n    ) external returns (uint256) {\n        saleNumber = saleNumber.add(1);\n        saleInformation memory sale = saleInformation(\n            _saleToken,\n            _buyToken,\n            _treasury,\n            _saleOwner,\n            _amountOffered, \n            _purchaseAmount, \n            _minPurhcase,\n            _maxPurchase,\n            _saleTime,   \n            block.timestamp,\n            uint256(0)\n        );\n        sales[saleNumber] = sale;\n        IERC20 saleToken = IERC20(sale.saleToken);\n        saleToken.transferFrom(msg.sender, address(this), _amountOffered);\n        return(saleNumber);\n\n    }\n\n    function saleActive(uint256 _saleNumber) public view returns(bool)  { \n        saleInformation storage sale = sales[_saleNumber];\n        if ( block.timestamp <= (sale.openingTime).add(sale.saleTime)) return true;\n        if ( block.timestamp > (sale.openingTime).add(sale.saleTime)) return false;\n    }\n\n\n    function purchaseTokens(uint256 _saleNumber, uint256 _amount) public nonReentrant {\n        saleInformation storage sale = sales[_saleNumber];\n        require(saleActive(_saleNumber), \"Sale Not Active\");\n        require(_amount >= sale.minPurhcase && _amount <= sale.maxPurchase, \"Sale Not within min max threshold\");\n        //require(_amount >= (sale.amountOffered).sub(sale.totalSold), \"Not enough tokens left\" );\n        uint256 price = _amount.mul(sale.purchaseAmount).div(sale.amountOffered);\n        uint256 feePaid = price.mul(fee).div(BPS_Adj);\n        IERC20 buyToken = IERC20(sale.buyToken);\n        IERC20 saleToken = IERC20(sale.saleToken);\n        saleToken.transfer(msg.sender, _amount);\n        buyToken.transferFrom(msg.sender, sale.treasury, price.sub(feePaid));\n        buyToken.transferFrom(msg.sender, owner(), feePaid);\n\n        sale.totalSold = (sale.totalSold).add(_amount);\n        sales[saleNumber] = sale;\n    }\n\n    function amountRemaining(uint _saleNumber) public view returns(uint256) {\n        saleInformation storage sale = sales[_saleNumber];\n        return((sale.amountOffered).sub(sale.totalSold));\n    }\n\n\n    function redeemUnpurchased(uint256 _saleNumber) public {\n        saleInformation storage sale = sales[_saleNumber];\n        require(sale.saleOwner == msg.sender);\n        require(saleActive(_saleNumber) == false, \"Sale Still Active\");\n        require((sale.amountOffered).sub(sale.totalSold) > 0, \"Not enough tokens left\" );\n        uint256 unsold = (sale.amountOffered).sub(sale.totalSold);\n        IERC20 saleToken = IERC20(sale.saleToken);\n        saleToken.transfer(sale.treasury, unsold);\n        sales[saleNumber] = sale;\n    }\n\n    \n    function getSaleTokens(uint256 _saleNumber) public view returns(address) {\n        saleInformation storage sale = sales[_saleNumber];\n        return( sale.saleToken);\n\n    }\n\n    function getBuyTokens(uint256 _saleNumber) public view returns(address) {\n        saleInformation storage sale = sales[_saleNumber];\n        return( sale.buyToken);\n    }   \n\n    function getAmountOffered(uint256 _saleNumber) public view returns(uint256) {\n        saleInformation storage sale = sales[_saleNumber];\n        return( sale.amountOffered);\n    }   \n\n    function getPurchaseAmount(uint256 _saleNumber) public view returns(uint256) {\n        saleInformation storage sale = sales[_saleNumber];\n        return( sale.purchaseAmount);\n    }   \n\n    function getTotalSold(uint256 _saleNumber) public view returns(uint256) {\n        saleInformation storage sale = sales[_saleNumber];\n        return( sale.totalSold);\n    }   \n\n    function getTimeRemaining(uint256 _saleNumber) public view returns(uint256) {\n        saleInformation storage sale = sales[_saleNumber];\n        require(saleActive( _saleNumber) == true, \"Sale Not Active\");\n        return((sale.openingTime).add(sale.saleTime).sub(block.timestamp));\n    }   \n\n\n}","sourcePath":"contracts/SaleContract.sol","deployment":{"address":"0x09B2DEc14aC105Dc90BB448cDc465E48799509Bd","chainid":"4002","blockHeight":5143939}}