{
  "abi": [
    {
      "inputs": [
        {
          "internalType": "address",
          "name": "_collateral",
          "type": "address"
        },
        {
          "internalType": "address",
          "name": "_debt",
          "type": "address"
        },
        {
          "internalType": "uint256",
          "name": "_collatAmt",
          "type": "uint256"
        },
        {
          "internalType": "uint256",
          "name": "_amtOwed",
          "type": "uint256"
        },
        {
          "internalType": "uint256",
          "name": "_timeToMint",
          "type": "uint256"
        },
        {
          "internalType": "uint256",
          "name": "_timeToRepay",
          "type": "uint256"
        },
        {
          "internalType": "address",
          "name": "_vault",
          "type": "address"
        },
        {
          "internalType": "bool",
          "name": "_useVault",
          "type": "bool"
        }
      ],
      "stateMutability": "nonpayable",
      "type": "constructor"
    },
    {
      "anonymous": false,
      "inputs": [
        {
          "indexed": true,
          "internalType": "address",
          "name": "previousOwner",
          "type": "address"
        },
        {
          "indexed": true,
          "internalType": "address",
          "name": "newOwner",
          "type": "address"
        }
      ],
      "name": "OwnershipTransferred",
      "type": "event"
    },
    {
      "inputs": [],
      "name": "amtOwed",
      "outputs": [
        {
          "internalType": "uint256",
          "name": "",
          "type": "uint256"
        }
      ],
      "stateMutability": "view",
      "type": "function"
    },
    {
      "inputs": [],
      "name": "buyer",
      "outputs": [
        {
          "internalType": "address",
          "name": "",
          "type": "address"
        }
      ],
      "stateMutability": "view",
      "type": "function"
    },
    {
      "inputs": [],
      "name": "collatAmt",
      "outputs": [
        {
          "internalType": "uint256",
          "name": "",
          "type": "uint256"
        }
      ],
      "stateMutability": "view",
      "type": "function"
    },
    {
      "inputs": [],
      "name": "collateralToken",
      "outputs": [
        {
          "internalType": "contract IERC20",
          "name": "",
          "type": "address"
        }
      ],
      "stateMutability": "view",
      "type": "function"
    },
    {
      "inputs": [],
      "name": "deadline",
      "outputs": [
        {
          "internalType": "uint256",
          "name": "",
          "type": "uint256"
        }
      ],
      "stateMutability": "view",
      "type": "function"
    },
    {
      "inputs": [],
      "name": "debtToken",
      "outputs": [
        {
          "internalType": "contract IERC20",
          "name": "",
          "type": "address"
        }
      ],
      "stateMutability": "view",
      "type": "function"
    },
    {
      "inputs": [],
      "name": "depositCollateral",
      "outputs": [],
      "stateMutability": "nonpayable",
      "type": "function"
    },
    {
      "inputs": [],
      "name": "excerciseOption",
      "outputs": [],
      "stateMutability": "nonpayable",
      "type": "function"
    },
    {
      "inputs": [
        {
          "internalType": "uint256",
          "name": "_amt",
          "type": "uint256"
        },
        {
          "internalType": "address",
          "name": "_recipient",
          "type": "address"
        }
      ],
      "name": "excerciseOptionPartial",
      "outputs": [
        {
          "internalType": "uint256",
          "name": "",
          "type": "uint256"
        }
      ],
      "stateMutability": "nonpayable",
      "type": "function"
    },
    {
      "inputs": [],
      "name": "expired",
      "outputs": [
        {
          "internalType": "bool",
          "name": "",
          "type": "bool"
        }
      ],
      "stateMutability": "nonpayable",
      "type": "function"
    },
    {
      "inputs": [],
      "name": "mintDeadline",
      "outputs": [
        {
          "internalType": "uint256",
          "name": "",
          "type": "uint256"
        }
      ],
      "stateMutability": "view",
      "type": "function"
    },
    {
      "inputs": [],
      "name": "owner",
      "outputs": [
        {
          "internalType": "address",
          "name": "",
          "type": "address"
        }
      ],
      "stateMutability": "view",
      "type": "function"
    },
    {
      "inputs": [],
      "name": "redeemDebt",
      "outputs": [],
      "stateMutability": "nonpayable",
      "type": "function"
    },
    {
      "inputs": [],
      "name": "redeemDebtEarly",
      "outputs": [],
      "stateMutability": "nonpayable",
      "type": "function"
    },
    {
      "inputs": [],
      "name": "renounceOwnership",
      "outputs": [],
      "stateMutability": "nonpayable",
      "type": "function"
    },
    {
      "inputs": [],
      "name": "seller",
      "outputs": [
        {
          "internalType": "address",
          "name": "",
          "type": "address"
        }
      ],
      "stateMutability": "view",
      "type": "function"
    },
    {
      "inputs": [
        {
          "internalType": "address",
          "name": "_buyer",
          "type": "address"
        }
      ],
      "name": "setBuyer",
      "outputs": [],
      "stateMutability": "nonpayable",
      "type": "function"
    },
    {
      "inputs": [
        {
          "internalType": "address",
          "name": "_seller",
          "type": "address"
        }
      ],
      "name": "setSeller",
      "outputs": [],
      "stateMutability": "nonpayable",
      "type": "function"
    },
    {
      "inputs": [],
      "name": "timeToExcercise",
      "outputs": [
        {
          "internalType": "uint256",
          "name": "",
          "type": "uint256"
        }
      ],
      "stateMutability": "view",
      "type": "function"
    },
    {
      "inputs": [
        {
          "internalType": "address",
          "name": "newOwner",
          "type": "address"
        }
      ],
      "name": "transferOwnership",
      "outputs": [],
      "stateMutability": "nonpayable",
      "type": "function"
    },
    {
      "inputs": [],
      "name": "useVault",
      "outputs": [
        {
          "internalType": "bool",
          "name": "",
          "type": "bool"
        }
      ],
      "stateMutability": "view",
      "type": "function"
    },
    {
      "inputs": [],
      "name": "vaultAddress",
      "outputs": [
        {
          "internalType": "address",
          "name": "",
          "type": "address"
        }
      ],
      "stateMutability": "view",
      "type": "function"
    }
  ],
  "bytecode": "60806040523480156200001157600080fd5b50604051620012ed380380620012ed8339810160408190526200003491620001c7565b6001600090815562000045620001c3565b600180546001600160a01b0319166001600160a01b038316908117909155604051919250906000907f8be0079c531659141344cd1fd0a4f28419497f9722a3daafe3b4186f6b6457e0908290a350600780546001600160a01b03808b166001600160a01b031992831617909255600880548a84169083161790556003889055600487905560058590554286016006556001805461ffff60a01b19168155600a8054851515600160a01b90810260ff60a01b19929092169190911791829055600b8054958816959094169490941790925591900460ff1615151415620001b557600754600b5460035460405163095ea7b360e01b81526001600160a01b039384169363095ea7b3936200015d939116916004016200027e565b602060405180830381600087803b1580156200017857600080fd5b505af11580156200018d573d6000803e3d6000fd5b505050506040513d601f19601f82011682018060405250810190620001b3919062000258565b505b5050505050505050620002bf565b3390565b600080600080600080600080610100898b031215620001e4578384fd5b8851620001f18162000297565b60208a0151909850620002048162000297565b8097505060408901519550606089015194506080890151935060a0890151925060c0890151620002348162000297565b60e08a01519092506200024781620002b0565b809150509295985092959890939650565b6000602082840312156200026a578081fd5b81516200027781620002b0565b9392505050565b6001600160a01b03929092168252602082015260400190565b6001600160a01b0381168114620002ad57600080fd5b50565b8015158114620002ad57600080fd5b61101e80620002cf6000396000f3fe608060405234801561001057600080fd5b50600436106101425760003560e01c80639d29fb74116100b8578063cec1c9131161007c578063cec1c9131461020f578063d25183f814610217578063d4e780861461021f578063e99d286614610227578063f2fde38b1461023a578063f8d898981461024d57610142565b80639d29fb74146101dc578063a3f09ad6146101e4578063b2016bd4146101f7578063baef0c08146101ff578063c2f99e751461020757610142565b80636f7581401161010a5780636f758140146101a1578063715018a6146101a95780637150d8ae146101b15780637656b8fa146101b9578063875d94d2146101cc5780638da5cb5b146101d457610142565b806308551a5314610147578063102098871461016557806329dcb0cf1461016f578063430bf08a146101845780634c2067c71461018c575b600080fd5b61014f610255565b60405161015c9190610e74565b60405180910390f35b61016d610264565b005b610177610453565b60405161015c9190610fdf565b61014f610459565b610194610468565b60405161015c9190610ec5565b61016d61048f565b61016d610615565b61014f61069d565b6101776101c7366004610e48565b6106ac565b61017761089a565b61014f6108a0565b6101946108af565b61016d6101f2366004610df5565b6108bf565b61014f610906565b610177610915565b61017761091b565b61016d610921565b61016d6109c0565b610177610a16565b61016d610235366004610df5565b610a1c565b61016d610248366004610df5565b610a63565b61014f610b1a565b600a546001600160a01b031681565b6009546001600160a01b0316331461027b57600080fd5b60018054600160a01b900460ff1615151461029557600080fd5b6002544211156102a457600080fd5b600854600a54600480546040516323b872dd60e01b81526001600160a01b03948516946323b872dd946102de943394929091169201610e88565b602060405180830381600087803b1580156102f857600080fd5b505af115801561030c573d6000803e3d6000fd5b505050506040513d601f19601f820116820180604052508101906103309190610e10565b50600a54600160a01b900460ff161515600114156103b057600b546001600160a01b0316632e1a7d4d610361610b29565b6040518263ffffffff1660e01b815260040161037d9190610fdf565b600060405180830381600087803b15801561039757600080fd5b505af11580156103ab573d6000803e3d6000fd5b505050505b6007546009546003546040516323b872dd60e01b81526001600160a01b03938416936323b872dd936103eb9330939290911691600401610e88565b602060405180830381600087803b15801561040557600080fd5b505af1158015610419573d6000803e3d6000fd5b505050506040513d601f19601f8201168201806040525081019061043d9190610e10565b506001805460ff60a81b1916600160a81b179055565b60025481565b600b546001600160a01b031681565b60018054600091600160a01b90910460ff1615151461048657600080fd5b50600254421190565b600154600160a01b900460ff16156104a657600080fd5b6007546003546040516323b872dd60e01b81526001600160a01b03909216916323b872dd916104db9133913091600401610e88565b602060405180830381600087803b1580156104f557600080fd5b505af1158015610509573d6000803e3d6000fd5b505050506040513d601f19601f8201168201806040525081019061052d9190610e10565b506001805460ff60a01b1916600160a01b1790556105496108a0565b600980546001600160a01b0319166001600160a01b03929092169190911790556105716108a0565b600a80546001600160a01b0319166001600160a01b039290921691909117908190556005544201600255600160a01b900460ff1615156001141561061357600b5460035460405163b6b55f2560e01b81526001600160a01b039092169163b6b55f25916105e091600401610fdf565b600060405180830381600087803b1580156105fa57600080fd5b505af115801561060e573d6000803e3d6000fd5b505050505b565b61061d610bb4565b6001546001600160a01b039081169116146106535760405162461bcd60e51b815260040161064a90610faa565b60405180910390fd5b6001546040516000916001600160a01b0316907f8be0079c531659141344cd1fd0a4f28419497f9722a3daafe3b4186f6b6457e0908390a3600180546001600160a01b0319169055565b6009546001600160a01b031681565b6009546000906001600160a01b031633146106c657600080fd5b6004548311156106d557600080fd5b60018054600160a01b900460ff161515146106ef57600080fd5b6002544211156106fe57600080fd5b60045460009061071a9061071486612710610bb8565b90610bf9565b600854600954600a546040516323b872dd60e01b81529394506001600160a01b03928316936323b872dd936107589381169216908990600401610e88565b602060405180830381600087803b15801561077257600080fd5b505af1158015610786573d6000803e3d6000fd5b505050506040513d601f19601f820116820180604052508101906107aa9190610e10565b5060006107c861271061071484600354610bb890919063ffffffff16565b600a54909150600160a01b900460ff161515600114156107eb576107eb85610c3b565b60075460405163a9059cbb60e01b81526001600160a01b039091169063a9059cbb9061081d9087908590600401610eac565b602060405180830381600087803b15801561083757600080fd5b505af115801561084b573d6000803e3d6000fd5b505050506040513d601f19601f8201168201806040525081019061086f9190610e10565b5060045461087d9086610d39565b60045560035461088d9082610d39565b6003559150505b92915050565b60045481565b6001546001600160a01b031690565b600a54600160a01b900460ff1681565b6108c76108a0565b6001600160a01b0316336001600160a01b0316146108e457600080fd5b600980546001600160a01b0319166001600160a01b0392909216919091179055565b6007546001600160a01b031681565b60055481565b60035481565b600a546001600160a01b0316331461093857600080fd5b6009546001600160a01b0316331461094f57600080fd5b60018054600160a01b900460ff1615151461096957600080fd5b600154600160a81b900460ff161561098057600080fd5b60006004908155600754600a546003546040516323b872dd60e01b81526001600160a01b03938416946323b872dd946103eb943094911692909101610e88565b600a546001600160a01b031633146109d757600080fd5b60018054600160a01b900460ff161515146109f157600080fd5b600154600160a81b900460ff1615610a0857600080fd5b600254421161098057600080fd5b60065481565b610a246108a0565b6001600160a01b0316336001600160a01b031614610a4157600080fd5b600a80546001600160a01b0319166001600160a01b0392909216919091179055565b610a6b610bb4565b6001546001600160a01b03908116911614610a985760405162461bcd60e51b815260040161064a90610faa565b6001600160a01b038116610abe5760405162461bcd60e51b815260040161064a90610f23565b6001546040516001600160a01b038084169216907f8be0079c531659141344cd1fd0a4f28419497f9722a3daafe3b4186f6b6457e090600090a3600180546001600160a01b0319166001600160a01b0392909216919091179055565b6008546001600160a01b031681565b600b546040516370a0823160e01b815260009182916001600160a01b03909116906370a0823190610b5e903090600401610e74565b60206040518083038186803b158015610b7657600080fd5b505afa158015610b8a573d6000803e3d6000fd5b505050506040513d601f19601f82011682018060405250810190610bae9190610e30565b91505090565b3390565b600082610bc757506000610894565b82820282848281610bd457fe5b0414610bf25760405162461bcd60e51b815260040161064a90610f69565b9392505050565b6000610bf283836040518060400160405280601a81526020017f536166654d6174683a206469766973696f6e206279207a65726f000000000000815250610d7b565b6000610cd2600b60009054906101000a90046001600160a01b03166001600160a01b0316633d68175c6040518163ffffffff1660e01b815260040160206040518083038186803b158015610c8e57600080fd5b505afa158015610ca2573d6000803e3d6000fd5b505050506040513d601f19601f82011682018060405250810190610cc69190610e30565b61071484612710610bb8565b600b54604051632e1a7d4d60e01b81529192506001600160a01b031690632e1a7d4d90610d03908490600401610fdf565b600060405180830381600087803b158015610d1d57600080fd5b505af1158015610d31573d6000803e3d6000fd5b505050505050565b6000610bf283836040518060400160405280601e81526020017f536166654d6174683a207375627472616374696f6e206f766572666c6f770000815250610db2565b60008183610d9c5760405162461bcd60e51b815260040161064a9190610ed0565b506000838581610da857fe5b0495945050505050565b60008184841115610dd65760405162461bcd60e51b815260040161064a9190610ed0565b505050900390565b80356001600160a01b038116811461089457600080fd5b600060208284031215610e06578081fd5b610bf28383610dde565b600060208284031215610e21578081fd5b81518015158114610bf2578182fd5b600060208284031215610e41578081fd5b5051919050565b60008060408385031215610e5a578081fd5b82359150610e6b8460208501610dde565b90509250929050565b6001600160a01b0391909116815260200190565b6001600160a01b039384168152919092166020820152604081019190915260600190565b6001600160a01b03929092168252602082015260400190565b901515815260200190565b6000602080835283518082850152825b81811015610efc57858101830151858201604001528201610ee0565b81811115610f0d5783604083870101525b50601f01601f1916929092016040019392505050565b60208082526026908201527f4f776e61626c653a206e6577206f776e657220697320746865207a65726f206160408201526564647265737360d01b606082015260800190565b60208082526021908201527f536166654d6174683a206d756c7469706c69636174696f6e206f766572666c6f6040820152607760f81b606082015260800190565b6020808252818101527f4f776e61626c653a2063616c6c6572206973206e6f7420746865206f776e6572604082015260600190565b9081526020019056fea2646970667358221220b2cc46767ea21b01e5f0beecce9f5cfe1f508dafadca87debba1370c0b10abd364736f6c634300060c0033",
  "bytecodeSha1": "37a19c86651a0a0a048e7e811d3e1415c7ded3ee",
  "compiler": {
    "evm_version": "istanbul",
    "optimizer": {
      "enabled": true,
      "runs": 200
    },
    "version": "0.6.12+commit.27d51765"
  },
  "contractName": "option",
  "language": "Solidity",
  "natspec": {
    "kind": "dev",
    "methods": {
      "owner()": {
        "details": "Returns the address of the current owner."
      },
      "renounceOwnership()": {
        "details": "Leaves the contract without owner. It will not be possible to call `onlyOwner` functions anymore. Can only be called by the current owner. NOTE: Renouncing ownership will leave the contract without an owner, thereby removing any functionality that is only available to the owner."
      },
      "transferOwnership(address)": {
        "details": "Transfers ownership of the contract to a new account (`newOwner`). Can only be called by the current owner."
      }
    },
    "version": 1
  },
  "opcodes": "PUSH1 0x80 PUSH1 0x40 MSTORE CALLVALUE DUP1 ISZERO PUSH2 0x10 JUMPI PUSH1 0x0 DUP1 REVERT JUMPDEST POP PUSH1 0x4 CALLDATASIZE LT PUSH2 0x142 JUMPI PUSH1 0x0 CALLDATALOAD PUSH1 0xE0 SHR DUP1 PUSH4 0x9D29FB74 GT PUSH2 0xB8 JUMPI DUP1 PUSH4 0xCEC1C913 GT PUSH2 0x7C JUMPI DUP1 PUSH4 0xCEC1C913 EQ PUSH2 0x20F JUMPI DUP1 PUSH4 0xD25183F8 EQ PUSH2 0x217 JUMPI DUP1 PUSH4 0xD4E78086 EQ PUSH2 0x21F JUMPI DUP1 PUSH4 0xE99D2866 EQ PUSH2 0x227 JUMPI DUP1 PUSH4 0xF2FDE38B EQ PUSH2 0x23A JUMPI DUP1 PUSH4 0xF8D89898 EQ PUSH2 0x24D JUMPI PUSH2 0x142 JUMP JUMPDEST DUP1 PUSH4 0x9D29FB74 EQ PUSH2 0x1DC JUMPI DUP1 PUSH4 0xA3F09AD6 EQ PUSH2 0x1E4 JUMPI DUP1 PUSH4 0xB2016BD4 EQ PUSH2 0x1F7 JUMPI DUP1 PUSH4 0xBAEF0C08 EQ PUSH2 0x1FF JUMPI DUP1 PUSH4 0xC2F99E75 EQ PUSH2 0x207 JUMPI PUSH2 0x142 JUMP JUMPDEST DUP1 PUSH4 0x6F758140 GT PUSH2 0x10A JUMPI DUP1 PUSH4 0x6F758140 EQ PUSH2 0x1A1 JUMPI DUP1 PUSH4 0x715018A6 EQ PUSH2 0x1A9 JUMPI DUP1 PUSH4 0x7150D8AE EQ PUSH2 0x1B1 JUMPI DUP1 PUSH4 0x7656B8FA EQ PUSH2 0x1B9 JUMPI DUP1 PUSH4 0x875D94D2 EQ PUSH2 0x1CC JUMPI DUP1 PUSH4 0x8DA5CB5B EQ PUSH2 0x1D4 JUMPI PUSH2 0x142 JUMP JUMPDEST DUP1 PUSH4 0x8551A53 EQ PUSH2 0x147 JUMPI DUP1 PUSH4 0x10209887 EQ PUSH2 0x165 JUMPI DUP1 PUSH4 0x29DCB0CF EQ PUSH2 0x16F JUMPI DUP1 PUSH4 0x430BF08A EQ PUSH2 0x184 JUMPI DUP1 PUSH4 0x4C2067C7 EQ PUSH2 0x18C JUMPI JUMPDEST PUSH1 0x0 DUP1 REVERT JUMPDEST PUSH2 0x14F PUSH2 0x255 JUMP JUMPDEST PUSH1 0x40 MLOAD PUSH2 0x15C SWAP2 SWAP1 PUSH2 0xE74 JUMP JUMPDEST PUSH1 0x40 MLOAD DUP1 SWAP2 SUB SWAP1 RETURN JUMPDEST PUSH2 0x16D PUSH2 0x264 JUMP JUMPDEST STOP JUMPDEST PUSH2 0x177 PUSH2 0x453 JUMP JUMPDEST PUSH1 0x40 MLOAD PUSH2 0x15C SWAP2 SWAP1 PUSH2 0xFDF JUMP JUMPDEST PUSH2 0x14F PUSH2 0x459 JUMP JUMPDEST PUSH2 0x194 PUSH2 0x468 JUMP JUMPDEST PUSH1 0x40 MLOAD PUSH2 0x15C SWAP2 SWAP1 PUSH2 0xEC5 JUMP JUMPDEST PUSH2 0x16D PUSH2 0x48F JUMP JUMPDEST PUSH2 0x16D PUSH2 0x615 JUMP JUMPDEST PUSH2 0x14F PUSH2 0x69D JUMP JUMPDEST PUSH2 0x177 PUSH2 0x1C7 CALLDATASIZE PUSH1 0x4 PUSH2 0xE48 JUMP JUMPDEST PUSH2 0x6AC JUMP JUMPDEST PUSH2 0x177 PUSH2 0x89A JUMP JUMPDEST PUSH2 0x14F PUSH2 0x8A0 JUMP JUMPDEST PUSH2 0x194 PUSH2 0x8AF JUMP JUMPDEST PUSH2 0x16D PUSH2 0x1F2 CALLDATASIZE PUSH1 0x4 PUSH2 0xDF5 JUMP JUMPDEST PUSH2 0x8BF JUMP JUMPDEST PUSH2 0x14F PUSH2 0x906 JUMP JUMPDEST PUSH2 0x177 PUSH2 0x915 JUMP JUMPDEST PUSH2 0x177 PUSH2 0x91B JUMP JUMPDEST PUSH2 0x16D PUSH2 0x921 JUMP JUMPDEST PUSH2 0x16D PUSH2 0x9C0 JUMP JUMPDEST PUSH2 0x177 PUSH2 0xA16 JUMP JUMPDEST PUSH2 0x16D PUSH2 0x235 CALLDATASIZE PUSH1 0x4 PUSH2 0xDF5 JUMP JUMPDEST PUSH2 0xA1C JUMP JUMPDEST PUSH2 0x16D PUSH2 0x248 CALLDATASIZE PUSH1 0x4 PUSH2 0xDF5 JUMP JUMPDEST PUSH2 0xA63 JUMP JUMPDEST PUSH2 0x14F PUSH2 0xB1A JUMP JUMPDEST PUSH1 0xA SLOAD PUSH1 0x1 PUSH1 0x1 PUSH1 0xA0 SHL SUB AND DUP2 JUMP JUMPDEST PUSH1 0x9 SLOAD PUSH1 0x1 PUSH1 0x1 PUSH1 0xA0 SHL SUB AND CALLER EQ PUSH2 0x27B JUMPI PUSH1 0x0 DUP1 REVERT JUMPDEST PUSH1 0x1 DUP1 SLOAD PUSH1 0x1 PUSH1 0xA0 SHL SWAP1 DIV PUSH1 0xFF AND ISZERO ISZERO EQ PUSH2 0x295 JUMPI PUSH1 0x0 DUP1 REVERT JUMPDEST PUSH1 0x2 SLOAD TIMESTAMP GT ISZERO PUSH2 0x2A4 JUMPI PUSH1 0x0 DUP1 REVERT JUMPDEST PUSH1 0x8 SLOAD PUSH1 0xA SLOAD PUSH1 0x4 DUP1 SLOAD PUSH1 0x40 MLOAD PUSH4 0x23B872DD PUSH1 0xE0 SHL DUP2 MSTORE PUSH1 0x1 PUSH1 0x1 PUSH1 0xA0 SHL SUB SWAP5 DUP6 AND SWAP5 PUSH4 0x23B872DD SWAP5 PUSH2 0x2DE SWAP5 CALLER SWAP5 SWAP3 SWAP1 SWAP2 AND SWAP3 ADD PUSH2 0xE88 JUMP JUMPDEST PUSH1 0x20 PUSH1 0x40 MLOAD DUP1 DUP4 SUB DUP2 PUSH1 0x0 DUP8 DUP1 EXTCODESIZE ISZERO DUP1 ISZERO PUSH2 0x2F8 JUMPI PUSH1 0x0 DUP1 REVERT JUMPDEST POP GAS CALL ISZERO DUP1 ISZERO PUSH2 0x30C JUMPI RETURNDATASIZE PUSH1 0x0 DUP1 RETURNDATACOPY RETURNDATASIZE PUSH1 0x0 REVERT JUMPDEST POP POP POP POP PUSH1 0x40 MLOAD RETURNDATASIZE PUSH1 0x1F NOT PUSH1 0x1F DUP3 ADD AND DUP3 ADD DUP1 PUSH1 0x40 MSTORE POP DUP2 ADD SWAP1 PUSH2 0x330 SWAP2 SWAP1 PUSH2 0xE10 JUMP JUMPDEST POP PUSH1 0xA SLOAD PUSH1 0x1 PUSH1 0xA0 SHL SWAP1 DIV PUSH1 0xFF AND ISZERO ISZERO PUSH1 0x1 EQ ISZERO PUSH2 0x3B0 JUMPI PUSH1 0xB SLOAD PUSH1 0x1 PUSH1 0x1 PUSH1 0xA0 SHL SUB AND PUSH4 0x2E1A7D4D PUSH2 0x361 PUSH2 0xB29 JUMP JUMPDEST PUSH1 0x40 MLOAD DUP3 PUSH4 0xFFFFFFFF AND PUSH1 0xE0 SHL DUP2 MSTORE PUSH1 0x4 ADD PUSH2 0x37D SWAP2 SWAP1 PUSH2 0xFDF JUMP JUMPDEST PUSH1 0x0 PUSH1 0x40 MLOAD DUP1 DUP4 SUB DUP2 PUSH1 0x0 DUP8 DUP1 EXTCODESIZE ISZERO DUP1 ISZERO PUSH2 0x397 JUMPI PUSH1 0x0 DUP1 REVERT JUMPDEST POP GAS CALL ISZERO DUP1 ISZERO PUSH2 0x3AB JUMPI RETURNDATASIZE PUSH1 0x0 DUP1 RETURNDATACOPY RETURNDATASIZE PUSH1 0x0 REVERT JUMPDEST POP POP POP POP JUMPDEST PUSH1 0x7 SLOAD PUSH1 0x9 SLOAD PUSH1 0x3 SLOAD PUSH1 0x40 MLOAD PUSH4 0x23B872DD PUSH1 0xE0 SHL DUP2 MSTORE PUSH1 0x1 PUSH1 0x1 PUSH1 0xA0 SHL SUB SWAP4 DUP5 AND SWAP4 PUSH4 0x23B872DD SWAP4 PUSH2 0x3EB SWAP4 ADDRESS SWAP4 SWAP3 SWAP1 SWAP2 AND SWAP2 PUSH1 0x4 ADD PUSH2 0xE88 JUMP JUMPDEST PUSH1 0x20 PUSH1 0x40 MLOAD DUP1 DUP4 SUB DUP2 PUSH1 0x0 DUP8 DUP1 EXTCODESIZE ISZERO DUP1 ISZERO PUSH2 0x405 JUMPI PUSH1 0x0 DUP1 REVERT JUMPDEST POP GAS CALL ISZERO DUP1 ISZERO PUSH2 0x419 JUMPI RETURNDATASIZE PUSH1 0x0 DUP1 RETURNDATACOPY RETURNDATASIZE PUSH1 0x0 REVERT JUMPDEST POP POP POP POP PUSH1 0x40 MLOAD RETURNDATASIZE PUSH1 0x1F NOT PUSH1 0x1F DUP3 ADD AND DUP3 ADD DUP1 PUSH1 0x40 MSTORE POP DUP2 ADD SWAP1 PUSH2 0x43D SWAP2 SWAP1 PUSH2 0xE10 JUMP JUMPDEST POP PUSH1 0x1 DUP1 SLOAD PUSH1 0xFF PUSH1 0xA8 SHL NOT AND PUSH1 0x1 PUSH1 0xA8 SHL OR SWAP1 SSTORE JUMP JUMPDEST PUSH1 0x2 SLOAD DUP2 JUMP JUMPDEST PUSH1 0xB SLOAD PUSH1 0x1 PUSH1 0x1 PUSH1 0xA0 SHL SUB AND DUP2 JUMP JUMPDEST PUSH1 0x1 DUP1 SLOAD PUSH1 0x0 SWAP2 PUSH1 0x1 PUSH1 0xA0 SHL SWAP1 SWAP2 DIV PUSH1 0xFF AND ISZERO ISZERO EQ PUSH2 0x486 JUMPI PUSH1 0x0 DUP1 REVERT JUMPDEST POP PUSH1 0x2 SLOAD TIMESTAMP GT SWAP1 JUMP JUMPDEST PUSH1 0x1 SLOAD PUSH1 0x1 PUSH1 0xA0 SHL SWAP1 DIV PUSH1 0xFF AND ISZERO PUSH2 0x4A6 JUMPI PUSH1 0x0 DUP1 REVERT JUMPDEST PUSH1 0x7 SLOAD PUSH1 0x3 SLOAD PUSH1 0x40 MLOAD PUSH4 0x23B872DD PUSH1 0xE0 SHL DUP2 MSTORE PUSH1 0x1 PUSH1 0x1 PUSH1 0xA0 SHL SUB SWAP1 SWAP3 AND SWAP2 PUSH4 0x23B872DD SWAP2 PUSH2 0x4DB SWAP2 CALLER SWAP2 ADDRESS SWAP2 PUSH1 0x4 ADD PUSH2 0xE88 JUMP JUMPDEST PUSH1 0x20 PUSH1 0x40 MLOAD DUP1 DUP4 SUB DUP2 PUSH1 0x0 DUP8 DUP1 EXTCODESIZE ISZERO DUP1 ISZERO PUSH2 0x4F5 JUMPI PUSH1 0x0 DUP1 REVERT JUMPDEST POP GAS CALL ISZERO DUP1 ISZERO PUSH2 0x509 JUMPI RETURNDATASIZE PUSH1 0x0 DUP1 RETURNDATACOPY RETURNDATASIZE PUSH1 0x0 REVERT JUMPDEST POP POP POP POP PUSH1 0x40 MLOAD RETURNDATASIZE PUSH1 0x1F NOT PUSH1 0x1F DUP3 ADD AND DUP3 ADD DUP1 PUSH1 0x40 MSTORE POP DUP2 ADD SWAP1 PUSH2 0x52D SWAP2 SWAP1 PUSH2 0xE10 JUMP JUMPDEST POP PUSH1 0x1 DUP1 SLOAD PUSH1 0xFF PUSH1 0xA0 SHL NOT AND PUSH1 0x1 PUSH1 0xA0 SHL OR SWAP1 SSTORE PUSH2 0x549 PUSH2 0x8A0 JUMP JUMPDEST PUSH1 0x9 DUP1 SLOAD PUSH1 0x1 PUSH1 0x1 PUSH1 0xA0 SHL SUB NOT AND PUSH1 0x1 PUSH1 0x1 PUSH1 0xA0 SHL SUB SWAP3 SWAP1 SWAP3 AND SWAP2 SWAP1 SWAP2 OR SWAP1 SSTORE PUSH2 0x571 PUSH2 0x8A0 JUMP JUMPDEST PUSH1 0xA DUP1 SLOAD PUSH1 0x1 PUSH1 0x1 PUSH1 0xA0 SHL SUB NOT AND PUSH1 0x1 PUSH1 0x1 PUSH1 0xA0 SHL SUB SWAP3 SWAP1 SWAP3 AND SWAP2 SWAP1 SWAP2 OR SWAP1 DUP2 SWAP1 SSTORE PUSH1 0x5 SLOAD TIMESTAMP ADD PUSH1 0x2 SSTORE PUSH1 0x1 PUSH1 0xA0 SHL SWAP1 DIV PUSH1 0xFF AND ISZERO ISZERO PUSH1 0x1 EQ ISZERO PUSH2 0x613 JUMPI PUSH1 0xB SLOAD PUSH1 0x3 SLOAD PUSH1 0x40 MLOAD PUSH4 0xB6B55F25 PUSH1 0xE0 SHL DUP2 MSTORE PUSH1 0x1 PUSH1 0x1 PUSH1 0xA0 SHL SUB SWAP1 SWAP3 AND SWAP2 PUSH4 0xB6B55F25 SWAP2 PUSH2 0x5E0 SWAP2 PUSH1 0x4 ADD PUSH2 0xFDF JUMP JUMPDEST PUSH1 0x0 PUSH1 0x40 MLOAD DUP1 DUP4 SUB DUP2 PUSH1 0x0 DUP8 DUP1 EXTCODESIZE ISZERO DUP1 ISZERO PUSH2 0x5FA JUMPI PUSH1 0x0 DUP1 REVERT JUMPDEST POP GAS CALL ISZERO DUP1 ISZERO PUSH2 0x60E JUMPI RETURNDATASIZE PUSH1 0x0 DUP1 RETURNDATACOPY RETURNDATASIZE PUSH1 0x0 REVERT JUMPDEST POP POP POP POP JUMPDEST JUMP JUMPDEST PUSH2 0x61D PUSH2 0xBB4 JUMP JUMPDEST PUSH1 0x1 SLOAD PUSH1 0x1 PUSH1 0x1 PUSH1 0xA0 SHL SUB SWAP1 DUP2 AND SWAP2 AND EQ PUSH2 0x653 JUMPI PUSH1 0x40 MLOAD PUSH3 0x461BCD PUSH1 0xE5 SHL DUP2 MSTORE PUSH1 0x4 ADD PUSH2 0x64A SWAP1 PUSH2 0xFAA JUMP JUMPDEST PUSH1 0x40 MLOAD DUP1 SWAP2 SUB SWAP1 REVERT JUMPDEST PUSH1 0x1 SLOAD PUSH1 0x40 MLOAD PUSH1 0x0 SWAP2 PUSH1 0x1 PUSH1 0x1 PUSH1 0xA0 SHL SUB AND SWAP1 PUSH32 0x8BE0079C531659141344CD1FD0A4F28419497F9722A3DAAFE3B4186F6B6457E0 SWAP1 DUP4 SWAP1 LOG3 PUSH1 0x1 DUP1 SLOAD PUSH1 0x1 PUSH1 0x1 PUSH1 0xA0 SHL SUB NOT AND SWAP1 SSTORE JUMP JUMPDEST PUSH1 0x9 SLOAD PUSH1 0x1 PUSH1 0x1 PUSH1 0xA0 SHL SUB AND DUP2 JUMP JUMPDEST PUSH1 0x9 SLOAD PUSH1 0x0 SWAP1 PUSH1 0x1 PUSH1 0x1 PUSH1 0xA0 SHL SUB AND CALLER EQ PUSH2 0x6C6 JUMPI PUSH1 0x0 DUP1 REVERT JUMPDEST PUSH1 0x4 SLOAD DUP4 GT ISZERO PUSH2 0x6D5 JUMPI PUSH1 0x0 DUP1 REVERT JUMPDEST PUSH1 0x1 DUP1 SLOAD PUSH1 0x1 PUSH1 0xA0 SHL SWAP1 DIV PUSH1 0xFF AND ISZERO ISZERO EQ PUSH2 0x6EF JUMPI PUSH1 0x0 DUP1 REVERT JUMPDEST PUSH1 0x2 SLOAD TIMESTAMP GT ISZERO PUSH2 0x6FE JUMPI PUSH1 0x0 DUP1 REVERT JUMPDEST PUSH1 0x4 SLOAD PUSH1 0x0 SWAP1 PUSH2 0x71A SWAP1 PUSH2 0x714 DUP7 PUSH2 0x2710 PUSH2 0xBB8 JUMP JUMPDEST SWAP1 PUSH2 0xBF9 JUMP JUMPDEST PUSH1 0x8 SLOAD PUSH1 0x9 SLOAD PUSH1 0xA SLOAD PUSH1 0x40 MLOAD PUSH4 0x23B872DD PUSH1 0xE0 SHL DUP2 MSTORE SWAP4 SWAP5 POP PUSH1 0x1 PUSH1 0x1 PUSH1 0xA0 SHL SUB SWAP3 DUP4 AND SWAP4 PUSH4 0x23B872DD SWAP4 PUSH2 0x758 SWAP4 DUP2 AND SWAP3 AND SWAP1 DUP10 SWAP1 PUSH1 0x4 ADD PUSH2 0xE88 JUMP JUMPDEST PUSH1 0x20 PUSH1 0x40 MLOAD DUP1 DUP4 SUB DUP2 PUSH1 0x0 DUP8 DUP1 EXTCODESIZE ISZERO DUP1 ISZERO PUSH2 0x772 JUMPI PUSH1 0x0 DUP1 REVERT JUMPDEST POP GAS CALL ISZERO DUP1 ISZERO PUSH2 0x786 JUMPI RETURNDATASIZE PUSH1 0x0 DUP1 RETURNDATACOPY RETURNDATASIZE PUSH1 0x0 REVERT JUMPDEST POP POP POP POP PUSH1 0x40 MLOAD RETURNDATASIZE PUSH1 0x1F NOT PUSH1 0x1F DUP3 ADD AND DUP3 ADD DUP1 PUSH1 0x40 MSTORE POP DUP2 ADD SWAP1 PUSH2 0x7AA SWAP2 SWAP1 PUSH2 0xE10 JUMP JUMPDEST POP PUSH1 0x0 PUSH2 0x7C8 PUSH2 0x2710 PUSH2 0x714 DUP5 PUSH1 0x3 SLOAD PUSH2 0xBB8 SWAP1 SWAP2 SWAP1 PUSH4 0xFFFFFFFF AND JUMP JUMPDEST PUSH1 0xA SLOAD SWAP1 SWAP2 POP PUSH1 0x1 PUSH1 0xA0 SHL SWAP1 DIV PUSH1 0xFF AND ISZERO ISZERO PUSH1 0x1 EQ ISZERO PUSH2 0x7EB JUMPI PUSH2 0x7EB DUP6 PUSH2 0xC3B JUMP JUMPDEST PUSH1 0x7 SLOAD PUSH1 0x40 MLOAD PUSH4 0xA9059CBB PUSH1 0xE0 SHL DUP2 MSTORE PUSH1 0x1 PUSH1 0x1 PUSH1 0xA0 SHL SUB SWAP1 SWAP2 AND SWAP1 PUSH4 0xA9059CBB SWAP1 PUSH2 0x81D SWAP1 DUP8 SWAP1 DUP6 SWAP1 PUSH1 0x4 ADD PUSH2 0xEAC JUMP JUMPDEST PUSH1 0x20 PUSH1 0x40 MLOAD DUP1 DUP4 SUB DUP2 PUSH1 0x0 DUP8 DUP1 EXTCODESIZE ISZERO DUP1 ISZERO PUSH2 0x837 JUMPI PUSH1 0x0 DUP1 REVERT JUMPDEST POP GAS CALL ISZERO DUP1 ISZERO PUSH2 0x84B JUMPI RETURNDATASIZE PUSH1 0x0 DUP1 RETURNDATACOPY RETURNDATASIZE PUSH1 0x0 REVERT JUMPDEST POP POP POP POP PUSH1 0x40 MLOAD RETURNDATASIZE PUSH1 0x1F NOT PUSH1 0x1F DUP3 ADD AND DUP3 ADD DUP1 PUSH1 0x40 MSTORE POP DUP2 ADD SWAP1 PUSH2 0x86F SWAP2 SWAP1 PUSH2 0xE10 JUMP JUMPDEST POP PUSH1 0x4 SLOAD PUSH2 0x87D SWAP1 DUP7 PUSH2 0xD39 JUMP JUMPDEST PUSH1 0x4 SSTORE PUSH1 0x3 SLOAD PUSH2 0x88D SWAP1 DUP3 PUSH2 0xD39 JUMP JUMPDEST PUSH1 0x3 SSTORE SWAP2 POP POP JUMPDEST SWAP3 SWAP2 POP POP JUMP JUMPDEST PUSH1 0x4 SLOAD DUP2 JUMP JUMPDEST PUSH1 0x1 SLOAD PUSH1 0x1 PUSH1 0x1 PUSH1 0xA0 SHL SUB AND SWAP1 JUMP JUMPDEST PUSH1 0xA SLOAD PUSH1 0x1 PUSH1 0xA0 SHL SWAP1 DIV PUSH1 0xFF AND DUP2 JUMP JUMPDEST PUSH2 0x8C7 PUSH2 0x8A0 JUMP JUMPDEST PUSH1 0x1 PUSH1 0x1 PUSH1 0xA0 SHL SUB AND CALLER PUSH1 0x1 PUSH1 0x1 PUSH1 0xA0 SHL SUB AND EQ PUSH2 0x8E4 JUMPI PUSH1 0x0 DUP1 REVERT JUMPDEST PUSH1 0x9 DUP1 SLOAD PUSH1 0x1 PUSH1 0x1 PUSH1 0xA0 SHL SUB NOT AND PUSH1 0x1 PUSH1 0x1 PUSH1 0xA0 SHL SUB SWAP3 SWAP1 SWAP3 AND SWAP2 SWAP1 SWAP2 OR SWAP1 SSTORE JUMP JUMPDEST PUSH1 0x7 SLOAD PUSH1 0x1 PUSH1 0x1 PUSH1 0xA0 SHL SUB AND DUP2 JUMP JUMPDEST PUSH1 0x5 SLOAD DUP2 JUMP JUMPDEST PUSH1 0x3 SLOAD DUP2 JUMP JUMPDEST PUSH1 0xA SLOAD PUSH1 0x1 PUSH1 0x1 PUSH1 0xA0 SHL SUB AND CALLER EQ PUSH2 0x938 JUMPI PUSH1 0x0 DUP1 REVERT JUMPDEST PUSH1 0x9 SLOAD PUSH1 0x1 PUSH1 0x1 PUSH1 0xA0 SHL SUB AND CALLER EQ PUSH2 0x94F JUMPI PUSH1 0x0 DUP1 REVERT JUMPDEST PUSH1 0x1 DUP1 SLOAD PUSH1 0x1 PUSH1 0xA0 SHL SWAP1 DIV PUSH1 0xFF AND ISZERO ISZERO EQ PUSH2 0x969 JUMPI PUSH1 0x0 DUP1 REVERT JUMPDEST PUSH1 0x1 SLOAD PUSH1 0x1 PUSH1 0xA8 SHL SWAP1 DIV PUSH1 0xFF AND ISZERO PUSH2 0x980 JUMPI PUSH1 0x0 DUP1 REVERT JUMPDEST PUSH1 0x0 PUSH1 0x4 SWAP1 DUP2 SSTORE PUSH1 0x7 SLOAD PUSH1 0xA SLOAD PUSH1 0x3 SLOAD PUSH1 0x40 MLOAD PUSH4 0x23B872DD PUSH1 0xE0 SHL DUP2 MSTORE PUSH1 0x1 PUSH1 0x1 PUSH1 0xA0 SHL SUB SWAP4 DUP5 AND SWAP5 PUSH4 0x23B872DD SWAP5 PUSH2 0x3EB SWAP5 ADDRESS SWAP5 SWAP2 AND SWAP3 SWAP1 SWAP2 ADD PUSH2 0xE88 JUMP JUMPDEST PUSH1 0xA SLOAD PUSH1 0x1 PUSH1 0x1 PUSH1 0xA0 SHL SUB AND CALLER EQ PUSH2 0x9D7 JUMPI PUSH1 0x0 DUP1 REVERT JUMPDEST PUSH1 0x1 DUP1 SLOAD PUSH1 0x1 PUSH1 0xA0 SHL SWAP1 DIV PUSH1 0xFF AND ISZERO ISZERO EQ PUSH2 0x9F1 JUMPI PUSH1 0x0 DUP1 REVERT JUMPDEST PUSH1 0x1 SLOAD PUSH1 0x1 PUSH1 0xA8 SHL SWAP1 DIV PUSH1 0xFF AND ISZERO PUSH2 0xA08 JUMPI PUSH1 0x0 DUP1 REVERT JUMPDEST PUSH1 0x2 SLOAD TIMESTAMP GT PUSH2 0x980 JUMPI PUSH1 0x0 DUP1 REVERT JUMPDEST PUSH1 0x6 SLOAD DUP2 JUMP JUMPDEST PUSH2 0xA24 PUSH2 0x8A0 JUMP JUMPDEST PUSH1 0x1 PUSH1 0x1 PUSH1 0xA0 SHL SUB AND CALLER PUSH1 0x1 PUSH1 0x1 PUSH1 0xA0 SHL SUB AND EQ PUSH2 0xA41 JUMPI PUSH1 0x0 DUP1 REVERT JUMPDEST PUSH1 0xA DUP1 SLOAD PUSH1 0x1 PUSH1 0x1 PUSH1 0xA0 SHL SUB NOT AND PUSH1 0x1 PUSH1 0x1 PUSH1 0xA0 SHL SUB SWAP3 SWAP1 SWAP3 AND SWAP2 SWAP1 SWAP2 OR SWAP1 SSTORE JUMP JUMPDEST PUSH2 0xA6B PUSH2 0xBB4 JUMP JUMPDEST PUSH1 0x1 SLOAD PUSH1 0x1 PUSH1 0x1 PUSH1 0xA0 SHL SUB SWAP1 DUP2 AND SWAP2 AND EQ PUSH2 0xA98 JUMPI PUSH1 0x40 MLOAD PUSH3 0x461BCD PUSH1 0xE5 SHL DUP2 MSTORE PUSH1 0x4 ADD PUSH2 0x64A SWAP1 PUSH2 0xFAA JUMP JUMPDEST PUSH1 0x1 PUSH1 0x1 PUSH1 0xA0 SHL SUB DUP2 AND PUSH2 0xABE JUMPI PUSH1 0x40 MLOAD PUSH3 0x461BCD PUSH1 0xE5 SHL DUP2 MSTORE PUSH1 0x4 ADD PUSH2 0x64A SWAP1 PUSH2 0xF23 JUMP JUMPDEST PUSH1 0x1 SLOAD PUSH1 0x40 MLOAD PUSH1 0x1 PUSH1 0x1 PUSH1 0xA0 SHL SUB DUP1 DUP5 AND SWAP3 AND SWAP1 PUSH32 0x8BE0079C531659141344CD1FD0A4F28419497F9722A3DAAFE3B4186F6B6457E0 SWAP1 PUSH1 0x0 SWAP1 LOG3 PUSH1 0x1 DUP1 SLOAD PUSH1 0x1 PUSH1 0x1 PUSH1 0xA0 SHL SUB NOT AND PUSH1 0x1 PUSH1 0x1 PUSH1 0xA0 SHL SUB SWAP3 SWAP1 SWAP3 AND SWAP2 SWAP1 SWAP2 OR SWAP1 SSTORE JUMP JUMPDEST PUSH1 0x8 SLOAD PUSH1 0x1 PUSH1 0x1 PUSH1 0xA0 SHL SUB AND DUP2 JUMP JUMPDEST PUSH1 0xB SLOAD PUSH1 0x40 MLOAD PUSH4 0x70A08231 PUSH1 0xE0 SHL DUP2 MSTORE PUSH1 0x0 SWAP2 DUP3 SWAP2 PUSH1 0x1 PUSH1 0x1 PUSH1 0xA0 SHL SUB SWAP1 SWAP2 AND SWAP1 PUSH4 0x70A08231 SWAP1 PUSH2 0xB5E SWAP1 ADDRESS SWAP1 PUSH1 0x4 ADD PUSH2 0xE74 JUMP JUMPDEST PUSH1 0x20 PUSH1 0x40 MLOAD DUP1 DUP4 SUB DUP2 DUP7 DUP1 EXTCODESIZE ISZERO DUP1 ISZERO PUSH2 0xB76 JUMPI PUSH1 0x0 DUP1 REVERT JUMPDEST POP GAS STATICCALL ISZERO DUP1 ISZERO PUSH2 0xB8A JUMPI RETURNDATASIZE PUSH1 0x0 DUP1 RETURNDATACOPY RETURNDATASIZE PUSH1 0x0 REVERT JUMPDEST POP POP POP POP PUSH1 0x40 MLOAD RETURNDATASIZE PUSH1 0x1F NOT PUSH1 0x1F DUP3 ADD AND DUP3 ADD DUP1 PUSH1 0x40 MSTORE POP DUP2 ADD SWAP1 PUSH2 0xBAE SWAP2 SWAP1 PUSH2 0xE30 JUMP JUMPDEST SWAP2 POP POP SWAP1 JUMP JUMPDEST CALLER SWAP1 JUMP JUMPDEST PUSH1 0x0 DUP3 PUSH2 0xBC7 JUMPI POP PUSH1 0x0 PUSH2 0x894 JUMP JUMPDEST DUP3 DUP3 MUL DUP3 DUP5 DUP3 DUP2 PUSH2 0xBD4 JUMPI INVALID JUMPDEST DIV EQ PUSH2 0xBF2 JUMPI PUSH1 0x40 MLOAD PUSH3 0x461BCD PUSH1 0xE5 SHL DUP2 MSTORE PUSH1 0x4 ADD PUSH2 0x64A SWAP1 PUSH2 0xF69 JUMP JUMPDEST SWAP4 SWAP3 POP POP POP JUMP JUMPDEST PUSH1 0x0 PUSH2 0xBF2 DUP4 DUP4 PUSH1 0x40 MLOAD DUP1 PUSH1 0x40 ADD PUSH1 0x40 MSTORE DUP1 PUSH1 0x1A DUP2 MSTORE PUSH1 0x20 ADD PUSH32 0x536166654D6174683A206469766973696F6E206279207A65726F000000000000 DUP2 MSTORE POP PUSH2 0xD7B JUMP JUMPDEST PUSH1 0x0 PUSH2 0xCD2 PUSH1 0xB PUSH1 0x0 SWAP1 SLOAD SWAP1 PUSH2 0x100 EXP SWAP1 DIV PUSH1 0x1 PUSH1 0x1 PUSH1 0xA0 SHL SUB AND PUSH1 0x1 PUSH1 0x1 PUSH1 0xA0 SHL SUB AND PUSH4 0x3D68175C PUSH1 0x40 MLOAD DUP2 PUSH4 0xFFFFFFFF AND PUSH1 0xE0 SHL DUP2 MSTORE PUSH1 0x4 ADD PUSH1 0x20 PUSH1 0x40 MLOAD DUP1 DUP4 SUB DUP2 DUP7 DUP1 EXTCODESIZE ISZERO DUP1 ISZERO PUSH2 0xC8E JUMPI PUSH1 0x0 DUP1 REVERT JUMPDEST POP GAS STATICCALL ISZERO DUP1 ISZERO PUSH2 0xCA2 JUMPI RETURNDATASIZE PUSH1 0x0 DUP1 RETURNDATACOPY RETURNDATASIZE PUSH1 0x0 REVERT JUMPDEST POP POP POP POP PUSH1 0x40 MLOAD RETURNDATASIZE PUSH1 0x1F NOT PUSH1 0x1F DUP3 ADD AND DUP3 ADD DUP1 PUSH1 0x40 MSTORE POP DUP2 ADD SWAP1 PUSH2 0xCC6 SWAP2 SWAP1 PUSH2 0xE30 JUMP JUMPDEST PUSH2 0x714 DUP5 PUSH2 0x2710 PUSH2 0xBB8 JUMP JUMPDEST PUSH1 0xB SLOAD PUSH1 0x40 MLOAD PUSH4 0x2E1A7D4D PUSH1 0xE0 SHL DUP2 MSTORE SWAP2 SWAP3 POP PUSH1 0x1 PUSH1 0x1 PUSH1 0xA0 SHL SUB AND SWAP1 PUSH4 0x2E1A7D4D SWAP1 PUSH2 0xD03 SWAP1 DUP5 SWAP1 PUSH1 0x4 ADD PUSH2 0xFDF JUMP JUMPDEST PUSH1 0x0 PUSH1 0x40 MLOAD DUP1 DUP4 SUB DUP2 PUSH1 0x0 DUP8 DUP1 EXTCODESIZE ISZERO DUP1 ISZERO PUSH2 0xD1D JUMPI PUSH1 0x0 DUP1 REVERT JUMPDEST POP GAS CALL ISZERO DUP1 ISZERO PUSH2 0xD31 JUMPI RETURNDATASIZE PUSH1 0x0 DUP1 RETURNDATACOPY RETURNDATASIZE PUSH1 0x0 REVERT JUMPDEST POP POP POP POP POP POP JUMP JUMPDEST PUSH1 0x0 PUSH2 0xBF2 DUP4 DUP4 PUSH1 0x40 MLOAD DUP1 PUSH1 0x40 ADD PUSH1 0x40 MSTORE DUP1 PUSH1 0x1E DUP2 MSTORE PUSH1 0x20 ADD PUSH32 0x536166654D6174683A207375627472616374696F6E206F766572666C6F770000 DUP2 MSTORE POP PUSH2 0xDB2 JUMP JUMPDEST PUSH1 0x0 DUP2 DUP4 PUSH2 0xD9C JUMPI PUSH1 0x40 MLOAD PUSH3 0x461BCD PUSH1 0xE5 SHL DUP2 MSTORE PUSH1 0x4 ADD PUSH2 0x64A SWAP2 SWAP1 PUSH2 0xED0 JUMP JUMPDEST POP PUSH1 0x0 DUP4 DUP6 DUP2 PUSH2 0xDA8 JUMPI INVALID JUMPDEST DIV SWAP6 SWAP5 POP POP POP POP POP JUMP JUMPDEST PUSH1 0x0 DUP2 DUP5 DUP5 GT ISZERO PUSH2 0xDD6 JUMPI PUSH1 0x40 MLOAD PUSH3 0x461BCD PUSH1 0xE5 SHL DUP2 MSTORE PUSH1 0x4 ADD PUSH2 0x64A SWAP2 SWAP1 PUSH2 0xED0 JUMP JUMPDEST POP POP POP SWAP1 SUB SWAP1 JUMP JUMPDEST DUP1 CALLDATALOAD PUSH1 0x1 PUSH1 0x1 PUSH1 0xA0 SHL SUB DUP2 AND DUP2 EQ PUSH2 0x894 JUMPI PUSH1 0x0 DUP1 REVERT JUMPDEST PUSH1 0x0 PUSH1 0x20 DUP3 DUP5 SUB SLT ISZERO PUSH2 0xE06 JUMPI DUP1 DUP2 REVERT JUMPDEST PUSH2 0xBF2 DUP4 DUP4 PUSH2 0xDDE JUMP JUMPDEST PUSH1 0x0 PUSH1 0x20 DUP3 DUP5 SUB SLT ISZERO PUSH2 0xE21 JUMPI DUP1 DUP2 REVERT JUMPDEST DUP2 MLOAD DUP1 ISZERO ISZERO DUP2 EQ PUSH2 0xBF2 JUMPI DUP2 DUP3 REVERT JUMPDEST PUSH1 0x0 PUSH1 0x20 DUP3 DUP5 SUB SLT ISZERO PUSH2 0xE41 JUMPI DUP1 DUP2 REVERT JUMPDEST POP MLOAD SWAP2 SWAP1 POP JUMP JUMPDEST PUSH1 0x0 DUP1 PUSH1 0x40 DUP4 DUP6 SUB SLT ISZERO PUSH2 0xE5A JUMPI DUP1 DUP2 REVERT JUMPDEST DUP3 CALLDATALOAD SWAP2 POP PUSH2 0xE6B DUP5 PUSH1 0x20 DUP6 ADD PUSH2 0xDDE JUMP JUMPDEST SWAP1 POP SWAP3 POP SWAP3 SWAP1 POP JUMP JUMPDEST PUSH1 0x1 PUSH1 0x1 PUSH1 0xA0 SHL SUB SWAP2 SWAP1 SWAP2 AND DUP2 MSTORE PUSH1 0x20 ADD SWAP1 JUMP JUMPDEST PUSH1 0x1 PUSH1 0x1 PUSH1 0xA0 SHL SUB SWAP4 DUP5 AND DUP2 MSTORE SWAP2 SWAP1 SWAP3 AND PUSH1 0x20 DUP3 ADD MSTORE PUSH1 0x40 DUP2 ADD SWAP2 SWAP1 SWAP2 MSTORE PUSH1 0x60 ADD SWAP1 JUMP JUMPDEST PUSH1 0x1 PUSH1 0x1 PUSH1 0xA0 SHL SUB SWAP3 SWAP1 SWAP3 AND DUP3 MSTORE PUSH1 0x20 DUP3 ADD MSTORE PUSH1 0x40 ADD SWAP1 JUMP JUMPDEST SWAP1 ISZERO ISZERO DUP2 MSTORE PUSH1 0x20 ADD SWAP1 JUMP JUMPDEST PUSH1 0x0 PUSH1 0x20 DUP1 DUP4 MSTORE DUP4 MLOAD DUP1 DUP3 DUP6 ADD MSTORE DUP3 JUMPDEST DUP2 DUP2 LT ISZERO PUSH2 0xEFC JUMPI DUP6 DUP2 ADD DUP4 ADD MLOAD DUP6 DUP3 ADD PUSH1 0x40 ADD MSTORE DUP3 ADD PUSH2 0xEE0 JUMP JUMPDEST DUP2 DUP2 GT ISZERO PUSH2 0xF0D JUMPI DUP4 PUSH1 0x40 DUP4 DUP8 ADD ADD MSTORE JUMPDEST POP PUSH1 0x1F ADD PUSH1 0x1F NOT AND SWAP3 SWAP1 SWAP3 ADD PUSH1 0x40 ADD SWAP4 SWAP3 POP POP POP JUMP JUMPDEST PUSH1 0x20 DUP1 DUP3 MSTORE PUSH1 0x26 SWAP1 DUP3 ADD MSTORE PUSH32 0x4F776E61626C653A206E6577206F776E657220697320746865207A65726F2061 PUSH1 0x40 DUP3 ADD MSTORE PUSH6 0x646472657373 PUSH1 0xD0 SHL PUSH1 0x60 DUP3 ADD MSTORE PUSH1 0x80 ADD SWAP1 JUMP JUMPDEST PUSH1 0x20 DUP1 DUP3 MSTORE PUSH1 0x21 SWAP1 DUP3 ADD MSTORE PUSH32 0x536166654D6174683A206D756C7469706C69636174696F6E206F766572666C6F PUSH1 0x40 DUP3 ADD MSTORE PUSH1 0x77 PUSH1 0xF8 SHL PUSH1 0x60 DUP3 ADD MSTORE PUSH1 0x80 ADD SWAP1 JUMP JUMPDEST PUSH1 0x20 DUP1 DUP3 MSTORE DUP2 DUP2 ADD MSTORE PUSH32 0x4F776E61626C653A2063616C6C6572206973206E6F7420746865206F776E6572 PUSH1 0x40 DUP3 ADD MSTORE PUSH1 0x60 ADD SWAP1 JUMP JUMPDEST SWAP1 DUP2 MSTORE PUSH1 0x20 ADD SWAP1 JUMP INVALID LOG2 PUSH5 0x6970667358 0x22 SLT KECCAK256 0xB2 0xCC CHAINID PUSH23 0x7EA21B01E5F0BEECCE9F5CFE1F508DAFADCA87DEBBA137 0xC SIGNEXTEND LT 0xAB 0xD3 PUSH5 0x736F6C6343 STOP MOD 0xC STOP CALLER ",
  "sha1": "b19edcc7aef7509c38418c9385067efc422d9177",
  "source": "// SPDX-License-Identifier: AGPL-3.0\npragma solidity 0.6.12;\npragma experimental ABIEncoderV2;\n\nimport {\n    SafeERC20,\n    SafeMath,\n    IERC20,\n    Address\n} from \"@openzeppelin/contracts/token/ERC20/SafeERC20.sol\";\nimport {ERC20} from \"@openzeppelin/contracts/token/ERC20/ERC20.sol\";\nimport {Math} from \"@openzeppelin/contracts/math/Math.sol\";\nimport {Ownable} from \"@openzeppelin/contracts/access/Ownable.sol\";\nimport \"@openzeppelin/contracts/utils/ReentrancyGuard.sol\";\nimport \"../interfaces/uniswap.sol\";\nimport \"../interfaces/vaults.sol\";\nimport \"./base.sol\";\n\n\ncontract option is ReentrancyGuard, Ownable {\n    using SafeERC20 for IERC20;\n    using Address for address;\n    using SafeMath for uint256;\n    uint256 constant decimalAdj = 10000;\n    uint256 constant vaultDecimalAdj = 10000;\n\n    bool collateralProvided;\n    bool isRepaid;\n    bool buyerRightsOnSale;\n    bool sellerRightsOnSale;\n    uint256 public deadline; \n    uint256 public collatAmt;\n    uint256 public amtOwed; \n    uint256 public timeToExcercise; \n    uint256 public mintDeadline; \n\n    IERC20 public collateralToken;\n    IERC20 public debtToken; \n    address public buyer;\n    address public seller; \n    //address public owner;\n    bool public useVault;\n    address public vaultAddress;\n\n    /*\n    Simple option contract that can act as call / put option \n    owner creates contract by depositing collateral \n    owner can then sell rights to buyer who can swap debt token for collateral at some pre set value\n    owner can sell rights to seller who either receives debt token when option excercised or can \n\n    buyer = right to excercise option\n    seller = can redeem at expiry or receives debt tokens if lender excercises option\n    */\n\n    constructor(\n        address _collateral, \n        address _debt, \n        uint256 _collatAmt, \n        uint256 _amtOwed, \n        uint256 _timeToMint,\n        uint256 _timeToRepay, \n        address _vault, \n        bool _useVault ) public {\n        //owner = _owner;\n        collateralToken = IERC20(_collateral);\n        debtToken = IERC20(_debt); \n        collatAmt = _collatAmt; \n        amtOwed = _amtOwed; \n        timeToExcercise = _timeToRepay;\n        mintDeadline = block.timestamp + _timeToMint;\n        collateralProvided = false;\n        isRepaid = false; \n        useVault = _useVault;\n        vaultAddress = _vault;\n        if (useVault == true){\n            collateralToken.approve(vaultAddress,collatAmt);\n        }\n    }\n\n    function setBuyer(address _buyer) external {\n        require(msg.sender == owner());\n        buyer = _buyer;\n    }\n\n    function setSeller(address _seller) external {\n        require(msg.sender == owner());\n        seller = _seller;\n    }\n\n\n    function expired() public returns(bool){\n        require(collateralProvided == true); \n        return(block.timestamp > deadline);\n    }\n\n    function depositCollateral() external {\n        require(collateralProvided == false); \n        //require(msg.sender == owner()); \n        collateralToken.transferFrom(msg.sender, address(this), collatAmt);\n        collateralProvided = true; \n        buyer = owner(); \n        seller = owner(); \n        deadline = block.timestamp + timeToExcercise; \n        if (useVault == true){\n            vault(vaultAddress).deposit(collatAmt);\n        }\n    }\n\n    function withdrawAmount(uint256 _amount) internal {\n        uint256 withdrawAmt = _amount.mul(vaultDecimalAdj).div(vault(vaultAddress).getPricePerShare());\n        vault(vaultAddress).withdraw(withdrawAmt);\n    }\n\n    function vaultBalance() internal view returns(uint256) {\n        uint256 bal = vault(vaultAddress).balanceOf(address(this));\n        return(bal);\n        \n    }\n    \n    function excerciseOption() external {\n        require(msg.sender == buyer); \n        require(collateralProvided == true);\n        require(block.timestamp <= deadline);\n        debtToken.transferFrom(msg.sender, address(seller), amtOwed);\n        if (useVault == true){\n            vault(vaultAddress).withdraw(vaultBalance());\n        }\n        collateralToken.transferFrom(address(this), address(buyer), collatAmt);\n        isRepaid = true;\n    }\n\n    function excerciseOptionPartial(uint256 _amt, address _recipient) external returns(uint256) {\n        require(msg.sender == buyer); \n        require(_amt <= amtOwed);\n        require(collateralProvided == true);\n        require(block.timestamp <= deadline);\n        uint256 percentRepaid = _amt.mul(decimalAdj).div(amtOwed);\n        debtToken.transferFrom(buyer, address(seller), _amt);\n        uint256 redeemAmt = collatAmt.mul(percentRepaid).div(decimalAdj);\n        if (useVault == true){\n            withdrawAmount(_amt);\n        }\n        collateralToken.transfer(_recipient, redeemAmt);\n\n        amtOwed = amtOwed.sub(_amt);\n        collatAmt = collatAmt.sub(redeemAmt);\n        return(redeemAmt);\n    }\n\n    function redeemDebt() external {\n        require(msg.sender == seller); \n        require(collateralProvided == true);\n        require(isRepaid == false); \n        require(block.timestamp > deadline);\n        amtOwed = 0; \n        collateralToken.transferFrom(address(this), address(seller), collatAmt);\n        isRepaid = true;\n    }\n\n    function redeemDebtEarly() external {\n        require(msg.sender == seller); \n        require(msg.sender == buyer); \n\n        require(collateralProvided == true);\n        require(isRepaid == false); \n        amtOwed = 0; \n        collateralToken.transferFrom(address(this), address(seller), collatAmt);\n        isRepaid = true;\n    }\n\n}\n",
  "sourcePath": "contracts/derivatives.sol",
  "type": "contract"
}