{
  "abi": [
    {
      "inputs": [
        {
          "internalType": "address",
          "name": "_base",
          "type": "address"
        },
        {
          "internalType": "address",
          "name": "_short",
          "type": "address"
        },
        {
          "internalType": "uint256",
          "name": "_minExcercise",
          "type": "uint256"
        },
        {
          "internalType": "address",
          "name": "_salesContract",
          "type": "address"
        },
        {
          "internalType": "uint256",
          "name": "_expiryTime",
          "type": "uint256"
        },
        {
          "internalType": "uint256",
          "name": "_timeBeforeDeadline",
          "type": "uint256"
        }
      ],
      "stateMutability": "nonpayable",
      "type": "constructor"
    },
    {
      "anonymous": false,
      "inputs": [
        {
          "indexed": true,
          "internalType": "address",
          "name": "previousOwner",
          "type": "address"
        },
        {
          "indexed": true,
          "internalType": "address",
          "name": "newOwner",
          "type": "address"
        }
      ],
      "name": "OwnershipTransferred",
      "type": "event"
    },
    {
      "inputs": [],
      "name": "amtOwed",
      "outputs": [
        {
          "internalType": "uint256",
          "name": "",
          "type": "uint256"
        }
      ],
      "stateMutability": "view",
      "type": "function"
    },
    {
      "inputs": [],
      "name": "auctionTime",
      "outputs": [
        {
          "internalType": "uint256",
          "name": "",
          "type": "uint256"
        }
      ],
      "stateMutability": "view",
      "type": "function"
    },
    {
      "inputs": [],
      "name": "balanceBase",
      "outputs": [
        {
          "internalType": "uint256",
          "name": "",
          "type": "uint256"
        }
      ],
      "stateMutability": "view",
      "type": "function"
    },
    {
      "inputs": [],
      "name": "balanceDebt",
      "outputs": [
        {
          "internalType": "uint256",
          "name": "",
          "type": "uint256"
        }
      ],
      "stateMutability": "view",
      "type": "function"
    },
    {
      "inputs": [],
      "name": "base",
      "outputs": [
        {
          "internalType": "contract IERC20",
          "name": "",
          "type": "address"
        }
      ],
      "stateMutability": "view",
      "type": "function"
    },
    {
      "inputs": [],
      "name": "buyer",
      "outputs": [
        {
          "internalType": "contract optionLong",
          "name": "",
          "type": "address"
        }
      ],
      "stateMutability": "view",
      "type": "function"
    },
    {
      "inputs": [],
      "name": "buyerAddress",
      "outputs": [
        {
          "internalType": "address",
          "name": "",
          "type": "address"
        }
      ],
      "stateMutability": "view",
      "type": "function"
    },
    {
      "inputs": [],
      "name": "collatAmt",
      "outputs": [
        {
          "internalType": "uint256",
          "name": "",
          "type": "uint256"
        }
      ],
      "stateMutability": "view",
      "type": "function"
    },
    {
      "inputs": [],
      "name": "collateralProvided",
      "outputs": [
        {
          "internalType": "bool",
          "name": "",
          "type": "bool"
        }
      ],
      "stateMutability": "view",
      "type": "function"
    },
    {
      "inputs": [],
      "name": "deadline",
      "outputs": [
        {
          "internalType": "uint256",
          "name": "",
          "type": "uint256"
        }
      ],
      "stateMutability": "view",
      "type": "function"
    },
    {
      "inputs": [],
      "name": "depositToVault",
      "outputs": [],
      "stateMutability": "nonpayable",
      "type": "function"
    },
    {
      "inputs": [],
      "name": "earlyExecute",
      "outputs": [
        {
          "internalType": "uint256",
          "name": "",
          "type": "uint256"
        }
      ],
      "stateMutability": "view",
      "type": "function"
    },
    {
      "inputs": [],
      "name": "excerciseOption",
      "outputs": [],
      "stateMutability": "nonpayable",
      "type": "function"
    },
    {
      "inputs": [
        {
          "internalType": "uint256",
          "name": "_amt",
          "type": "uint256"
        },
        {
          "internalType": "address",
          "name": "_recipient",
          "type": "address"
        }
      ],
      "name": "excerciseOptionPartial",
      "outputs": [
        {
          "internalType": "uint256",
          "name": "",
          "type": "uint256"
        }
      ],
      "stateMutability": "nonpayable",
      "type": "function"
    },
    {
      "inputs": [],
      "name": "expired",
      "outputs": [
        {
          "internalType": "bool",
          "name": "",
          "type": "bool"
        }
      ],
      "stateMutability": "nonpayable",
      "type": "function"
    },
    {
      "inputs": [],
      "name": "expiryTime",
      "outputs": [
        {
          "internalType": "uint256",
          "name": "",
          "type": "uint256"
        }
      ],
      "stateMutability": "view",
      "type": "function"
    },
    {
      "inputs": [
        {
          "internalType": "uint256",
          "name": "_amtOwed",
          "type": "uint256"
        },
        {
          "internalType": "uint256",
          "name": "_collatAmt",
          "type": "uint256"
        },
        {
          "internalType": "uint256",
          "name": "_amtRaised",
          "type": "uint256"
        },
        {
          "internalType": "uint256",
          "name": "_saleTime",
          "type": "uint256"
        }
      ],
      "name": "issueOptionsNew",
      "outputs": [],
      "stateMutability": "nonpayable",
      "type": "function"
    },
    {
      "inputs": [],
      "name": "minExcercise",
      "outputs": [
        {
          "internalType": "uint256",
          "name": "",
          "type": "uint256"
        }
      ],
      "stateMutability": "view",
      "type": "function"
    },
    {
      "inputs": [],
      "name": "minSale",
      "outputs": [
        {
          "internalType": "uint256",
          "name": "",
          "type": "uint256"
        }
      ],
      "stateMutability": "view",
      "type": "function"
    },
    {
      "inputs": [],
      "name": "mintTime",
      "outputs": [
        {
          "internalType": "uint256",
          "name": "",
          "type": "uint256"
        }
      ],
      "stateMutability": "view",
      "type": "function"
    },
    {
      "inputs": [],
      "name": "optionCounter",
      "outputs": [
        {
          "internalType": "uint256",
          "name": "",
          "type": "uint256"
        }
      ],
      "stateMutability": "view",
      "type": "function"
    },
    {
      "inputs": [],
      "name": "optionsIssued",
      "outputs": [
        {
          "internalType": "bool",
          "name": "",
          "type": "bool"
        }
      ],
      "stateMutability": "view",
      "type": "function"
    },
    {
      "inputs": [],
      "name": "owner",
      "outputs": [
        {
          "internalType": "address",
          "name": "",
          "type": "address"
        }
      ],
      "stateMutability": "view",
      "type": "function"
    },
    {
      "inputs": [],
      "name": "renounceOwnership",
      "outputs": [],
      "stateMutability": "nonpayable",
      "type": "function"
    },
    {
      "inputs": [],
      "name": "salesContract",
      "outputs": [
        {
          "internalType": "address",
          "name": "",
          "type": "address"
        }
      ],
      "stateMutability": "view",
      "type": "function"
    },
    {
      "inputs": [
        {
          "internalType": "uint256",
          "name": "_mintTime",
          "type": "uint256"
        },
        {
          "internalType": "uint256",
          "name": "_expiryTime",
          "type": "uint256"
        },
        {
          "internalType": "uint256",
          "name": "_auctionTime",
          "type": "uint256"
        }
      ],
      "name": "setOptionTiming",
      "outputs": [],
      "stateMutability": "nonpayable",
      "type": "function"
    },
    {
      "inputs": [
        {
          "internalType": "address",
          "name": "_vault",
          "type": "address"
        },
        {
          "internalType": "bool",
          "name": "_useVault",
          "type": "bool"
        }
      ],
      "name": "setVaultUsage",
      "outputs": [],
      "stateMutability": "nonpayable",
      "type": "function"
    },
    {
      "inputs": [],
      "name": "short",
      "outputs": [
        {
          "internalType": "contract IERC20",
          "name": "",
          "type": "address"
        }
      ],
      "stateMutability": "view",
      "type": "function"
    },
    {
      "inputs": [],
      "name": "timeBeforeDeadline",
      "outputs": [
        {
          "internalType": "uint256",
          "name": "",
          "type": "uint256"
        }
      ],
      "stateMutability": "view",
      "type": "function"
    },
    {
      "inputs": [
        {
          "internalType": "address",
          "name": "newOwner",
          "type": "address"
        }
      ],
      "name": "transferOwnership",
      "outputs": [],
      "stateMutability": "nonpayable",
      "type": "function"
    },
    {
      "inputs": [],
      "name": "useVault",
      "outputs": [
        {
          "internalType": "bool",
          "name": "",
          "type": "bool"
        }
      ],
      "stateMutability": "view",
      "type": "function"
    },
    {
      "inputs": [],
      "name": "vaultAddress",
      "outputs": [
        {
          "internalType": "address",
          "name": "",
          "type": "address"
        }
      ],
      "stateMutability": "view",
      "type": "function"
    },
    {
      "inputs": [],
      "name": "withdrawFromVault",
      "outputs": [],
      "stateMutability": "nonpayable",
      "type": "function"
    },
    {
      "inputs": [
        {
          "internalType": "address",
          "name": "_token",
          "type": "address"
        }
      ],
      "name": "withdrawFunds",
      "outputs": [],
      "stateMutability": "nonpayable",
      "type": "function"
    }
  ],
  "bytecode": "6080604052600480546001600160a01b0319169055600c805461ffff19169055610e10600d5561a8c06010553480156200003857600080fd5b5060405162003cad38038062003cad8339810160408190526200005b9162000107565b60006200006762000103565b600080546001600160a01b0319166001600160a01b0383169081178255604051929350917f8be0079c531659141344cd1fd0a4f28419497f9722a3daafe3b4186f6b6457e0908290a350600180546001600160a01b039788166001600160a01b031991821617909155600280549688169682169690961790955560069390935560078054929095169190931617909255600e55600f556200018f565b3390565b60008060008060008060c0878903121562000120578182fd5b86516200012d8162000176565b6020880151909650620001408162000176565b6040880151606089015191965094506200015a8162000176565b809350506080870151915060a087015190509295509295509295565b6001600160a01b03811681146200018c57600080fd5b50565b613b0e806200019f6000396000f3fe60806040523480156200001157600080fd5b5060043610620002385760003560e01c80637656b8fa1162000135578063b1d3ea6111620000bd578063cad20a291162000087578063cad20a2914620003cb578063d0cc395014620003d5578063f2fde38b14620003df578063f8a3518114620003f6578063fae00e6f14620004005762000238565b8063b1d3ea611462000389578063c009c7631462000393578063c236c36d14620003aa578063c2f99e7514620003c15762000238565b80638da5cb5b11620000ff5780638da5cb5b146200036157806399bc0aea146200036b5780639d29fb741462000375578063a0877304146200037f5762000238565b80637656b8fa146200032c57806382e077bd146200034357806386478122146200034d578063875d94d214620003575762000238565b8063430bf08a11620001c55780635001f3b5116200018f5780635001f3b514620002ed5780636622e40814620002f757806368742da61462000301578063715018a614620003185780637150d8ae14620003225762000238565b8063430bf08a14620002c55780634444ccae14620002cf57806344834aca14620002d95780634c2067c714620002e35762000238565b806329dcb0cf116200020757806329dcb0cf146200028e5780632ba32d9d146200029857806338bea4cb14620002a2578063420d7efd14620002bb5762000238565b8063091dffca146200023d578063102098871462000249578063155f586d1462000253578063167fca121462000275575b600080fd5b6200024762000417565b005b62000247620004b9565b6200025d620006b0565b6040516200026c919062001b8c565b60405180910390f35b6200027f620006b6565b6040516200026c9190620019e2565b6200025d620006c6565b6200025d620006cc565b620002ac620006d2565b6040516200026c91906200193e565b6200025d620006e1565b620002ac620006e7565b62000247620006f6565b620002ac62000820565b6200027f6200082f565b620002ac62000857565b6200025d62000866565b62000247620003123660046200181f565b62000a41565b6200024762000bac565b620002ac62000c30565b6200025d6200033d366004620018b1565b62000c3f565b6200027f62000db9565b6200025d62000dc7565b6200025d62000dcd565b620002ac62000dd3565b6200025d62000de2565b6200027f62000de8565b6200025d62000df1565b620002ac62000df7565b62000247620003a43660046200190c565b62000e06565b62000247620003bb366004620018e0565b62000f82565b6200025d62000fca565b6200025d62000fd0565b6200025d62001061565b62000247620003f03660046200181f565b62001067565b6200025d62001125565b62000247620004113660046200183d565b6200112b565b620004216200121a565b6000546001600160a01b039081169116146200045a5760405162461bcd60e51b8152600401620004519062001b57565b60405180910390fd5b600480546040805163429c145b60e11b815290516001600160a01b039092169263853828b692828201926000929082900301818387803b1580156200049e57600080fd5b505af1158015620004b3573d6000803e3d6000fd5b50505050565b6012546001600160a01b03163314620004d157600080fd5b600254600160a01b900460ff161515600114620004ed57600080fd5b600954421015620004fd57600080fd5b6008544211156200050d57600080fd5b600254600b546040516323b872dd60e01b81526001600160a01b03909216916323b872dd9162000544913391309160040162001952565b602060405180830381600087803b1580156200055f57600080fd5b505af115801562000574573d6000803e3d6000fd5b505050506040513d601f19601f820116820180604052508101906200059a919062001879565b50600c5460ff161515600114156200061a576004546001600160a01b0316632e1a7d4d620005c76200121e565b6040518263ffffffff1660e01b8152600401620005e5919062001b8c565b600060405180830381600087803b1580156200060057600080fd5b505af115801562000615573d6000803e3d6000fd5b505050505b600154601254600a546040516323b872dd60e01b81526001600160a01b03938416936323b872dd9362000657933093929091169160040162001952565b602060405180830381600087803b1580156200067257600080fd5b505af115801562000687573d6000803e3d6000fd5b505050506040513d601f19601f82011682018060405250810190620006ad919062001879565b50565b60105481565b600254600160a01b900460ff1681565b60085481565b600f5481565b6002546001600160a01b031681565b60095481565b6004546001600160a01b031681565b620007006200121a565b6000546001600160a01b03908116911614620007305760405162461bcd60e51b8152600401620004519062001b57565b6001546040516370a0823160e01b81526000916001600160a01b0316906370a0823190620007639030906004016200193e565b60206040518083038186803b1580156200077c57600080fd5b505afa15801562000791573d6000803e3d6000fd5b505050506040513d601f19601f82011682018060405250810190620007b7919062001898565b6004805460405163b6b55f2560e01b81529293506001600160a01b03169163b6b55f2591620007e99185910162001b8c565b600060405180830381600087803b1580156200080457600080fd5b505af115801562000819573d6000803e3d6000fd5b5050505050565b6005546001600160a01b031681565b600254600090600160a01b900460ff1615156001146200084e57600080fd5b50600854421190565b6001546001600160a01b031681565b6001546040516370a0823160e01b815260009182916001600160a01b03909116906370a08231906200089d9030906004016200193e565b60206040518083038186803b158015620008b657600080fd5b505afa158015620008cb573d6000803e3d6000fd5b505050506040513d601f19601f82011682018060405250810190620008f1919062001898565b600c5490915060ff1615156001141562000a3c576004805460408051630f5a05d760e21b815290516001600160a01b03909216926127109260009262000a2892859262000a21928892633d68175c928282019260209290829003018186803b1580156200095d57600080fd5b505afa15801562000972573d6000803e3d6000fd5b505050506040513d601f19601f8201168201806040525081019062000998919062001898565b6040516370a0823160e01b81526001600160a01b038816906370a0823190620009c69030906004016200193e565b60206040518083038186803b158015620009df57600080fd5b505afa158015620009f4573d6000803e3d6000fd5b505050506040513d601f19601f8201168201806040525081019062000a1a919062001898565b9062001252565b9062001299565b905062000a368482620012dd565b93505050505b905090565b62000a4b6200121a565b6000546001600160a01b0390811691161462000a7b5760405162461bcd60e51b8152600401620004519062001b57565b62000a856200082f565b151560011462000a9457600080fd5b6040516370a0823160e01b815281906000906001600160a01b038316906370a082319062000ac79030906004016200193e565b60206040518083038186803b15801562000ae057600080fd5b505afa15801562000af5573d6000803e3d6000fd5b505050506040513d601f19601f8201168201806040525081019062000b1b919062001898565b9050816001600160a01b031663a9059cbb62000b3662000dd3565b836040518363ffffffff1660e01b815260040162000b56929190620019c9565b602060405180830381600087803b15801562000b7157600080fd5b505af115801562000b86573d6000803e3d6000fd5b505050506040513d601f19601f82011682018060405250810190620004b3919062001879565b62000bb66200121a565b6000546001600160a01b0390811691161462000be65760405162461bcd60e51b8152600401620004519062001b57565b600080546040516001600160a01b03909116907f8be0079c531659141344cd1fd0a4f28419497f9722a3daafe3b4186f6b6457e0908390a3600080546001600160a01b0319169055565b6012546001600160a01b031681565b6012546000906001600160a01b0316331462000c5a57600080fd5b600b5483111562000c6a57600080fd5b600254600160a01b900460ff16151560011462000c8657600080fd5b60095442101562000c9657600080fd5b60085442111562000ca657600080fd5b600b5460009062000cbf9062000a218661271062001252565b9050600062000ce161271062000a2184600a546200125290919063ffffffff16565b600c5490915060ff1615156001141562000d005762000d008562001305565b60015460405163a9059cbb60e01b81526001600160a01b039091169063a9059cbb9062000d349087908590600401620019c9565b602060405180830381600087803b15801562000d4f57600080fd5b505af115801562000d64573d6000803e3d6000fd5b505050506040513d601f19601f8201168201806040525081019062000d8a919062001879565b50600b5462000d9a908662001407565b600b55600a5462000dac908262001407565b600a559150505b92915050565b600c54610100900460ff1681565b600d5481565b600b5481565b6000546001600160a01b031690565b600e5481565b600c5460ff1681565b60035481565b6007546001600160a01b031681565b600c5460ff6101009091041615156001141562000e365762000e276200082f565b151560011462000e3657600080fd5b600a5462000e4362000866565b101562000f74576001546001600160a01b03166323b872dd62000e6562000dd3565b6001546040516370a0823160e01b8152309162000efc916001600160a01b03909116906370a082319062000e9e9085906004016200193e565b60206040518083038186803b15801562000eb757600080fd5b505afa15801562000ecc573d6000803e3d6000fd5b505050506040513d601f19601f8201168201806040525081019062000ef2919062001898565b600a549062001407565b6040518463ffffffff1660e01b815260040162000f1c9392919062001952565b602060405180830381600087803b15801562000f3757600080fd5b505af115801562000f4c573d6000803e3d6000fd5b505050506040513d601f19601f8201168201806040525081019062000f72919062001879565b505b620004b3848484846200144b565b62000f8c6200121a565b6000546001600160a01b0390811691161462000fbc5760405162461bcd60e51b8152600401620004519062001b57565b600d92909255600e55601055565b600a5481565b6002546040516370a0823160e01b815260009182916001600160a01b03909116906370a0823190620010079030906004016200193e565b60206040518083038186803b1580156200102057600080fd5b505afa15801562001035573d6000803e3d6000fd5b505050506040513d601f19601f820116820180604052508101906200105b919062001898565b91505090565b60065481565b620010716200121a565b6000546001600160a01b03908116911614620010a15760405162461bcd60e51b8152600401620004519062001b57565b6001600160a01b038116620010ca5760405162461bcd60e51b8152600401620004519062001a43565b600080546040516001600160a01b03808516939216917f8be0079c531659141344cd1fd0a4f28419497f9722a3daafe3b4186f6b6457e091a3600080546001600160a01b0319166001600160a01b0392909216919091179055565b60115481565b620011356200121a565b6000546001600160a01b03908116911614620011655760405162461bcd60e51b8152600401620004519062001b57565b600480546001600160a01b0319166001600160a01b0384811691909117808355600c805460ff191685151517905560015460405163095ea7b360e01b81529083169363095ea7b393620011bf9316916000199101620019c9565b602060405180830381600087803b158015620011da57600080fd5b505af1158015620011ef573d6000803e3d6000fd5b505050506040513d601f19601f8201168201806040525081019062001215919062001879565b505050565b3390565b600480546040516370a0823160e01b815260009283926001600160a01b0316916370a082319162001007913091016200193e565b600082620012635750600062000db3565b828202828482816200127157fe5b0414620012925760405162461bcd60e51b8152600401620004519062001b16565b9392505050565b60006200129283836040518060400160405280601a81526020017f536166654d6174683a206469766973696f6e206279207a65726f000000000000815250620016ed565b600082820183811015620012925760405162461bcd60e51b8152600401620004519062001adf565b6004805460408051630f5a05d760e21b815290516103e8936000936200139c936001600160a01b0390911692633d68175c92828101926020929190829003018186803b1580156200135557600080fd5b505afa1580156200136a573d6000803e3d6000fd5b505050506040513d601f19601f8201168201806040525081019062001390919062001898565b62000a21858562001252565b60048054604051632e1a7d4d60e01b81529293506001600160a01b031691632e1a7d4d91620013ce9185910162001b8c565b600060405180830381600087803b158015620013e957600080fd5b505af1158015620013fe573d6000803e3d6000fd5b50505050505050565b60006200129283836040518060400160405280601e81526020017f536166654d6174683a207375627472616374696f6e206f766572666c6f77000081525062001728565b600a839055600b849055826200146062000866565b10156200146c57600080fd5b600c5460ff610100909104161515600114156200149c576200148d6200082f565b15156001146200149c57600080fd5b600f54600854620014ad9162001407565b600955600e54620014c0904290620012dd565b6008556006546040516000913091620014d990620017f9565b620014e692919062001a89565b604051809103906000f08015801562001503573d6000803e3d6000fd5b50905080600560006101000a8154816001600160a01b0302191690836001600160a01b03160217905550806001600160a01b031663e68f63116040518163ffffffff1660e01b8152600401600060405180830381600087803b1580156200156957600080fd5b505af11580156200157e573d6000803e3d6000fd5b5050600554601280546001600160a01b0319166001600160a01b03928316908117909155600c805461ff0019166101001790556002805460ff60a01b1916600160a01b17905560075460405163095ea7b360e01b815291945084935063095ea7b392620015f3929116908a90600401620019c9565b602060405180830381600087803b1580156200160e57600080fd5b505af115801562001623573d6000803e3d6000fd5b505050506040513d601f19601f8201168201806040525081019062001649919062001879565b50600554600254604080516318160ddd60e01b81529051620016e5936001600160a01b0390811693811692908616916318160ddd91600480820192602092909190829003018186803b1580156200169f57600080fd5b505afa158015620016b4573d6000803e3d6000fd5b505050506040513d601f19601f82011682018060405250810190620016da919062001898565b876000898962001757565b505050505050565b60008183620017115760405162461bcd60e51b8152600401620004519190620019ed565b5060008385816200171e57fe5b0495945050505050565b600081848411156200174f5760405162461bcd60e51b8152600401620004519190620019ed565b505050900390565b6007546040516301d6453960e11b81526001600160a01b03909116906303ac8a729062001799908a908a90309081908c908c908c908c908c9060040162001976565b602060405180830381600087803b158015620017b457600080fd5b505af1158015620017c9573d6000803e3d6000fd5b505050506040513d601f19601f82011682018060405250810190620017ef919062001898565b5050505050505050565b611f348062001ba583390190565b80356001600160a01b038116811462000db357600080fd5b60006020828403121562001831578081fd5b62001292838362001807565b6000806040838503121562001850578081fd5b6200185c848462001807565b915060208301356200186e8162001b95565b809150509250929050565b6000602082840312156200188b578081fd5b8151620012928162001b95565b600060208284031215620018aa578081fd5b5051919050565b60008060408385031215620018c4578182fd5b82359150620018d7846020850162001807565b90509250929050565b600080600060608486031215620018f5578081fd5b505081359360208301359350604090920135919050565b6000806000806080858703121562001922578081fd5b5050823594602084013594506040840135936060013592509050565b6001600160a01b0391909116815260200190565b6001600160a01b039384168152919092166020820152604081019190915260600190565b6001600160a01b03998a16815297891660208901529588166040880152939096166060860152608085019190915260a084015260c083019390935260e08201929092526101008101919091526101200190565b6001600160a01b03929092168252602082015260400190565b901515815260200190565b6000602080835283518082850152825b8181101562001a1b57858101830151858201604001528201620019fd565b8181111562001a2d5783604083870101525b50601f01601f1916929092016040019392505050565b60208082526026908201527f4f776e61626c653a206e6577206f776e657220697320746865207a65726f206160408201526564647265737360d01b606082015260800190565b6080808252600a908201526913dc1d1a5bdb951154d560b21b60a082015260c0602082018190526003908201526213d41560ea1b60e08201526001600160a01b0392909216604083015260608201526101000190565b6020808252601b908201527f536166654d6174683a206164646974696f6e206f766572666c6f770000000000604082015260600190565b60208082526021908201527f536166654d6174683a206d756c7469706c69636174696f6e206f766572666c6f6040820152607760f81b606082015260800190565b6020808252818101527f4f776e61626c653a2063616c6c6572206973206e6f7420746865206f776e6572604082015260600190565b90815260200190565b8015158114620006ad57600080fdfe60806040523480156200001157600080fd5b5060405162001f3438038062001f348339810160408190526200003491620004a9565b8351849084906200004d90600390602085019062000340565b5080516200006390600490602084019062000340565b50506005805460ff191660121790555060016006556000620000846200033c565b600780546001600160a01b0319166001600160a01b038316908117909155604051919250906000907f8be0079c531659141344cd1fd0a4f28419497f9722a3daafe3b4186f6b6457e0908290a350600880546001600160a01b0319166001600160a01b03848116919091179182905560408051635001f3b560e01b815290519290911691635001f3b591600480820192602092909190829003018186803b1580156200012f57600080fd5b505afa15801562000144573d6000803e3d6000fd5b505050506040513d601f19601f820116820180604052508101906200016a919062000483565b600b80546001600160a01b0319166001600160a01b03928316179055600854604080516338bea4cb60e01b8152905191909216916338bea4cb916004808301926020929190829003018186803b158015620001c457600080fd5b505afa158015620001d9573d6000803e3d6000fd5b505050506040513d601f19601f82011682018060405250810190620001ff919062000483565b600c80546001600160a01b0319166001600160a01b039283161790556008546040805163c2f99e7560e01b81529051919092169163c2f99e75916004808301926020929190829003018186803b1580156200025957600080fd5b505afa1580156200026e573d6000803e3d6000fd5b505050506040513d601f19601f820116820180604052508101906200029491906200052c565b600e55600854604080516343aeca6960e11b815290516001600160a01b039092169163875d94d291600480820192602092909190829003018186803b158015620002dd57600080fd5b505afa158015620002f2573d6000803e3d6000fd5b505050506040513d601f19601f820116820180604052508101906200031891906200052c565b60098190558111156200032a57600080fd5b6000600f55600a55506200055e915050565b3390565b828054600181600116156101000203166002900490600052602060002090601f016020900481019282601f106200038357805160ff1916838001178555620003b3565b82800160010185558215620003b3579182015b82811115620003b357825182559160200191906001019062000396565b50620003c1929150620003c5565b5090565b5b80821115620003c15760008155600101620003c6565b600082601f830112620003ed578081fd5b81516001600160401b038082111562000404578283fd5b6040516020601f8401601f191682018101838111838210171562000426578586fd5b806040525081945083825286818588010111156200044357600080fd5b600092505b8383101562000467578583018101518284018201529182019162000448565b83831115620004795760008185840101525b5050505092915050565b60006020828403121562000495578081fd5b8151620004a28162000545565b9392505050565b60008060008060808587031215620004bf578283fd5b84516001600160401b0380821115620004d6578485fd5b620004e488838901620003dc565b95506020870151915080821115620004fa578485fd5b506200050987828801620003dc565b93505060408501516200051c8162000545565b6060959095015193969295505050565b6000602082840312156200053e578081fd5b5051919050565b6001600160a01b03811681146200055b57600080fd5b50565b6119c6806200056e6000396000f3fe608060405234801561001057600080fd5b50600436106101425760003560e01c806377dcb53a116100b8578063a9059cbb1161007c578063a9059cbb14610260578063dd62ed3e14610273578063e68f631114610286578063f2fde38b1461028e578063f7954dcf146102a1578063f8d89898146102a957610142565b806377dcb53a1461022d5780638da5cb5b1461023557806394ee08271461023d57806395d89b4114610245578063a457c2d71461024d57610142565b806323b872dd1161010a57806323b872dd146101c2578063313ce567146101d557806339509351146101ea5780635fe3b567146101fd57806370a0823114610212578063715018a61461022557610142565b806306fdde0314610147578063095ea7b31461016557806318160ddd146101855780631c1005e71461019a5780631edd0494146101af575b600080fd5b61014f6102b1565b60405161015c919061153f565b60405180910390f35b6101786101733660046113af565b610347565b60405161015c9190611534565b61018d610364565b60405161015c9190611801565b6101ad6101a836600461148f565b61036a565b005b6101ad6101bd3660046114bf565b6104e9565b6101786101d036600461136f565b61089b565b6101dd610922565b60405161015c9190611891565b6101786101f83660046113af565b61092b565b610205610979565b60405161015c91906114e3565b61018d6102203660046112ff565b610988565b6101ad6109a3565b61018d610a22565b610205610a28565b610205610a37565b61014f610a46565b61017861025b3660046113af565b610aa7565b61017861026e3660046113af565b610b0f565b61018d610281366004611337565b610b23565b6101ad610b4e565b6101ad61029c3660046112ff565b610cbd565b6101ad610d74565b610205610d8d565b60038054604080516020601f600260001961010060018816150201909516949094049384018190048102820181019092528281526060939092909183018282801561033d5780601f106103125761010080835404028352916020019161033d565b820191906000526020600020905b81548152906001019060200180831161032057829003601f168201915b5050505050905090565b600061035b610354610d9c565b8484610da0565b50600192915050565b60025490565b600260065414156103965760405162461bcd60e51b815260040161038d90611793565b60405180910390fd5b6002600655600a5481116103a957600080fd5b60006103b433610988565b9050808211156103c357600080fd5b600c546008546040516323b872dd60e01b81526001600160a01b03928316926323b872dd926103fc9233929091169087906004016114f7565b602060405180830381600087803b15801561041657600080fd5b505af115801561042a573d6000803e3d6000fd5b505050506040513d601f19601f8201168201806040525081019061044e919061146f565b50600854604051633b2b5c7d60e11b81526001600160a01b0390911690637656b8fa90610481908590339060040161180a565b602060405180830381600087803b15801561049b57600080fd5b505af11580156104af573d6000803e3d6000fd5b505050506040513d601f19601f820116820180604052508101906104d391906114a7565b600d556104e03383610e54565b50506001600655565b6002600654141561050c5760405162461bcd60e51b815260040161038d90611793565b6002600655600a54821161051f57600080fd5b600061052a33610988565b90508083111561053957600080fd5b600854604051633b2b5c7d60e11b81526001600160a01b0390911690637656b8fa9061056b908690309060040161180a565b602060405180830381600087803b15801561058557600080fd5b505af1158015610599573d6000803e3d6000fd5b505050506040513d601f19601f820116820180604052508101906105bd91906114a7565b600d55600b54600c546060916105df916001600160a01b039182169116610f36565b600b54600d5460405163095ea7b360e01b81529293506001600160a01b039091169163095ea7b3916106169187919060040161151b565b602060405180830381600087803b15801561063057600080fd5b505af1158015610644573d6000803e3d6000fd5b505050506040513d601f19601f82011682018060405250810190610668919061146f565b50600d54604051634401edf760e11b81526001600160a01b03851691638803dbee9161069e918891869030904290600401611821565b600060405180830381600087803b1580156106b857600080fd5b505af11580156106cc573d6000803e3d6000fd5b505050506040513d6000823e601f3d908101601f191682016040526106f491908101906113da565b50600c5460085460405163a9059cbb60e01b81526001600160a01b039283169263a9059cbb9261072b92911690889060040161151b565b602060405180830381600087803b15801561074557600080fd5b505af1158015610759573d6000803e3d6000fd5b505050506040513d601f19601f8201168201806040525081019061077d919061146f565b50600b546040516370a0823160e01b81526000916001600160a01b0316906370a08231906107af9030906004016114e3565b60206040518083038186803b1580156107c757600080fd5b505afa1580156107db573d6000803e3d6000fd5b505050506040513d601f19601f820116820180604052508101906107ff91906114a7565b600b5460405163a9059cbb60e01b81529192506001600160a01b03169063a9059cbb90610832903390859060040161151b565b602060405180830381600087803b15801561084c57600080fd5b505af1158015610860573d6000803e3d6000fd5b505050506040513d601f19601f82011682018060405250810190610884919061146f565b5061088f3386610e54565b50506001600655505050565b60006108a8848484611097565b610918846108b4610d9c565b61091385604051806060016040528060288152602001611944602891396001600160a01b038a166000908152600160205260408120906108f2610d9c565b6001600160a01b0316815260208101919091526040016000205491906111ac565b610da0565b5060019392505050565b60055460ff1690565b600061035b610938610d9c565b846109138560016000610949610d9c565b6001600160a01b03908116825260208083019390935260409182016000908120918c1681529252902054906111d8565b6010546001600160a01b031681565b6001600160a01b031660009081526020819052604090205490565b6109ab610d9c565b6007546001600160a01b039081169116146109d85760405162461bcd60e51b815260040161038d90611694565b6007546040516000916001600160a01b0316907f8be0079c531659141344cd1fd0a4f28419497f9722a3daafe3b4186f6b6457e0908390a3600780546001600160a01b0319169055565b600f5481565b6007546001600160a01b031690565b600b546001600160a01b031681565b60048054604080516020601f600260001961010060018816150201909516949094049384018190048102820181019092528281526060939092909183018282801561033d5780601f106103125761010080835404028352916020019161033d565b600061035b610ab4610d9c565b846109138560405180606001604052806025815260200161196c6025913960016000610ade610d9c565b6001600160a01b03908116825260208083019390935260409182016000908120918d168152925290205491906111ac565b600061035b610b1c610d9c565b8484611097565b6001600160a01b03918216600090815260016020908152604080832093909416825291909152205490565b610b56610d9c565b6007546001600160a01b03908116911614610b835760405162461bcd60e51b815260040161038d90611694565b600f5415610b9057600080fd5b60085460408051632241a56560e11b8152905130926001600160a01b0316916344834aca916004808301926020929190829003018186803b158015610bd457600080fd5b505afa158015610be8573d6000803e3d6000fd5b505050506040513d601f19601f82011682018060405250810190610c0c919061131b565b6001600160a01b031614610c1f57600080fd5b610c2b33600954611204565b600c5460085460095460405163095ea7b360e01b81526001600160a01b039384169363095ea7b393610c629391169160040161151b565b602060405180830381600087803b158015610c7c57600080fd5b505af1158015610c90573d6000803e3d6000fd5b505050506040513d601f19601f82011682018060405250810190610cb4919061146f565b50600954600f55565b610cc5610d9c565b6007546001600160a01b03908116911614610cf25760405162461bcd60e51b815260040161038d90611694565b6001600160a01b038116610d185760405162461bcd60e51b815260040161038d906115d5565b6007546040516001600160a01b038084169216907f8be0079c531659141344cd1fd0a4f28419497f9722a3daafe3b4186f6b6457e090600090a3600780546001600160a01b0319166001600160a01b0392909216919091179055565b6000610d7f33610988565b9050610d8a8161036a565b50565b600c546001600160a01b031681565b3390565b6001600160a01b038316610dc65760405162461bcd60e51b815260040161038d9061174f565b6001600160a01b038216610dec5760405162461bcd60e51b815260040161038d9061161b565b6001600160a01b0380841660008181526001602090815260408083209487168084529490915290819020849055517f8c5be1e5ebec7d5bd14f71427d1e84f3dd0314c0f7b2291e5b200ac8c7c3b92590610e47908590611801565b60405180910390a3505050565b6001600160a01b038216610e7a5760405162461bcd60e51b815260040161038d906116c9565b610e86826000836112b8565b610ec3816040518060600160405280602281526020016118fc602291396001600160a01b03851660009081526020819052604090205491906111ac565b6001600160a01b038316600090815260208190526040902055600254610ee990826112bd565b6002556040516000906001600160a01b038416907fddf252ad1be2c89b69c2b068fc378daa952ba7f163c4a11628f55a4df523b3ef90610f2a908590611801565b60405180910390a35050565b6012546060906000906001600160a01b0385811691161480610f6557506012546001600160a01b038481169116145b905080610f73576003610f76565b60025b60ff1667ffffffffffffffff81118015610f8f57600080fd5b50604051908082528060200260200182016040528015610fb9578160200160208202803683370190505b5091508382600081518110610fca57fe5b60200260200101906001600160a01b031690816001600160a01b0316815250508015611023578282600181518110610ffe57fe5b60200260200101906001600160a01b031690816001600160a01b031681525050611090565b60125482516001600160a01b03909116908390600190811061104157fe5b60200260200101906001600160a01b031690816001600160a01b031681525050828260028151811061106f57fe5b60200260200101906001600160a01b031690816001600160a01b0316815250505b5092915050565b6001600160a01b0383166110bd5760405162461bcd60e51b815260040161038d9061170a565b6001600160a01b0382166110e35760405162461bcd60e51b815260040161038d90611592565b6110ee8383836112b8565b61112b8160405180606001604052806026815260200161191e602691396001600160a01b03861660009081526020819052604090205491906111ac565b6001600160a01b03808516600090815260208190526040808220939093559084168152205461115a90826111d8565b6001600160a01b0380841660008181526020819052604090819020939093559151908516907fddf252ad1be2c89b69c2b068fc378daa952ba7f163c4a11628f55a4df523b3ef90610e47908590611801565b600081848411156111d05760405162461bcd60e51b815260040161038d919061153f565b505050900390565b6000828201838110156111fd5760405162461bcd60e51b815260040161038d9061165d565b9392505050565b6001600160a01b03821661122a5760405162461bcd60e51b815260040161038d906117ca565b611236600083836112b8565b60025461124390826111d8565b6002556001600160a01b03821660009081526020819052604090205461126990826111d8565b6001600160a01b0383166000818152602081905260408082209390935591519091907fddf252ad1be2c89b69c2b068fc378daa952ba7f163c4a11628f55a4df523b3ef90610f2a908590611801565b505050565b60006111fd83836040518060400160405280601e81526020017f536166654d6174683a207375627472616374696f6e206f766572666c6f7700008152506111ac565b600060208284031215611310578081fd5b81356111fd816118e6565b60006020828403121561132c578081fd5b81516111fd816118e6565b60008060408385031215611349578081fd5b8235611354816118e6565b91506020830135611364816118e6565b809150509250929050565b600080600060608486031215611383578081fd5b833561138e816118e6565b9250602084013561139e816118e6565b929592945050506040919091013590565b600080604083850312156113c1578182fd5b82356113cc816118e6565b946020939093013593505050565b600060208083850312156113ec578182fd5b825167ffffffffffffffff811115611402578283fd5b8301601f81018513611412578283fd5b8051611425611420826118c6565b61189f565b8181528381019083850185840285018601891015611441578687fd5b8694505b83851015611463578051835260019490940193918501918501611445565b50979650505050505050565b600060208284031215611480578081fd5b815180151581146111fd578182fd5b6000602082840312156114a0578081fd5b5035919050565b6000602082840312156114b8578081fd5b5051919050565b600080604083850312156114d1578182fd5b823591506020830135611364816118e6565b6001600160a01b0391909116815260200190565b6001600160a01b039384168152919092166020820152604081019190915260600190565b6001600160a01b03929092168252602082015260400190565b901515815260200190565b6000602080835283518082850152825b8181101561156b5785810183015185820160400152820161154f565b8181111561157c5783604083870101525b50601f01601f1916929092016040019392505050565b60208082526023908201527f45524332303a207472616e7366657220746f20746865207a65726f206164647260408201526265737360e81b606082015260800190565b60208082526026908201527f4f776e61626c653a206e6577206f776e657220697320746865207a65726f206160408201526564647265737360d01b606082015260800190565b60208082526022908201527f45524332303a20617070726f766520746f20746865207a65726f206164647265604082015261737360f01b606082015260800190565b6020808252601b908201527f536166654d6174683a206164646974696f6e206f766572666c6f770000000000604082015260600190565b6020808252818101527f4f776e61626c653a2063616c6c6572206973206e6f7420746865206f776e6572604082015260600190565b60208082526021908201527f45524332303a206275726e2066726f6d20746865207a65726f206164647265736040820152607360f81b606082015260800190565b60208082526025908201527f45524332303a207472616e736665722066726f6d20746865207a65726f206164604082015264647265737360d81b606082015260800190565b60208082526024908201527f45524332303a20617070726f76652066726f6d20746865207a65726f206164646040820152637265737360e01b606082015260800190565b6020808252601f908201527f5265656e7472616e637947756172643a207265656e7472616e742063616c6c00604082015260600190565b6020808252601f908201527f45524332303a206d696e7420746f20746865207a65726f206164647265737300604082015260600190565b90815260200190565b9182526001600160a01b0316602082015260400190565b600060a082018783526020878185015260a0604085015281875180845260c0860191508289019350845b818110156118705784516001600160a01b03168352938301939183019160010161184b565b50506001600160a01b03969096166060850152505050608001529392505050565b60ff91909116815260200190565b60405181810167ffffffffffffffff811182821017156118be57600080fd5b604052919050565b600067ffffffffffffffff8211156118dc578081fd5b5060209081020190565b6001600160a01b0381168114610d8a57600080fdfe45524332303a206275726e20616d6f756e7420657863656564732062616c616e636545524332303a207472616e7366657220616d6f756e7420657863656564732062616c616e636545524332303a207472616e7366657220616d6f756e74206578636565647320616c6c6f77616e636545524332303a2064656372656173656420616c6c6f77616e63652062656c6f77207a65726fa26469706673582212202a5fe9276f85c5ea358c879eb2ea3942343bd2ea1a8111b0d0854d5010e9da5764736f6c634300060c0033a264697066735822122061254f4d9a0ea5d8cf5f7121afa4083c4181c6d0900e33ee67616e1c4a14fe7d64736f6c634300060c0033",
  "bytecodeSha1": "ffb9bad0a8962850dbf311070a11a6fd038ad732",
  "compiler": {
    "evm_version": "istanbul",
    "optimizer": {
      "enabled": true,
      "runs": 200
    },
    "version": "0.6.12+commit.27d51765"
  },
  "contractName": "optionVaultSimple",
  "language": "Solidity",
  "natspec": {
    "kind": "dev",
    "methods": {
      "balanceBase()": {
        "notice": "to check that funds are enough to create options and lock in escrow "
      },
      "owner()": {
        "details": "Returns the address of the current owner."
      },
      "renounceOwnership()": {
        "details": "Leaves the contract without owner. It will not be possible to call `onlyOwner` functions anymore. Can only be called by the current owner. NOTE: Renouncing ownership will leave the contract without an owner, thereby removing any functionality that is only available to the owner."
      },
      "transferOwnership(address)": {
        "details": "Transfers ownership of the contract to a new account (`newOwner`). Can only be called by the current owner."
      }
    },
    "notice": "this contract holds funds in escrow until option expires allowing buyer to excercise by swapping short for base at pre-agreed exchange rate (amtOwed / collatAmt) owner also has option to deploy collateral to a vault to earn yield while still being locked + also can re-issue new options once currently issued options have expired",
    "version": 1
  },
  "opcodes": "PUSH1 0x80 PUSH1 0x40 MSTORE CALLVALUE DUP1 ISZERO PUSH3 0x11 JUMPI PUSH1 0x0 DUP1 REVERT JUMPDEST POP PUSH1 0x4 CALLDATASIZE LT PUSH3 0x238 JUMPI PUSH1 0x0 CALLDATALOAD PUSH1 0xE0 SHR DUP1 PUSH4 0x7656B8FA GT PUSH3 0x135 JUMPI DUP1 PUSH4 0xB1D3EA61 GT PUSH3 0xBD JUMPI DUP1 PUSH4 0xCAD20A29 GT PUSH3 0x87 JUMPI DUP1 PUSH4 0xCAD20A29 EQ PUSH3 0x3CB JUMPI DUP1 PUSH4 0xD0CC3950 EQ PUSH3 0x3D5 JUMPI DUP1 PUSH4 0xF2FDE38B EQ PUSH3 0x3DF JUMPI DUP1 PUSH4 0xF8A35181 EQ PUSH3 0x3F6 JUMPI DUP1 PUSH4 0xFAE00E6F EQ PUSH3 0x400 JUMPI PUSH3 0x238 JUMP JUMPDEST DUP1 PUSH4 0xB1D3EA61 EQ PUSH3 0x389 JUMPI DUP1 PUSH4 0xC009C763 EQ PUSH3 0x393 JUMPI DUP1 PUSH4 0xC236C36D EQ PUSH3 0x3AA JUMPI DUP1 PUSH4 0xC2F99E75 EQ PUSH3 0x3C1 JUMPI PUSH3 0x238 JUMP JUMPDEST DUP1 PUSH4 0x8DA5CB5B GT PUSH3 0xFF JUMPI DUP1 PUSH4 0x8DA5CB5B EQ PUSH3 0x361 JUMPI DUP1 PUSH4 0x99BC0AEA EQ PUSH3 0x36B JUMPI DUP1 PUSH4 0x9D29FB74 EQ PUSH3 0x375 JUMPI DUP1 PUSH4 0xA0877304 EQ PUSH3 0x37F JUMPI PUSH3 0x238 JUMP JUMPDEST DUP1 PUSH4 0x7656B8FA EQ PUSH3 0x32C JUMPI DUP1 PUSH4 0x82E077BD EQ PUSH3 0x343 JUMPI DUP1 PUSH4 0x86478122 EQ PUSH3 0x34D JUMPI DUP1 PUSH4 0x875D94D2 EQ PUSH3 0x357 JUMPI PUSH3 0x238 JUMP JUMPDEST DUP1 PUSH4 0x430BF08A GT PUSH3 0x1C5 JUMPI DUP1 PUSH4 0x5001F3B5 GT PUSH3 0x18F JUMPI DUP1 PUSH4 0x5001F3B5 EQ PUSH3 0x2ED JUMPI DUP1 PUSH4 0x6622E408 EQ PUSH3 0x2F7 JUMPI DUP1 PUSH4 0x68742DA6 EQ PUSH3 0x301 JUMPI DUP1 PUSH4 0x715018A6 EQ PUSH3 0x318 JUMPI DUP1 PUSH4 0x7150D8AE EQ PUSH3 0x322 JUMPI PUSH3 0x238 JUMP JUMPDEST DUP1 PUSH4 0x430BF08A EQ PUSH3 0x2C5 JUMPI DUP1 PUSH4 0x4444CCAE EQ PUSH3 0x2CF JUMPI DUP1 PUSH4 0x44834ACA EQ PUSH3 0x2D9 JUMPI DUP1 PUSH4 0x4C2067C7 EQ PUSH3 0x2E3 JUMPI PUSH3 0x238 JUMP JUMPDEST DUP1 PUSH4 0x29DCB0CF GT PUSH3 0x207 JUMPI DUP1 PUSH4 0x29DCB0CF EQ PUSH3 0x28E JUMPI DUP1 PUSH4 0x2BA32D9D EQ PUSH3 0x298 JUMPI DUP1 PUSH4 0x38BEA4CB EQ PUSH3 0x2A2 JUMPI DUP1 PUSH4 0x420D7EFD EQ PUSH3 0x2BB JUMPI PUSH3 0x238 JUMP JUMPDEST DUP1 PUSH4 0x91DFFCA EQ PUSH3 0x23D JUMPI DUP1 PUSH4 0x10209887 EQ PUSH3 0x249 JUMPI DUP1 PUSH4 0x155F586D EQ PUSH3 0x253 JUMPI DUP1 PUSH4 0x167FCA12 EQ PUSH3 0x275 JUMPI JUMPDEST PUSH1 0x0 DUP1 REVERT JUMPDEST PUSH3 0x247 PUSH3 0x417 JUMP JUMPDEST STOP JUMPDEST PUSH3 0x247 PUSH3 0x4B9 JUMP JUMPDEST PUSH3 0x25D PUSH3 0x6B0 JUMP JUMPDEST PUSH1 0x40 MLOAD PUSH3 0x26C SWAP2 SWAP1 PUSH3 0x1B8C JUMP JUMPDEST PUSH1 0x40 MLOAD DUP1 SWAP2 SUB SWAP1 RETURN JUMPDEST PUSH3 0x27F PUSH3 0x6B6 JUMP JUMPDEST PUSH1 0x40 MLOAD PUSH3 0x26C SWAP2 SWAP1 PUSH3 0x19E2 JUMP JUMPDEST PUSH3 0x25D PUSH3 0x6C6 JUMP JUMPDEST PUSH3 0x25D PUSH3 0x6CC JUMP JUMPDEST PUSH3 0x2AC PUSH3 0x6D2 JUMP JUMPDEST PUSH1 0x40 MLOAD PUSH3 0x26C SWAP2 SWAP1 PUSH3 0x193E JUMP JUMPDEST PUSH3 0x25D PUSH3 0x6E1 JUMP JUMPDEST PUSH3 0x2AC PUSH3 0x6E7 JUMP JUMPDEST PUSH3 0x247 PUSH3 0x6F6 JUMP JUMPDEST PUSH3 0x2AC PUSH3 0x820 JUMP JUMPDEST PUSH3 0x27F PUSH3 0x82F JUMP JUMPDEST PUSH3 0x2AC PUSH3 0x857 JUMP JUMPDEST PUSH3 0x25D PUSH3 0x866 JUMP JUMPDEST PUSH3 0x247 PUSH3 0x312 CALLDATASIZE PUSH1 0x4 PUSH3 0x181F JUMP JUMPDEST PUSH3 0xA41 JUMP JUMPDEST PUSH3 0x247 PUSH3 0xBAC JUMP JUMPDEST PUSH3 0x2AC PUSH3 0xC30 JUMP JUMPDEST PUSH3 0x25D PUSH3 0x33D CALLDATASIZE PUSH1 0x4 PUSH3 0x18B1 JUMP JUMPDEST PUSH3 0xC3F JUMP JUMPDEST PUSH3 0x27F PUSH3 0xDB9 JUMP JUMPDEST PUSH3 0x25D PUSH3 0xDC7 JUMP JUMPDEST PUSH3 0x25D PUSH3 0xDCD JUMP JUMPDEST PUSH3 0x2AC PUSH3 0xDD3 JUMP JUMPDEST PUSH3 0x25D PUSH3 0xDE2 JUMP JUMPDEST PUSH3 0x27F PUSH3 0xDE8 JUMP JUMPDEST PUSH3 0x25D PUSH3 0xDF1 JUMP JUMPDEST PUSH3 0x2AC PUSH3 0xDF7 JUMP JUMPDEST PUSH3 0x247 PUSH3 0x3A4 CALLDATASIZE PUSH1 0x4 PUSH3 0x190C JUMP JUMPDEST PUSH3 0xE06 JUMP JUMPDEST PUSH3 0x247 PUSH3 0x3BB CALLDATASIZE PUSH1 0x4 PUSH3 0x18E0 JUMP JUMPDEST PUSH3 0xF82 JUMP JUMPDEST PUSH3 0x25D PUSH3 0xFCA JUMP JUMPDEST PUSH3 0x25D PUSH3 0xFD0 JUMP JUMPDEST PUSH3 0x25D PUSH3 0x1061 JUMP JUMPDEST PUSH3 0x247 PUSH3 0x3F0 CALLDATASIZE PUSH1 0x4 PUSH3 0x181F JUMP JUMPDEST PUSH3 0x1067 JUMP JUMPDEST PUSH3 0x25D PUSH3 0x1125 JUMP JUMPDEST PUSH3 0x247 PUSH3 0x411 CALLDATASIZE PUSH1 0x4 PUSH3 0x183D JUMP JUMPDEST PUSH3 0x112B JUMP JUMPDEST PUSH3 0x421 PUSH3 0x121A JUMP JUMPDEST PUSH1 0x0 SLOAD PUSH1 0x1 PUSH1 0x1 PUSH1 0xA0 SHL SUB SWAP1 DUP2 AND SWAP2 AND EQ PUSH3 0x45A JUMPI PUSH1 0x40 MLOAD PUSH3 0x461BCD PUSH1 0xE5 SHL DUP2 MSTORE PUSH1 0x4 ADD PUSH3 0x451 SWAP1 PUSH3 0x1B57 JUMP JUMPDEST PUSH1 0x40 MLOAD DUP1 SWAP2 SUB SWAP1 REVERT JUMPDEST PUSH1 0x4 DUP1 SLOAD PUSH1 0x40 DUP1 MLOAD PUSH4 0x429C145B PUSH1 0xE1 SHL DUP2 MSTORE SWAP1 MLOAD PUSH1 0x1 PUSH1 0x1 PUSH1 0xA0 SHL SUB SWAP1 SWAP3 AND SWAP3 PUSH4 0x853828B6 SWAP3 DUP3 DUP3 ADD SWAP3 PUSH1 0x0 SWAP3 SWAP1 DUP3 SWAP1 SUB ADD DUP2 DUP4 DUP8 DUP1 EXTCODESIZE ISZERO DUP1 ISZERO PUSH3 0x49E JUMPI PUSH1 0x0 DUP1 REVERT JUMPDEST POP GAS CALL ISZERO DUP1 ISZERO PUSH3 0x4B3 JUMPI RETURNDATASIZE PUSH1 0x0 DUP1 RETURNDATACOPY RETURNDATASIZE PUSH1 0x0 REVERT JUMPDEST POP POP POP POP JUMP JUMPDEST PUSH1 0x12 SLOAD PUSH1 0x1 PUSH1 0x1 PUSH1 0xA0 SHL SUB AND CALLER EQ PUSH3 0x4D1 JUMPI PUSH1 0x0 DUP1 REVERT JUMPDEST PUSH1 0x2 SLOAD PUSH1 0x1 PUSH1 0xA0 SHL SWAP1 DIV PUSH1 0xFF AND ISZERO ISZERO PUSH1 0x1 EQ PUSH3 0x4ED JUMPI PUSH1 0x0 DUP1 REVERT JUMPDEST PUSH1 0x9 SLOAD TIMESTAMP LT ISZERO PUSH3 0x4FD JUMPI PUSH1 0x0 DUP1 REVERT JUMPDEST PUSH1 0x8 SLOAD TIMESTAMP GT ISZERO PUSH3 0x50D JUMPI PUSH1 0x0 DUP1 REVERT JUMPDEST PUSH1 0x2 SLOAD PUSH1 0xB SLOAD PUSH1 0x40 MLOAD PUSH4 0x23B872DD PUSH1 0xE0 SHL DUP2 MSTORE PUSH1 0x1 PUSH1 0x1 PUSH1 0xA0 SHL SUB SWAP1 SWAP3 AND SWAP2 PUSH4 0x23B872DD SWAP2 PUSH3 0x544 SWAP2 CALLER SWAP2 ADDRESS SWAP2 PUSH1 0x4 ADD PUSH3 0x1952 JUMP JUMPDEST PUSH1 0x20 PUSH1 0x40 MLOAD DUP1 DUP4 SUB DUP2 PUSH1 0x0 DUP8 DUP1 EXTCODESIZE ISZERO DUP1 ISZERO PUSH3 0x55F JUMPI PUSH1 0x0 DUP1 REVERT JUMPDEST POP GAS CALL ISZERO DUP1 ISZERO PUSH3 0x574 JUMPI RETURNDATASIZE PUSH1 0x0 DUP1 RETURNDATACOPY RETURNDATASIZE PUSH1 0x0 REVERT JUMPDEST POP POP POP POP PUSH1 0x40 MLOAD RETURNDATASIZE PUSH1 0x1F NOT PUSH1 0x1F DUP3 ADD AND DUP3 ADD DUP1 PUSH1 0x40 MSTORE POP DUP2 ADD SWAP1 PUSH3 0x59A SWAP2 SWAP1 PUSH3 0x1879 JUMP JUMPDEST POP PUSH1 0xC SLOAD PUSH1 0xFF AND ISZERO ISZERO PUSH1 0x1 EQ ISZERO PUSH3 0x61A JUMPI PUSH1 0x4 SLOAD PUSH1 0x1 PUSH1 0x1 PUSH1 0xA0 SHL SUB AND PUSH4 0x2E1A7D4D PUSH3 0x5C7 PUSH3 0x121E JUMP JUMPDEST PUSH1 0x40 MLOAD DUP3 PUSH4 0xFFFFFFFF AND PUSH1 0xE0 SHL DUP2 MSTORE PUSH1 0x4 ADD PUSH3 0x5E5 SWAP2 SWAP1 PUSH3 0x1B8C JUMP JUMPDEST PUSH1 0x0 PUSH1 0x40 MLOAD DUP1 DUP4 SUB DUP2 PUSH1 0x0 DUP8 DUP1 EXTCODESIZE ISZERO DUP1 ISZERO PUSH3 0x600 JUMPI PUSH1 0x0 DUP1 REVERT JUMPDEST POP GAS CALL ISZERO DUP1 ISZERO PUSH3 0x615 JUMPI RETURNDATASIZE PUSH1 0x0 DUP1 RETURNDATACOPY RETURNDATASIZE PUSH1 0x0 REVERT JUMPDEST POP POP POP POP JUMPDEST PUSH1 0x1 SLOAD PUSH1 0x12 SLOAD PUSH1 0xA SLOAD PUSH1 0x40 MLOAD PUSH4 0x23B872DD PUSH1 0xE0 SHL DUP2 MSTORE PUSH1 0x1 PUSH1 0x1 PUSH1 0xA0 SHL SUB SWAP4 DUP5 AND SWAP4 PUSH4 0x23B872DD SWAP4 PUSH3 0x657 SWAP4 ADDRESS SWAP4 SWAP3 SWAP1 SWAP2 AND SWAP2 PUSH1 0x4 ADD PUSH3 0x1952 JUMP JUMPDEST PUSH1 0x20 PUSH1 0x40 MLOAD DUP1 DUP4 SUB DUP2 PUSH1 0x0 DUP8 DUP1 EXTCODESIZE ISZERO DUP1 ISZERO PUSH3 0x672 JUMPI PUSH1 0x0 DUP1 REVERT JUMPDEST POP GAS CALL ISZERO DUP1 ISZERO PUSH3 0x687 JUMPI RETURNDATASIZE PUSH1 0x0 DUP1 RETURNDATACOPY RETURNDATASIZE PUSH1 0x0 REVERT JUMPDEST POP POP POP POP PUSH1 0x40 MLOAD RETURNDATASIZE PUSH1 0x1F NOT PUSH1 0x1F DUP3 ADD AND DUP3 ADD DUP1 PUSH1 0x40 MSTORE POP DUP2 ADD SWAP1 PUSH3 0x6AD SWAP2 SWAP1 PUSH3 0x1879 JUMP JUMPDEST POP JUMP JUMPDEST PUSH1 0x10 SLOAD DUP2 JUMP JUMPDEST PUSH1 0x2 SLOAD PUSH1 0x1 PUSH1 0xA0 SHL SWAP1 DIV PUSH1 0xFF AND DUP2 JUMP JUMPDEST PUSH1 0x8 SLOAD DUP2 JUMP JUMPDEST PUSH1 0xF SLOAD DUP2 JUMP JUMPDEST PUSH1 0x2 SLOAD PUSH1 0x1 PUSH1 0x1 PUSH1 0xA0 SHL SUB AND DUP2 JUMP JUMPDEST PUSH1 0x9 SLOAD DUP2 JUMP JUMPDEST PUSH1 0x4 SLOAD PUSH1 0x1 PUSH1 0x1 PUSH1 0xA0 SHL SUB AND DUP2 JUMP JUMPDEST PUSH3 0x700 PUSH3 0x121A JUMP JUMPDEST PUSH1 0x0 SLOAD PUSH1 0x1 PUSH1 0x1 PUSH1 0xA0 SHL SUB SWAP1 DUP2 AND SWAP2 AND EQ PUSH3 0x730 JUMPI PUSH1 0x40 MLOAD PUSH3 0x461BCD PUSH1 0xE5 SHL DUP2 MSTORE PUSH1 0x4 ADD PUSH3 0x451 SWAP1 PUSH3 0x1B57 JUMP JUMPDEST PUSH1 0x1 SLOAD PUSH1 0x40 MLOAD PUSH4 0x70A08231 PUSH1 0xE0 SHL DUP2 MSTORE PUSH1 0x0 SWAP2 PUSH1 0x1 PUSH1 0x1 PUSH1 0xA0 SHL SUB AND SWAP1 PUSH4 0x70A08231 SWAP1 PUSH3 0x763 SWAP1 ADDRESS SWAP1 PUSH1 0x4 ADD PUSH3 0x193E JUMP JUMPDEST PUSH1 0x20 PUSH1 0x40 MLOAD DUP1 DUP4 SUB DUP2 DUP7 DUP1 EXTCODESIZE ISZERO DUP1 ISZERO PUSH3 0x77C JUMPI PUSH1 0x0 DUP1 REVERT JUMPDEST POP GAS STATICCALL ISZERO DUP1 ISZERO PUSH3 0x791 JUMPI RETURNDATASIZE PUSH1 0x0 DUP1 RETURNDATACOPY RETURNDATASIZE PUSH1 0x0 REVERT JUMPDEST POP POP POP POP PUSH1 0x40 MLOAD RETURNDATASIZE PUSH1 0x1F NOT PUSH1 0x1F DUP3 ADD AND DUP3 ADD DUP1 PUSH1 0x40 MSTORE POP DUP2 ADD SWAP1 PUSH3 0x7B7 SWAP2 SWAP1 PUSH3 0x1898 JUMP JUMPDEST PUSH1 0x4 DUP1 SLOAD PUSH1 0x40 MLOAD PUSH4 0xB6B55F25 PUSH1 0xE0 SHL DUP2 MSTORE SWAP3 SWAP4 POP PUSH1 0x1 PUSH1 0x1 PUSH1 0xA0 SHL SUB AND SWAP2 PUSH4 0xB6B55F25 SWAP2 PUSH3 0x7E9 SWAP2 DUP6 SWAP2 ADD PUSH3 0x1B8C JUMP JUMPDEST PUSH1 0x0 PUSH1 0x40 MLOAD DUP1 DUP4 SUB DUP2 PUSH1 0x0 DUP8 DUP1 EXTCODESIZE ISZERO DUP1 ISZERO PUSH3 0x804 JUMPI PUSH1 0x0 DUP1 REVERT JUMPDEST POP GAS CALL ISZERO DUP1 ISZERO PUSH3 0x819 JUMPI RETURNDATASIZE PUSH1 0x0 DUP1 RETURNDATACOPY RETURNDATASIZE PUSH1 0x0 REVERT JUMPDEST POP POP POP POP POP JUMP JUMPDEST PUSH1 0x5 SLOAD PUSH1 0x1 PUSH1 0x1 PUSH1 0xA0 SHL SUB AND DUP2 JUMP JUMPDEST PUSH1 0x2 SLOAD PUSH1 0x0 SWAP1 PUSH1 0x1 PUSH1 0xA0 SHL SWAP1 DIV PUSH1 0xFF AND ISZERO ISZERO PUSH1 0x1 EQ PUSH3 0x84E JUMPI PUSH1 0x0 DUP1 REVERT JUMPDEST POP PUSH1 0x8 SLOAD TIMESTAMP GT SWAP1 JUMP JUMPDEST PUSH1 0x1 SLOAD PUSH1 0x1 PUSH1 0x1 PUSH1 0xA0 SHL SUB AND DUP2 JUMP JUMPDEST PUSH1 0x1 SLOAD PUSH1 0x40 MLOAD PUSH4 0x70A08231 PUSH1 0xE0 SHL DUP2 MSTORE PUSH1 0x0 SWAP2 DUP3 SWAP2 PUSH1 0x1 PUSH1 0x1 PUSH1 0xA0 SHL SUB SWAP1 SWAP2 AND SWAP1 PUSH4 0x70A08231 SWAP1 PUSH3 0x89D SWAP1 ADDRESS SWAP1 PUSH1 0x4 ADD PUSH3 0x193E JUMP JUMPDEST PUSH1 0x20 PUSH1 0x40 MLOAD DUP1 DUP4 SUB DUP2 DUP7 DUP1 EXTCODESIZE ISZERO DUP1 ISZERO PUSH3 0x8B6 JUMPI PUSH1 0x0 DUP1 REVERT JUMPDEST POP GAS STATICCALL ISZERO DUP1 ISZERO PUSH3 0x8CB JUMPI RETURNDATASIZE PUSH1 0x0 DUP1 RETURNDATACOPY RETURNDATASIZE PUSH1 0x0 REVERT JUMPDEST POP POP POP POP PUSH1 0x40 MLOAD RETURNDATASIZE PUSH1 0x1F NOT PUSH1 0x1F DUP3 ADD AND DUP3 ADD DUP1 PUSH1 0x40 MSTORE POP DUP2 ADD SWAP1 PUSH3 0x8F1 SWAP2 SWAP1 PUSH3 0x1898 JUMP JUMPDEST PUSH1 0xC SLOAD SWAP1 SWAP2 POP PUSH1 0xFF AND ISZERO ISZERO PUSH1 0x1 EQ ISZERO PUSH3 0xA3C JUMPI PUSH1 0x4 DUP1 SLOAD PUSH1 0x40 DUP1 MLOAD PUSH4 0xF5A05D7 PUSH1 0xE2 SHL DUP2 MSTORE SWAP1 MLOAD PUSH1 0x1 PUSH1 0x1 PUSH1 0xA0 SHL SUB SWAP1 SWAP3 AND SWAP3 PUSH2 0x2710 SWAP3 PUSH1 0x0 SWAP3 PUSH3 0xA28 SWAP3 DUP6 SWAP3 PUSH3 0xA21 SWAP3 DUP9 SWAP3 PUSH4 0x3D68175C SWAP3 DUP3 DUP3 ADD SWAP3 PUSH1 0x20 SWAP3 SWAP1 DUP3 SWAP1 SUB ADD DUP2 DUP7 DUP1 EXTCODESIZE ISZERO DUP1 ISZERO PUSH3 0x95D JUMPI PUSH1 0x0 DUP1 REVERT JUMPDEST POP GAS STATICCALL ISZERO DUP1 ISZERO PUSH3 0x972 JUMPI RETURNDATASIZE PUSH1 0x0 DUP1 RETURNDATACOPY RETURNDATASIZE PUSH1 0x0 REVERT JUMPDEST POP POP POP POP PUSH1 0x40 MLOAD RETURNDATASIZE PUSH1 0x1F NOT PUSH1 0x1F DUP3 ADD AND DUP3 ADD DUP1 PUSH1 0x40 MSTORE POP DUP2 ADD SWAP1 PUSH3 0x998 SWAP2 SWAP1 PUSH3 0x1898 JUMP JUMPDEST PUSH1 0x40 MLOAD PUSH4 0x70A08231 PUSH1 0xE0 SHL DUP2 MSTORE PUSH1 0x1 PUSH1 0x1 PUSH1 0xA0 SHL SUB DUP9 AND SWAP1 PUSH4 0x70A08231 SWAP1 PUSH3 0x9C6 SWAP1 ADDRESS SWAP1 PUSH1 0x4 ADD PUSH3 0x193E JUMP JUMPDEST PUSH1 0x20 PUSH1 0x40 MLOAD DUP1 DUP4 SUB DUP2 DUP7 DUP1 EXTCODESIZE ISZERO DUP1 ISZERO PUSH3 0x9DF JUMPI PUSH1 0x0 DUP1 REVERT JUMPDEST POP GAS STATICCALL ISZERO DUP1 ISZERO PUSH3 0x9F4 JUMPI RETURNDATASIZE PUSH1 0x0 DUP1 RETURNDATACOPY RETURNDATASIZE PUSH1 0x0 REVERT JUMPDEST POP POP POP POP PUSH1 0x40 MLOAD RETURNDATASIZE PUSH1 0x1F NOT PUSH1 0x1F DUP3 ADD AND DUP3 ADD DUP1 PUSH1 0x40 MSTORE POP DUP2 ADD SWAP1 PUSH3 0xA1A SWAP2 SWAP1 PUSH3 0x1898 JUMP JUMPDEST SWAP1 PUSH3 0x1252 JUMP JUMPDEST SWAP1 PUSH3 0x1299 JUMP JUMPDEST SWAP1 POP PUSH3 0xA36 DUP5 DUP3 PUSH3 0x12DD JUMP JUMPDEST SWAP4 POP POP POP POP JUMPDEST SWAP1 POP SWAP1 JUMP JUMPDEST PUSH3 0xA4B PUSH3 0x121A JUMP JUMPDEST PUSH1 0x0 SLOAD PUSH1 0x1 PUSH1 0x1 PUSH1 0xA0 SHL SUB SWAP1 DUP2 AND SWAP2 AND EQ PUSH3 0xA7B JUMPI PUSH1 0x40 MLOAD PUSH3 0x461BCD PUSH1 0xE5 SHL DUP2 MSTORE PUSH1 0x4 ADD PUSH3 0x451 SWAP1 PUSH3 0x1B57 JUMP JUMPDEST PUSH3 0xA85 PUSH3 0x82F JUMP JUMPDEST ISZERO ISZERO PUSH1 0x1 EQ PUSH3 0xA94 JUMPI PUSH1 0x0 DUP1 REVERT JUMPDEST PUSH1 0x40 MLOAD PUSH4 0x70A08231 PUSH1 0xE0 SHL DUP2 MSTORE DUP2 SWAP1 PUSH1 0x0 SWAP1 PUSH1 0x1 PUSH1 0x1 PUSH1 0xA0 SHL SUB DUP4 AND SWAP1 PUSH4 0x70A08231 SWAP1 PUSH3 0xAC7 SWAP1 ADDRESS SWAP1 PUSH1 0x4 ADD PUSH3 0x193E JUMP JUMPDEST PUSH1 0x20 PUSH1 0x40 MLOAD DUP1 DUP4 SUB DUP2 DUP7 DUP1 EXTCODESIZE ISZERO DUP1 ISZERO PUSH3 0xAE0 JUMPI PUSH1 0x0 DUP1 REVERT JUMPDEST POP GAS STATICCALL ISZERO DUP1 ISZERO PUSH3 0xAF5 JUMPI RETURNDATASIZE PUSH1 0x0 DUP1 RETURNDATACOPY RETURNDATASIZE PUSH1 0x0 REVERT JUMPDEST POP POP POP POP PUSH1 0x40 MLOAD RETURNDATASIZE PUSH1 0x1F NOT PUSH1 0x1F DUP3 ADD AND DUP3 ADD DUP1 PUSH1 0x40 MSTORE POP DUP2 ADD SWAP1 PUSH3 0xB1B SWAP2 SWAP1 PUSH3 0x1898 JUMP JUMPDEST SWAP1 POP DUP2 PUSH1 0x1 PUSH1 0x1 PUSH1 0xA0 SHL SUB AND PUSH4 0xA9059CBB PUSH3 0xB36 PUSH3 0xDD3 JUMP JUMPDEST DUP4 PUSH1 0x40 MLOAD DUP4 PUSH4 0xFFFFFFFF AND PUSH1 0xE0 SHL DUP2 MSTORE PUSH1 0x4 ADD PUSH3 0xB56 SWAP3 SWAP2 SWAP1 PUSH3 0x19C9 JUMP JUMPDEST PUSH1 0x20 PUSH1 0x40 MLOAD DUP1 DUP4 SUB DUP2 PUSH1 0x0 DUP8 DUP1 EXTCODESIZE ISZERO DUP1 ISZERO PUSH3 0xB71 JUMPI PUSH1 0x0 DUP1 REVERT JUMPDEST POP GAS CALL ISZERO DUP1 ISZERO PUSH3 0xB86 JUMPI RETURNDATASIZE PUSH1 0x0 DUP1 RETURNDATACOPY RETURNDATASIZE PUSH1 0x0 REVERT JUMPDEST POP POP POP POP PUSH1 0x40 MLOAD RETURNDATASIZE PUSH1 0x1F NOT PUSH1 0x1F DUP3 ADD AND DUP3 ADD DUP1 PUSH1 0x40 MSTORE POP DUP2 ADD SWAP1 PUSH3 0x4B3 SWAP2 SWAP1 PUSH3 0x1879 JUMP JUMPDEST PUSH3 0xBB6 PUSH3 0x121A JUMP JUMPDEST PUSH1 0x0 SLOAD PUSH1 0x1 PUSH1 0x1 PUSH1 0xA0 SHL SUB SWAP1 DUP2 AND SWAP2 AND EQ PUSH3 0xBE6 JUMPI PUSH1 0x40 MLOAD PUSH3 0x461BCD PUSH1 0xE5 SHL DUP2 MSTORE PUSH1 0x4 ADD PUSH3 0x451 SWAP1 PUSH3 0x1B57 JUMP JUMPDEST PUSH1 0x0 DUP1 SLOAD PUSH1 0x40 MLOAD PUSH1 0x1 PUSH1 0x1 PUSH1 0xA0 SHL SUB SWAP1 SWAP2 AND SWAP1 PUSH32 0x8BE0079C531659141344CD1FD0A4F28419497F9722A3DAAFE3B4186F6B6457E0 SWAP1 DUP4 SWAP1 LOG3 PUSH1 0x0 DUP1 SLOAD PUSH1 0x1 PUSH1 0x1 PUSH1 0xA0 SHL SUB NOT AND SWAP1 SSTORE JUMP JUMPDEST PUSH1 0x12 SLOAD PUSH1 0x1 PUSH1 0x1 PUSH1 0xA0 SHL SUB AND DUP2 JUMP JUMPDEST PUSH1 0x12 SLOAD PUSH1 0x0 SWAP1 PUSH1 0x1 PUSH1 0x1 PUSH1 0xA0 SHL SUB AND CALLER EQ PUSH3 0xC5A JUMPI PUSH1 0x0 DUP1 REVERT JUMPDEST PUSH1 0xB SLOAD DUP4 GT ISZERO PUSH3 0xC6A JUMPI PUSH1 0x0 DUP1 REVERT JUMPDEST PUSH1 0x2 SLOAD PUSH1 0x1 PUSH1 0xA0 SHL SWAP1 DIV PUSH1 0xFF AND ISZERO ISZERO PUSH1 0x1 EQ PUSH3 0xC86 JUMPI PUSH1 0x0 DUP1 REVERT JUMPDEST PUSH1 0x9 SLOAD TIMESTAMP LT ISZERO PUSH3 0xC96 JUMPI PUSH1 0x0 DUP1 REVERT JUMPDEST PUSH1 0x8 SLOAD TIMESTAMP GT ISZERO PUSH3 0xCA6 JUMPI PUSH1 0x0 DUP1 REVERT JUMPDEST PUSH1 0xB SLOAD PUSH1 0x0 SWAP1 PUSH3 0xCBF SWAP1 PUSH3 0xA21 DUP7 PUSH2 0x2710 PUSH3 0x1252 JUMP JUMPDEST SWAP1 POP PUSH1 0x0 PUSH3 0xCE1 PUSH2 0x2710 PUSH3 0xA21 DUP5 PUSH1 0xA SLOAD PUSH3 0x1252 SWAP1 SWAP2 SWAP1 PUSH4 0xFFFFFFFF AND JUMP JUMPDEST PUSH1 0xC SLOAD SWAP1 SWAP2 POP PUSH1 0xFF AND ISZERO ISZERO PUSH1 0x1 EQ ISZERO PUSH3 0xD00 JUMPI PUSH3 0xD00 DUP6 PUSH3 0x1305 JUMP JUMPDEST PUSH1 0x1 SLOAD PUSH1 0x40 MLOAD PUSH4 0xA9059CBB PUSH1 0xE0 SHL DUP2 MSTORE PUSH1 0x1 PUSH1 0x1 PUSH1 0xA0 SHL SUB SWAP1 SWAP2 AND SWAP1 PUSH4 0xA9059CBB SWAP1 PUSH3 0xD34 SWAP1 DUP8 SWAP1 DUP6 SWAP1 PUSH1 0x4 ADD PUSH3 0x19C9 JUMP JUMPDEST PUSH1 0x20 PUSH1 0x40 MLOAD DUP1 DUP4 SUB DUP2 PUSH1 0x0 DUP8 DUP1 EXTCODESIZE ISZERO DUP1 ISZERO PUSH3 0xD4F JUMPI PUSH1 0x0 DUP1 REVERT JUMPDEST POP GAS CALL ISZERO DUP1 ISZERO PUSH3 0xD64 JUMPI RETURNDATASIZE PUSH1 0x0 DUP1 RETURNDATACOPY RETURNDATASIZE PUSH1 0x0 REVERT JUMPDEST POP POP POP POP PUSH1 0x40 MLOAD RETURNDATASIZE PUSH1 0x1F NOT PUSH1 0x1F DUP3 ADD AND DUP3 ADD DUP1 PUSH1 0x40 MSTORE POP DUP2 ADD SWAP1 PUSH3 0xD8A SWAP2 SWAP1 PUSH3 0x1879 JUMP JUMPDEST POP PUSH1 0xB SLOAD PUSH3 0xD9A SWAP1 DUP7 PUSH3 0x1407 JUMP JUMPDEST PUSH1 0xB SSTORE PUSH1 0xA SLOAD PUSH3 0xDAC SWAP1 DUP3 PUSH3 0x1407 JUMP JUMPDEST PUSH1 0xA SSTORE SWAP2 POP POP JUMPDEST SWAP3 SWAP2 POP POP JUMP JUMPDEST PUSH1 0xC SLOAD PUSH2 0x100 SWAP1 DIV PUSH1 0xFF AND DUP2 JUMP JUMPDEST PUSH1 0xD SLOAD DUP2 JUMP JUMPDEST PUSH1 0xB SLOAD DUP2 JUMP JUMPDEST PUSH1 0x0 SLOAD PUSH1 0x1 PUSH1 0x1 PUSH1 0xA0 SHL SUB AND SWAP1 JUMP JUMPDEST PUSH1 0xE SLOAD DUP2 JUMP JUMPDEST PUSH1 0xC SLOAD PUSH1 0xFF AND DUP2 JUMP JUMPDEST PUSH1 0x3 SLOAD DUP2 JUMP JUMPDEST PUSH1 0x7 SLOAD PUSH1 0x1 PUSH1 0x1 PUSH1 0xA0 SHL SUB AND DUP2 JUMP JUMPDEST PUSH1 0xC SLOAD PUSH1 0xFF PUSH2 0x100 SWAP1 SWAP2 DIV AND ISZERO ISZERO PUSH1 0x1 EQ ISZERO PUSH3 0xE36 JUMPI PUSH3 0xE27 PUSH3 0x82F JUMP JUMPDEST ISZERO ISZERO PUSH1 0x1 EQ PUSH3 0xE36 JUMPI PUSH1 0x0 DUP1 REVERT JUMPDEST PUSH1 0xA SLOAD PUSH3 0xE43 PUSH3 0x866 JUMP JUMPDEST LT ISZERO PUSH3 0xF74 JUMPI PUSH1 0x1 SLOAD PUSH1 0x1 PUSH1 0x1 PUSH1 0xA0 SHL SUB AND PUSH4 0x23B872DD PUSH3 0xE65 PUSH3 0xDD3 JUMP JUMPDEST PUSH1 0x1 SLOAD PUSH1 0x40 MLOAD PUSH4 0x70A08231 PUSH1 0xE0 SHL DUP2 MSTORE ADDRESS SWAP2 PUSH3 0xEFC SWAP2 PUSH1 0x1 PUSH1 0x1 PUSH1 0xA0 SHL SUB SWAP1 SWAP2 AND SWAP1 PUSH4 0x70A08231 SWAP1 PUSH3 0xE9E SWAP1 DUP6 SWAP1 PUSH1 0x4 ADD PUSH3 0x193E JUMP JUMPDEST PUSH1 0x20 PUSH1 0x40 MLOAD DUP1 DUP4 SUB DUP2 DUP7 DUP1 EXTCODESIZE ISZERO DUP1 ISZERO PUSH3 0xEB7 JUMPI PUSH1 0x0 DUP1 REVERT JUMPDEST POP GAS STATICCALL ISZERO DUP1 ISZERO PUSH3 0xECC JUMPI RETURNDATASIZE PUSH1 0x0 DUP1 RETURNDATACOPY RETURNDATASIZE PUSH1 0x0 REVERT JUMPDEST POP POP POP POP PUSH1 0x40 MLOAD RETURNDATASIZE PUSH1 0x1F NOT PUSH1 0x1F DUP3 ADD AND DUP3 ADD DUP1 PUSH1 0x40 MSTORE POP DUP2 ADD SWAP1 PUSH3 0xEF2 SWAP2 SWAP1 PUSH3 0x1898 JUMP JUMPDEST PUSH1 0xA SLOAD SWAP1 PUSH3 0x1407 JUMP JUMPDEST PUSH1 0x40 MLOAD DUP5 PUSH4 0xFFFFFFFF AND PUSH1 0xE0 SHL DUP2 MSTORE PUSH1 0x4 ADD PUSH3 0xF1C SWAP4 SWAP3 SWAP2 SWAP1 PUSH3 0x1952 JUMP JUMPDEST PUSH1 0x20 PUSH1 0x40 MLOAD DUP1 DUP4 SUB DUP2 PUSH1 0x0 DUP8 DUP1 EXTCODESIZE ISZERO DUP1 ISZERO PUSH3 0xF37 JUMPI PUSH1 0x0 DUP1 REVERT JUMPDEST POP GAS CALL ISZERO DUP1 ISZERO PUSH3 0xF4C JUMPI RETURNDATASIZE PUSH1 0x0 DUP1 RETURNDATACOPY RETURNDATASIZE PUSH1 0x0 REVERT JUMPDEST POP POP POP POP PUSH1 0x40 MLOAD RETURNDATASIZE PUSH1 0x1F NOT PUSH1 0x1F DUP3 ADD AND DUP3 ADD DUP1 PUSH1 0x40 MSTORE POP DUP2 ADD SWAP1 PUSH3 0xF72 SWAP2 SWAP1 PUSH3 0x1879 JUMP JUMPDEST POP JUMPDEST PUSH3 0x4B3 DUP5 DUP5 DUP5 DUP5 PUSH3 0x144B JUMP JUMPDEST PUSH3 0xF8C PUSH3 0x121A JUMP JUMPDEST PUSH1 0x0 SLOAD PUSH1 0x1 PUSH1 0x1 PUSH1 0xA0 SHL SUB SWAP1 DUP2 AND SWAP2 AND EQ PUSH3 0xFBC JUMPI PUSH1 0x40 MLOAD PUSH3 0x461BCD PUSH1 0xE5 SHL DUP2 MSTORE PUSH1 0x4 ADD PUSH3 0x451 SWAP1 PUSH3 0x1B57 JUMP JUMPDEST PUSH1 0xD SWAP3 SWAP1 SWAP3 SSTORE PUSH1 0xE SSTORE PUSH1 0x10 SSTORE JUMP JUMPDEST PUSH1 0xA SLOAD DUP2 JUMP JUMPDEST PUSH1 0x2 SLOAD PUSH1 0x40 MLOAD PUSH4 0x70A08231 PUSH1 0xE0 SHL DUP2 MSTORE PUSH1 0x0 SWAP2 DUP3 SWAP2 PUSH1 0x1 PUSH1 0x1 PUSH1 0xA0 SHL SUB SWAP1 SWAP2 AND SWAP1 PUSH4 0x70A08231 SWAP1 PUSH3 0x1007 SWAP1 ADDRESS SWAP1 PUSH1 0x4 ADD PUSH3 0x193E JUMP JUMPDEST PUSH1 0x20 PUSH1 0x40 MLOAD DUP1 DUP4 SUB DUP2 DUP7 DUP1 EXTCODESIZE ISZERO DUP1 ISZERO PUSH3 0x1020 JUMPI PUSH1 0x0 DUP1 REVERT JUMPDEST POP GAS STATICCALL ISZERO DUP1 ISZERO PUSH3 0x1035 JUMPI RETURNDATASIZE PUSH1 0x0 DUP1 RETURNDATACOPY RETURNDATASIZE PUSH1 0x0 REVERT JUMPDEST POP POP POP POP PUSH1 0x40 MLOAD RETURNDATASIZE PUSH1 0x1F NOT PUSH1 0x1F DUP3 ADD AND DUP3 ADD DUP1 PUSH1 0x40 MSTORE POP DUP2 ADD SWAP1 PUSH3 0x105B SWAP2 SWAP1 PUSH3 0x1898 JUMP JUMPDEST SWAP2 POP POP SWAP1 JUMP JUMPDEST PUSH1 0x6 SLOAD DUP2 JUMP JUMPDEST PUSH3 0x1071 PUSH3 0x121A JUMP JUMPDEST PUSH1 0x0 SLOAD PUSH1 0x1 PUSH1 0x1 PUSH1 0xA0 SHL SUB SWAP1 DUP2 AND SWAP2 AND EQ PUSH3 0x10A1 JUMPI PUSH1 0x40 MLOAD PUSH3 0x461BCD PUSH1 0xE5 SHL DUP2 MSTORE PUSH1 0x4 ADD PUSH3 0x451 SWAP1 PUSH3 0x1B57 JUMP JUMPDEST PUSH1 0x1 PUSH1 0x1 PUSH1 0xA0 SHL SUB DUP2 AND PUSH3 0x10CA JUMPI PUSH1 0x40 MLOAD PUSH3 0x461BCD PUSH1 0xE5 SHL DUP2 MSTORE PUSH1 0x4 ADD PUSH3 0x451 SWAP1 PUSH3 0x1A43 JUMP JUMPDEST PUSH1 0x0 DUP1 SLOAD PUSH1 0x40 MLOAD PUSH1 0x1 PUSH1 0x1 PUSH1 0xA0 SHL SUB DUP1 DUP6 AND SWAP4 SWAP3 AND SWAP2 PUSH32 0x8BE0079C531659141344CD1FD0A4F28419497F9722A3DAAFE3B4186F6B6457E0 SWAP2 LOG3 PUSH1 0x0 DUP1 SLOAD PUSH1 0x1 PUSH1 0x1 PUSH1 0xA0 SHL SUB NOT AND PUSH1 0x1 PUSH1 0x1 PUSH1 0xA0 SHL SUB SWAP3 SWAP1 SWAP3 AND SWAP2 SWAP1 SWAP2 OR SWAP1 SSTORE JUMP JUMPDEST PUSH1 0x11 SLOAD DUP2 JUMP JUMPDEST PUSH3 0x1135 PUSH3 0x121A JUMP JUMPDEST PUSH1 0x0 SLOAD PUSH1 0x1 PUSH1 0x1 PUSH1 0xA0 SHL SUB SWAP1 DUP2 AND SWAP2 AND EQ PUSH3 0x1165 JUMPI PUSH1 0x40 MLOAD PUSH3 0x461BCD PUSH1 0xE5 SHL DUP2 MSTORE PUSH1 0x4 ADD PUSH3 0x451 SWAP1 PUSH3 0x1B57 JUMP JUMPDEST PUSH1 0x4 DUP1 SLOAD PUSH1 0x1 PUSH1 0x1 PUSH1 0xA0 SHL SUB NOT AND PUSH1 0x1 PUSH1 0x1 PUSH1 0xA0 SHL SUB DUP5 DUP2 AND SWAP2 SWAP1 SWAP2 OR DUP1 DUP4 SSTORE PUSH1 0xC DUP1 SLOAD PUSH1 0xFF NOT AND DUP6 ISZERO ISZERO OR SWAP1 SSTORE PUSH1 0x1 SLOAD PUSH1 0x40 MLOAD PUSH4 0x95EA7B3 PUSH1 0xE0 SHL DUP2 MSTORE SWAP1 DUP4 AND SWAP4 PUSH4 0x95EA7B3 SWAP4 PUSH3 0x11BF SWAP4 AND SWAP2 PUSH1 0x0 NOT SWAP2 ADD PUSH3 0x19C9 JUMP JUMPDEST PUSH1 0x20 PUSH1 0x40 MLOAD DUP1 DUP4 SUB DUP2 PUSH1 0x0 DUP8 DUP1 EXTCODESIZE ISZERO DUP1 ISZERO PUSH3 0x11DA JUMPI PUSH1 0x0 DUP1 REVERT JUMPDEST POP GAS CALL ISZERO DUP1 ISZERO PUSH3 0x11EF JUMPI RETURNDATASIZE PUSH1 0x0 DUP1 RETURNDATACOPY RETURNDATASIZE PUSH1 0x0 REVERT JUMPDEST POP POP POP POP PUSH1 0x40 MLOAD RETURNDATASIZE PUSH1 0x1F NOT PUSH1 0x1F DUP3 ADD AND DUP3 ADD DUP1 PUSH1 0x40 MSTORE POP DUP2 ADD SWAP1 PUSH3 0x1215 SWAP2 SWAP1 PUSH3 0x1879 JUMP JUMPDEST POP POP POP JUMP JUMPDEST CALLER SWAP1 JUMP JUMPDEST PUSH1 0x4 DUP1 SLOAD PUSH1 0x40 MLOAD PUSH4 0x70A08231 PUSH1 0xE0 SHL DUP2 MSTORE PUSH1 0x0 SWAP3 DUP4 SWAP3 PUSH1 0x1 PUSH1 0x1 PUSH1 0xA0 SHL SUB AND SWAP2 PUSH4 0x70A08231 SWAP2 PUSH3 0x1007 SWAP2 ADDRESS SWAP2 ADD PUSH3 0x193E JUMP JUMPDEST PUSH1 0x0 DUP3 PUSH3 0x1263 JUMPI POP PUSH1 0x0 PUSH3 0xDB3 JUMP JUMPDEST DUP3 DUP3 MUL DUP3 DUP5 DUP3 DUP2 PUSH3 0x1271 JUMPI INVALID JUMPDEST DIV EQ PUSH3 0x1292 JUMPI PUSH1 0x40 MLOAD PUSH3 0x461BCD PUSH1 0xE5 SHL DUP2 MSTORE PUSH1 0x4 ADD PUSH3 0x451 SWAP1 PUSH3 0x1B16 JUMP JUMPDEST SWAP4 SWAP3 POP POP POP JUMP JUMPDEST PUSH1 0x0 PUSH3 0x1292 DUP4 DUP4 PUSH1 0x40 MLOAD DUP1 PUSH1 0x40 ADD PUSH1 0x40 MSTORE DUP1 PUSH1 0x1A DUP2 MSTORE PUSH1 0x20 ADD PUSH32 0x536166654D6174683A206469766973696F6E206279207A65726F000000000000 DUP2 MSTORE POP PUSH3 0x16ED JUMP JUMPDEST PUSH1 0x0 DUP3 DUP3 ADD DUP4 DUP2 LT ISZERO PUSH3 0x1292 JUMPI PUSH1 0x40 MLOAD PUSH3 0x461BCD PUSH1 0xE5 SHL DUP2 MSTORE PUSH1 0x4 ADD PUSH3 0x451 SWAP1 PUSH3 0x1ADF JUMP JUMPDEST PUSH1 0x4 DUP1 SLOAD PUSH1 0x40 DUP1 MLOAD PUSH4 0xF5A05D7 PUSH1 0xE2 SHL DUP2 MSTORE SWAP1 MLOAD PUSH2 0x3E8 SWAP4 PUSH1 0x0 SWAP4 PUSH3 0x139C SWAP4 PUSH1 0x1 PUSH1 0x1 PUSH1 0xA0 SHL SUB SWAP1 SWAP2 AND SWAP3 PUSH4 0x3D68175C SWAP3 DUP3 DUP2 ADD SWAP3 PUSH1 0x20 SWAP3 SWAP2 SWAP1 DUP3 SWAP1 SUB ADD DUP2 DUP7 DUP1 EXTCODESIZE ISZERO DUP1 ISZERO PUSH3 0x1355 JUMPI PUSH1 0x0 DUP1 REVERT JUMPDEST POP GAS STATICCALL ISZERO DUP1 ISZERO PUSH3 0x136A JUMPI RETURNDATASIZE PUSH1 0x0 DUP1 RETURNDATACOPY RETURNDATASIZE PUSH1 0x0 REVERT JUMPDEST POP POP POP POP PUSH1 0x40 MLOAD RETURNDATASIZE PUSH1 0x1F NOT PUSH1 0x1F DUP3 ADD AND DUP3 ADD DUP1 PUSH1 0x40 MSTORE POP DUP2 ADD SWAP1 PUSH3 0x1390 SWAP2 SWAP1 PUSH3 0x1898 JUMP JUMPDEST PUSH3 0xA21 DUP6 DUP6 PUSH3 0x1252 JUMP JUMPDEST PUSH1 0x4 DUP1 SLOAD PUSH1 0x40 MLOAD PUSH4 0x2E1A7D4D PUSH1 0xE0 SHL DUP2 MSTORE SWAP3 SWAP4 POP PUSH1 0x1 PUSH1 0x1 PUSH1 0xA0 SHL SUB AND SWAP2 PUSH4 0x2E1A7D4D SWAP2 PUSH3 0x13CE SWAP2 DUP6 SWAP2 ADD PUSH3 0x1B8C JUMP JUMPDEST PUSH1 0x0 PUSH1 0x40 MLOAD DUP1 DUP4 SUB DUP2 PUSH1 0x0 DUP8 DUP1 EXTCODESIZE ISZERO DUP1 ISZERO PUSH3 0x13E9 JUMPI PUSH1 0x0 DUP1 REVERT JUMPDEST POP GAS CALL ISZERO DUP1 ISZERO PUSH3 0x13FE JUMPI RETURNDATASIZE PUSH1 0x0 DUP1 RETURNDATACOPY RETURNDATASIZE PUSH1 0x0 REVERT JUMPDEST POP POP POP POP POP POP POP JUMP JUMPDEST PUSH1 0x0 PUSH3 0x1292 DUP4 DUP4 PUSH1 0x40 MLOAD DUP1 PUSH1 0x40 ADD PUSH1 0x40 MSTORE DUP1 PUSH1 0x1E DUP2 MSTORE PUSH1 0x20 ADD PUSH32 0x536166654D6174683A207375627472616374696F6E206F766572666C6F770000 DUP2 MSTORE POP PUSH3 0x1728 JUMP JUMPDEST PUSH1 0xA DUP4 SWAP1 SSTORE PUSH1 0xB DUP5 SWAP1 SSTORE DUP3 PUSH3 0x1460 PUSH3 0x866 JUMP JUMPDEST LT ISZERO PUSH3 0x146C JUMPI PUSH1 0x0 DUP1 REVERT JUMPDEST PUSH1 0xC SLOAD PUSH1 0xFF PUSH2 0x100 SWAP1 SWAP2 DIV AND ISZERO ISZERO PUSH1 0x1 EQ ISZERO PUSH3 0x149C JUMPI PUSH3 0x148D PUSH3 0x82F JUMP JUMPDEST ISZERO ISZERO PUSH1 0x1 EQ PUSH3 0x149C JUMPI PUSH1 0x0 DUP1 REVERT JUMPDEST PUSH1 0xF SLOAD PUSH1 0x8 SLOAD PUSH3 0x14AD SWAP2 PUSH3 0x1407 JUMP JUMPDEST PUSH1 0x9 SSTORE PUSH1 0xE SLOAD PUSH3 0x14C0 SWAP1 TIMESTAMP SWAP1 PUSH3 0x12DD JUMP JUMPDEST PUSH1 0x8 SSTORE PUSH1 0x6 SLOAD PUSH1 0x40 MLOAD PUSH1 0x0 SWAP2 ADDRESS SWAP2 PUSH3 0x14D9 SWAP1 PUSH3 0x17F9 JUMP JUMPDEST PUSH3 0x14E6 SWAP3 SWAP2 SWAP1 PUSH3 0x1A89 JUMP JUMPDEST PUSH1 0x40 MLOAD DUP1 SWAP2 SUB SWAP1 PUSH1 0x0 CREATE DUP1 ISZERO DUP1 ISZERO PUSH3 0x1503 JUMPI RETURNDATASIZE PUSH1 0x0 DUP1 RETURNDATACOPY RETURNDATASIZE PUSH1 0x0 REVERT JUMPDEST POP SWAP1 POP DUP1 PUSH1 0x5 PUSH1 0x0 PUSH2 0x100 EXP DUP2 SLOAD DUP2 PUSH1 0x1 PUSH1 0x1 PUSH1 0xA0 SHL SUB MUL NOT AND SWAP1 DUP4 PUSH1 0x1 PUSH1 0x1 PUSH1 0xA0 SHL SUB AND MUL OR SWAP1 SSTORE POP DUP1 PUSH1 0x1 PUSH1 0x1 PUSH1 0xA0 SHL SUB AND PUSH4 0xE68F6311 PUSH1 0x40 MLOAD DUP2 PUSH4 0xFFFFFFFF AND PUSH1 0xE0 SHL DUP2 MSTORE PUSH1 0x4 ADD PUSH1 0x0 PUSH1 0x40 MLOAD DUP1 DUP4 SUB DUP2 PUSH1 0x0 DUP8 DUP1 EXTCODESIZE ISZERO DUP1 ISZERO PUSH3 0x1569 JUMPI PUSH1 0x0 DUP1 REVERT JUMPDEST POP GAS CALL ISZERO DUP1 ISZERO PUSH3 0x157E JUMPI RETURNDATASIZE PUSH1 0x0 DUP1 RETURNDATACOPY RETURNDATASIZE PUSH1 0x0 REVERT JUMPDEST POP POP PUSH1 0x5 SLOAD PUSH1 0x12 DUP1 SLOAD PUSH1 0x1 PUSH1 0x1 PUSH1 0xA0 SHL SUB NOT AND PUSH1 0x1 PUSH1 0x1 PUSH1 0xA0 SHL SUB SWAP3 DUP4 AND SWAP1 DUP2 OR SWAP1 SWAP2 SSTORE PUSH1 0xC DUP1 SLOAD PUSH2 0xFF00 NOT AND PUSH2 0x100 OR SWAP1 SSTORE PUSH1 0x2 DUP1 SLOAD PUSH1 0xFF PUSH1 0xA0 SHL NOT AND PUSH1 0x1 PUSH1 0xA0 SHL OR SWAP1 SSTORE PUSH1 0x7 SLOAD PUSH1 0x40 MLOAD PUSH4 0x95EA7B3 PUSH1 0xE0 SHL DUP2 MSTORE SWAP2 SWAP5 POP DUP5 SWAP4 POP PUSH4 0x95EA7B3 SWAP3 PUSH3 0x15F3 SWAP3 SWAP2 AND SWAP1 DUP11 SWAP1 PUSH1 0x4 ADD PUSH3 0x19C9 JUMP JUMPDEST PUSH1 0x20 PUSH1 0x40 MLOAD DUP1 DUP4 SUB DUP2 PUSH1 0x0 DUP8 DUP1 EXTCODESIZE ISZERO DUP1 ISZERO PUSH3 0x160E JUMPI PUSH1 0x0 DUP1 REVERT JUMPDEST POP GAS CALL ISZERO DUP1 ISZERO PUSH3 0x1623 JUMPI RETURNDATASIZE PUSH1 0x0 DUP1 RETURNDATACOPY RETURNDATASIZE PUSH1 0x0 REVERT JUMPDEST POP POP POP POP PUSH1 0x40 MLOAD RETURNDATASIZE PUSH1 0x1F NOT PUSH1 0x1F DUP3 ADD AND DUP3 ADD DUP1 PUSH1 0x40 MSTORE POP DUP2 ADD SWAP1 PUSH3 0x1649 SWAP2 SWAP1 PUSH3 0x1879 JUMP JUMPDEST POP PUSH1 0x5 SLOAD PUSH1 0x2 SLOAD PUSH1 0x40 DUP1 MLOAD PUSH4 0x18160DDD PUSH1 0xE0 SHL DUP2 MSTORE SWAP1 MLOAD PUSH3 0x16E5 SWAP4 PUSH1 0x1 PUSH1 0x1 PUSH1 0xA0 SHL SUB SWAP1 DUP2 AND SWAP4 DUP2 AND SWAP3 SWAP1 DUP7 AND SWAP2 PUSH4 0x18160DDD SWAP2 PUSH1 0x4 DUP1 DUP3 ADD SWAP3 PUSH1 0x20 SWAP3 SWAP1 SWAP2 SWAP1 DUP3 SWAP1 SUB ADD DUP2 DUP7 DUP1 EXTCODESIZE ISZERO DUP1 ISZERO PUSH3 0x169F JUMPI PUSH1 0x0 DUP1 REVERT JUMPDEST POP GAS STATICCALL ISZERO DUP1 ISZERO PUSH3 0x16B4 JUMPI RETURNDATASIZE PUSH1 0x0 DUP1 RETURNDATACOPY RETURNDATASIZE PUSH1 0x0 REVERT JUMPDEST POP POP POP POP PUSH1 0x40 MLOAD RETURNDATASIZE PUSH1 0x1F NOT PUSH1 0x1F DUP3 ADD AND DUP3 ADD DUP1 PUSH1 0x40 MSTORE POP DUP2 ADD SWAP1 PUSH3 0x16DA SWAP2 SWAP1 PUSH3 0x1898 JUMP JUMPDEST DUP8 PUSH1 0x0 DUP10 DUP10 PUSH3 0x1757 JUMP JUMPDEST POP POP POP POP POP POP JUMP JUMPDEST PUSH1 0x0 DUP2 DUP4 PUSH3 0x1711 JUMPI PUSH1 0x40 MLOAD PUSH3 0x461BCD PUSH1 0xE5 SHL DUP2 MSTORE PUSH1 0x4 ADD PUSH3 0x451 SWAP2 SWAP1 PUSH3 0x19ED JUMP JUMPDEST POP PUSH1 0x0 DUP4 DUP6 DUP2 PUSH3 0x171E JUMPI INVALID JUMPDEST DIV SWAP6 SWAP5 POP POP POP POP POP JUMP JUMPDEST PUSH1 0x0 DUP2 DUP5 DUP5 GT ISZERO PUSH3 0x174F JUMPI PUSH1 0x40 MLOAD PUSH3 0x461BCD PUSH1 0xE5 SHL DUP2 MSTORE PUSH1 0x4 ADD PUSH3 0x451 SWAP2 SWAP1 PUSH3 0x19ED JUMP JUMPDEST POP POP POP SWAP1 SUB SWAP1 JUMP JUMPDEST PUSH1 0x7 SLOAD PUSH1 0x40 MLOAD PUSH4 0x1D64539 PUSH1 0xE1 SHL DUP2 MSTORE PUSH1 0x1 PUSH1 0x1 PUSH1 0xA0 SHL SUB SWAP1 SWAP2 AND SWAP1 PUSH4 0x3AC8A72 SWAP1 PUSH3 0x1799 SWAP1 DUP11 SWAP1 DUP11 SWAP1 ADDRESS SWAP1 DUP2 SWAP1 DUP13 SWAP1 DUP13 SWAP1 DUP13 SWAP1 DUP13 SWAP1 DUP13 SWAP1 PUSH1 0x4 ADD PUSH3 0x1976 JUMP JUMPDEST PUSH1 0x20 PUSH1 0x40 MLOAD DUP1 DUP4 SUB DUP2 PUSH1 0x0 DUP8 DUP1 EXTCODESIZE ISZERO DUP1 ISZERO PUSH3 0x17B4 JUMPI PUSH1 0x0 DUP1 REVERT JUMPDEST POP GAS CALL ISZERO DUP1 ISZERO PUSH3 0x17C9 JUMPI RETURNDATASIZE PUSH1 0x0 DUP1 RETURNDATACOPY RETURNDATASIZE PUSH1 0x0 REVERT JUMPDEST POP POP POP POP PUSH1 0x40 MLOAD RETURNDATASIZE PUSH1 0x1F NOT PUSH1 0x1F DUP3 ADD AND DUP3 ADD DUP1 PUSH1 0x40 MSTORE POP DUP2 ADD SWAP1 PUSH3 0x17EF SWAP2 SWAP1 PUSH3 0x1898 JUMP JUMPDEST POP POP POP POP POP POP POP POP JUMP JUMPDEST PUSH2 0x1F34 DUP1 PUSH3 0x1BA5 DUP4 CODECOPY ADD SWAP1 JUMP JUMPDEST DUP1 CALLDATALOAD PUSH1 0x1 PUSH1 0x1 PUSH1 0xA0 SHL SUB DUP2 AND DUP2 EQ PUSH3 0xDB3 JUMPI PUSH1 0x0 DUP1 REVERT JUMPDEST PUSH1 0x0 PUSH1 0x20 DUP3 DUP5 SUB SLT ISZERO PUSH3 0x1831 JUMPI DUP1 DUP2 REVERT JUMPDEST PUSH3 0x1292 DUP4 DUP4 PUSH3 0x1807 JUMP JUMPDEST PUSH1 0x0 DUP1 PUSH1 0x40 DUP4 DUP6 SUB SLT ISZERO PUSH3 0x1850 JUMPI DUP1 DUP2 REVERT JUMPDEST PUSH3 0x185C DUP5 DUP5 PUSH3 0x1807 JUMP JUMPDEST SWAP2 POP PUSH1 0x20 DUP4 ADD CALLDATALOAD PUSH3 0x186E DUP2 PUSH3 0x1B95 JUMP JUMPDEST DUP1 SWAP2 POP POP SWAP3 POP SWAP3 SWAP1 POP JUMP JUMPDEST PUSH1 0x0 PUSH1 0x20 DUP3 DUP5 SUB SLT ISZERO PUSH3 0x188B JUMPI DUP1 DUP2 REVERT JUMPDEST DUP2 MLOAD PUSH3 0x1292 DUP2 PUSH3 0x1B95 JUMP JUMPDEST PUSH1 0x0 PUSH1 0x20 DUP3 DUP5 SUB SLT ISZERO PUSH3 0x18AA JUMPI DUP1 DUP2 REVERT JUMPDEST POP MLOAD SWAP2 SWAP1 POP JUMP JUMPDEST PUSH1 0x0 DUP1 PUSH1 0x40 DUP4 DUP6 SUB SLT ISZERO PUSH3 0x18C4 JUMPI DUP2 DUP3 REVERT JUMPDEST DUP3 CALLDATALOAD SWAP2 POP PUSH3 0x18D7 DUP5 PUSH1 0x20 DUP6 ADD PUSH3 0x1807 JUMP JUMPDEST SWAP1 POP SWAP3 POP SWAP3 SWAP1 POP JUMP JUMPDEST PUSH1 0x0 DUP1 PUSH1 0x0 PUSH1 0x60 DUP5 DUP7 SUB SLT ISZERO PUSH3 0x18F5 JUMPI DUP1 DUP2 REVERT JUMPDEST POP POP DUP2 CALLDATALOAD SWAP4 PUSH1 0x20 DUP4 ADD CALLDATALOAD SWAP4 POP PUSH1 0x40 SWAP1 SWAP3 ADD CALLDATALOAD SWAP2 SWAP1 POP JUMP JUMPDEST PUSH1 0x0 DUP1 PUSH1 0x0 DUP1 PUSH1 0x80 DUP6 DUP8 SUB SLT ISZERO PUSH3 0x1922 JUMPI DUP1 DUP2 REVERT JUMPDEST POP POP DUP3 CALLDATALOAD SWAP5 PUSH1 0x20 DUP5 ADD CALLDATALOAD SWAP5 POP PUSH1 0x40 DUP5 ADD CALLDATALOAD SWAP4 PUSH1 0x60 ADD CALLDATALOAD SWAP3 POP SWAP1 POP JUMP JUMPDEST PUSH1 0x1 PUSH1 0x1 PUSH1 0xA0 SHL SUB SWAP2 SWAP1 SWAP2 AND DUP2 MSTORE PUSH1 0x20 ADD SWAP1 JUMP JUMPDEST PUSH1 0x1 PUSH1 0x1 PUSH1 0xA0 SHL SUB SWAP4 DUP5 AND DUP2 MSTORE SWAP2 SWAP1 SWAP3 AND PUSH1 0x20 DUP3 ADD MSTORE PUSH1 0x40 DUP2 ADD SWAP2 SWAP1 SWAP2 MSTORE PUSH1 0x60 ADD SWAP1 JUMP JUMPDEST PUSH1 0x1 PUSH1 0x1 PUSH1 0xA0 SHL SUB SWAP10 DUP11 AND DUP2 MSTORE SWAP8 DUP10 AND PUSH1 0x20 DUP10 ADD MSTORE SWAP6 DUP9 AND PUSH1 0x40 DUP9 ADD MSTORE SWAP4 SWAP1 SWAP7 AND PUSH1 0x60 DUP7 ADD MSTORE PUSH1 0x80 DUP6 ADD SWAP2 SWAP1 SWAP2 MSTORE PUSH1 0xA0 DUP5 ADD MSTORE PUSH1 0xC0 DUP4 ADD SWAP4 SWAP1 SWAP4 MSTORE PUSH1 0xE0 DUP3 ADD SWAP3 SWAP1 SWAP3 MSTORE PUSH2 0x100 DUP2 ADD SWAP2 SWAP1 SWAP2 MSTORE PUSH2 0x120 ADD SWAP1 JUMP JUMPDEST PUSH1 0x1 PUSH1 0x1 PUSH1 0xA0 SHL SUB SWAP3 SWAP1 SWAP3 AND DUP3 MSTORE PUSH1 0x20 DUP3 ADD MSTORE PUSH1 0x40 ADD SWAP1 JUMP JUMPDEST SWAP1 ISZERO ISZERO DUP2 MSTORE PUSH1 0x20 ADD SWAP1 JUMP JUMPDEST PUSH1 0x0 PUSH1 0x20 DUP1 DUP4 MSTORE DUP4 MLOAD DUP1 DUP3 DUP6 ADD MSTORE DUP3 JUMPDEST DUP2 DUP2 LT ISZERO PUSH3 0x1A1B JUMPI DUP6 DUP2 ADD DUP4 ADD MLOAD DUP6 DUP3 ADD PUSH1 0x40 ADD MSTORE DUP3 ADD PUSH3 0x19FD JUMP JUMPDEST DUP2 DUP2 GT ISZERO PUSH3 0x1A2D JUMPI DUP4 PUSH1 0x40 DUP4 DUP8 ADD ADD MSTORE JUMPDEST POP PUSH1 0x1F ADD PUSH1 0x1F NOT AND SWAP3 SWAP1 SWAP3 ADD PUSH1 0x40 ADD SWAP4 SWAP3 POP POP POP JUMP JUMPDEST PUSH1 0x20 DUP1 DUP3 MSTORE PUSH1 0x26 SWAP1 DUP3 ADD MSTORE PUSH32 0x4F776E61626C653A206E6577206F776E657220697320746865207A65726F2061 PUSH1 0x40 DUP3 ADD MSTORE PUSH6 0x646472657373 PUSH1 0xD0 SHL PUSH1 0x60 DUP3 ADD MSTORE PUSH1 0x80 ADD SWAP1 JUMP JUMPDEST PUSH1 0x80 DUP1 DUP3 MSTORE PUSH1 0xA SWAP1 DUP3 ADD MSTORE PUSH10 0x13DC1D1A5BDB951154D5 PUSH1 0xB2 SHL PUSH1 0xA0 DUP3 ADD MSTORE PUSH1 0xC0 PUSH1 0x20 DUP3 ADD DUP2 SWAP1 MSTORE PUSH1 0x3 SWAP1 DUP3 ADD MSTORE PUSH3 0x13D415 PUSH1 0xEA SHL PUSH1 0xE0 DUP3 ADD MSTORE PUSH1 0x1 PUSH1 0x1 PUSH1 0xA0 SHL SUB SWAP3 SWAP1 SWAP3 AND PUSH1 0x40 DUP4 ADD MSTORE PUSH1 0x60 DUP3 ADD MSTORE PUSH2 0x100 ADD SWAP1 JUMP JUMPDEST PUSH1 0x20 DUP1 DUP3 MSTORE PUSH1 0x1B SWAP1 DUP3 ADD MSTORE PUSH32 0x536166654D6174683A206164646974696F6E206F766572666C6F770000000000 PUSH1 0x40 DUP3 ADD MSTORE PUSH1 0x60 ADD SWAP1 JUMP JUMPDEST PUSH1 0x20 DUP1 DUP3 MSTORE PUSH1 0x21 SWAP1 DUP3 ADD MSTORE PUSH32 0x536166654D6174683A206D756C7469706C69636174696F6E206F766572666C6F PUSH1 0x40 DUP3 ADD MSTORE PUSH1 0x77 PUSH1 0xF8 SHL PUSH1 0x60 DUP3 ADD MSTORE PUSH1 0x80 ADD SWAP1 JUMP JUMPDEST PUSH1 0x20 DUP1 DUP3 MSTORE DUP2 DUP2 ADD MSTORE PUSH32 0x4F776E61626C653A2063616C6C6572206973206E6F7420746865206F776E6572 PUSH1 0x40 DUP3 ADD MSTORE PUSH1 0x60 ADD SWAP1 JUMP JUMPDEST SWAP1 DUP2 MSTORE PUSH1 0x20 ADD SWAP1 JUMP JUMPDEST DUP1 ISZERO ISZERO DUP2 EQ PUSH3 0x6AD JUMPI PUSH1 0x0 DUP1 REVERT INVALID PUSH1 0x80 PUSH1 0x40 MSTORE CALLVALUE DUP1 ISZERO PUSH3 0x11 JUMPI PUSH1 0x0 DUP1 REVERT JUMPDEST POP PUSH1 0x40 MLOAD PUSH3 0x1F34 CODESIZE SUB DUP1 PUSH3 0x1F34 DUP4 CODECOPY DUP2 ADD PUSH1 0x40 DUP2 SWAP1 MSTORE PUSH3 0x34 SWAP2 PUSH3 0x4A9 JUMP JUMPDEST DUP4 MLOAD DUP5 SWAP1 DUP5 SWAP1 PUSH3 0x4D SWAP1 PUSH1 0x3 SWAP1 PUSH1 0x20 DUP6 ADD SWAP1 PUSH3 0x340 JUMP JUMPDEST POP DUP1 MLOAD PUSH3 0x63 SWAP1 PUSH1 0x4 SWAP1 PUSH1 0x20 DUP5 ADD SWAP1 PUSH3 0x340 JUMP JUMPDEST POP POP PUSH1 0x5 DUP1 SLOAD PUSH1 0xFF NOT AND PUSH1 0x12 OR SWAP1 SSTORE POP PUSH1 0x1 PUSH1 0x6 SSTORE PUSH1 0x0 PUSH3 0x84 PUSH3 0x33C JUMP JUMPDEST PUSH1 0x7 DUP1 SLOAD PUSH1 0x1 PUSH1 0x1 PUSH1 0xA0 SHL SUB NOT AND PUSH1 0x1 PUSH1 0x1 PUSH1 0xA0 SHL SUB DUP4 AND SWAP1 DUP2 OR SWAP1 SWAP2 SSTORE PUSH1 0x40 MLOAD SWAP2 SWAP3 POP SWAP1 PUSH1 0x0 SWAP1 PUSH32 0x8BE0079C531659141344CD1FD0A4F28419497F9722A3DAAFE3B4186F6B6457E0 SWAP1 DUP3 SWAP1 LOG3 POP PUSH1 0x8 DUP1 SLOAD PUSH1 0x1 PUSH1 0x1 PUSH1 0xA0 SHL SUB NOT AND PUSH1 0x1 PUSH1 0x1 PUSH1 0xA0 SHL SUB DUP5 DUP2 AND SWAP2 SWAP1 SWAP2 OR SWAP2 DUP3 SWAP1 SSTORE PUSH1 0x40 DUP1 MLOAD PUSH4 0x5001F3B5 PUSH1 0xE0 SHL DUP2 MSTORE SWAP1 MLOAD SWAP3 SWAP1 SWAP2 AND SWAP2 PUSH4 0x5001F3B5 SWAP2 PUSH1 0x4 DUP1 DUP3 ADD SWAP3 PUSH1 0x20 SWAP3 SWAP1 SWAP2 SWAP1 DUP3 SWAP1 SUB ADD DUP2 DUP7 DUP1 EXTCODESIZE ISZERO DUP1 ISZERO PUSH3 0x12F JUMPI PUSH1 0x0 DUP1 REVERT JUMPDEST POP GAS STATICCALL ISZERO DUP1 ISZERO PUSH3 0x144 JUMPI RETURNDATASIZE PUSH1 0x0 DUP1 RETURNDATACOPY RETURNDATASIZE PUSH1 0x0 REVERT JUMPDEST POP POP POP POP PUSH1 0x40 MLOAD RETURNDATASIZE PUSH1 0x1F NOT PUSH1 0x1F DUP3 ADD AND DUP3 ADD DUP1 PUSH1 0x40 MSTORE POP DUP2 ADD SWAP1 PUSH3 0x16A SWAP2 SWAP1 PUSH3 0x483 JUMP JUMPDEST PUSH1 0xB DUP1 SLOAD PUSH1 0x1 PUSH1 0x1 PUSH1 0xA0 SHL SUB NOT AND PUSH1 0x1 PUSH1 0x1 PUSH1 0xA0 SHL SUB SWAP3 DUP4 AND OR SWAP1 SSTORE PUSH1 0x8 SLOAD PUSH1 0x40 DUP1 MLOAD PUSH4 0x38BEA4CB PUSH1 0xE0 SHL DUP2 MSTORE SWAP1 MLOAD SWAP2 SWAP1 SWAP3 AND SWAP2 PUSH4 0x38BEA4CB SWAP2 PUSH1 0x4 DUP1 DUP4 ADD SWAP3 PUSH1 0x20 SWAP3 SWAP2 SWAP1 DUP3 SWAP1 SUB ADD DUP2 DUP7 DUP1 EXTCODESIZE ISZERO DUP1 ISZERO PUSH3 0x1C4 JUMPI PUSH1 0x0 DUP1 REVERT JUMPDEST POP GAS STATICCALL ISZERO DUP1 ISZERO PUSH3 0x1D9 JUMPI RETURNDATASIZE PUSH1 0x0 DUP1 RETURNDATACOPY RETURNDATASIZE PUSH1 0x0 REVERT JUMPDEST POP POP POP POP PUSH1 0x40 MLOAD RETURNDATASIZE PUSH1 0x1F NOT PUSH1 0x1F DUP3 ADD AND DUP3 ADD DUP1 PUSH1 0x40 MSTORE POP DUP2 ADD SWAP1 PUSH3 0x1FF SWAP2 SWAP1 PUSH3 0x483 JUMP JUMPDEST PUSH1 0xC DUP1 SLOAD PUSH1 0x1 PUSH1 0x1 PUSH1 0xA0 SHL SUB NOT AND PUSH1 0x1 PUSH1 0x1 PUSH1 0xA0 SHL SUB SWAP3 DUP4 AND OR SWAP1 SSTORE PUSH1 0x8 SLOAD PUSH1 0x40 DUP1 MLOAD PUSH4 0xC2F99E75 PUSH1 0xE0 SHL DUP2 MSTORE SWAP1 MLOAD SWAP2 SWAP1 SWAP3 AND SWAP2 PUSH4 0xC2F99E75 SWAP2 PUSH1 0x4 DUP1 DUP4 ADD SWAP3 PUSH1 0x20 SWAP3 SWAP2 SWAP1 DUP3 SWAP1 SUB ADD DUP2 DUP7 DUP1 EXTCODESIZE ISZERO DUP1 ISZERO PUSH3 0x259 JUMPI PUSH1 0x0 DUP1 REVERT JUMPDEST POP GAS STATICCALL ISZERO DUP1 ISZERO PUSH3 0x26E JUMPI RETURNDATASIZE PUSH1 0x0 DUP1 RETURNDATACOPY RETURNDATASIZE PUSH1 0x0 REVERT JUMPDEST POP POP POP POP PUSH1 0x40 MLOAD RETURNDATASIZE PUSH1 0x1F NOT PUSH1 0x1F DUP3 ADD AND DUP3 ADD DUP1 PUSH1 0x40 MSTORE POP DUP2 ADD SWAP1 PUSH3 0x294 SWAP2 SWAP1 PUSH3 0x52C JUMP JUMPDEST PUSH1 0xE SSTORE PUSH1 0x8 SLOAD PUSH1 0x40 DUP1 MLOAD PUSH4 0x43AECA69 PUSH1 0xE1 SHL DUP2 MSTORE SWAP1 MLOAD PUSH1 0x1 PUSH1 0x1 PUSH1 0xA0 SHL SUB SWAP1 SWAP3 AND SWAP2 PUSH4 0x875D94D2 SWAP2 PUSH1 0x4 DUP1 DUP3 ADD SWAP3 PUSH1 0x20 SWAP3 SWAP1 SWAP2 SWAP1 DUP3 SWAP1 SUB ADD DUP2 DUP7 DUP1 EXTCODESIZE ISZERO DUP1 ISZERO PUSH3 0x2DD JUMPI PUSH1 0x0 DUP1 REVERT JUMPDEST POP GAS STATICCALL ISZERO DUP1 ISZERO PUSH3 0x2F2 JUMPI RETURNDATASIZE PUSH1 0x0 DUP1 RETURNDATACOPY RETURNDATASIZE PUSH1 0x0 REVERT JUMPDEST POP POP POP POP PUSH1 0x40 MLOAD RETURNDATASIZE PUSH1 0x1F NOT PUSH1 0x1F DUP3 ADD AND DUP3 ADD DUP1 PUSH1 0x40 MSTORE POP DUP2 ADD SWAP1 PUSH3 0x318 SWAP2 SWAP1 PUSH3 0x52C JUMP JUMPDEST PUSH1 0x9 DUP2 SWAP1 SSTORE DUP2 GT ISZERO PUSH3 0x32A JUMPI PUSH1 0x0 DUP1 REVERT JUMPDEST PUSH1 0x0 PUSH1 0xF SSTORE PUSH1 0xA SSTORE POP PUSH3 0x55E SWAP2 POP POP JUMP JUMPDEST CALLER SWAP1 JUMP JUMPDEST DUP3 DUP1 SLOAD PUSH1 0x1 DUP2 PUSH1 0x1 AND ISZERO PUSH2 0x100 MUL SUB AND PUSH1 0x2 SWAP1 DIV SWAP1 PUSH1 0x0 MSTORE PUSH1 0x20 PUSH1 0x0 KECCAK256 SWAP1 PUSH1 0x1F ADD PUSH1 0x20 SWAP1 DIV DUP2 ADD SWAP3 DUP3 PUSH1 0x1F LT PUSH3 0x383 JUMPI DUP1 MLOAD PUSH1 0xFF NOT AND DUP4 DUP1 ADD OR DUP6 SSTORE PUSH3 0x3B3 JUMP JUMPDEST DUP3 DUP1 ADD PUSH1 0x1 ADD DUP6 SSTORE DUP3 ISZERO PUSH3 0x3B3 JUMPI SWAP2 DUP3 ADD JUMPDEST DUP3 DUP2 GT ISZERO PUSH3 0x3B3 JUMPI DUP3 MLOAD DUP3 SSTORE SWAP2 PUSH1 0x20 ADD SWAP2 SWAP1 PUSH1 0x1 ADD SWAP1 PUSH3 0x396 JUMP JUMPDEST POP PUSH3 0x3C1 SWAP3 SWAP2 POP PUSH3 0x3C5 JUMP JUMPDEST POP SWAP1 JUMP JUMPDEST JUMPDEST DUP1 DUP3 GT ISZERO PUSH3 0x3C1 JUMPI PUSH1 0x0 DUP2 SSTORE PUSH1 0x1 ADD PUSH3 0x3C6 JUMP JUMPDEST PUSH1 0x0 DUP3 PUSH1 0x1F DUP4 ADD SLT PUSH3 0x3ED JUMPI DUP1 DUP2 REVERT JUMPDEST DUP2 MLOAD PUSH1 0x1 PUSH1 0x1 PUSH1 0x40 SHL SUB DUP1 DUP3 GT ISZERO PUSH3 0x404 JUMPI DUP3 DUP4 REVERT JUMPDEST PUSH1 0x40 MLOAD PUSH1 0x20 PUSH1 0x1F DUP5 ADD PUSH1 0x1F NOT AND DUP3 ADD DUP2 ADD DUP4 DUP2 GT DUP4 DUP3 LT OR ISZERO PUSH3 0x426 JUMPI DUP6 DUP7 REVERT JUMPDEST DUP1 PUSH1 0x40 MSTORE POP DUP2 SWAP5 POP DUP4 DUP3 MSTORE DUP7 DUP2 DUP6 DUP9 ADD ADD GT ISZERO PUSH3 0x443 JUMPI PUSH1 0x0 DUP1 REVERT JUMPDEST PUSH1 0x0 SWAP3 POP JUMPDEST DUP4 DUP4 LT ISZERO PUSH3 0x467 JUMPI DUP6 DUP4 ADD DUP2 ADD MLOAD DUP3 DUP5 ADD DUP3 ADD MSTORE SWAP2 DUP3 ADD SWAP2 PUSH3 0x448 JUMP JUMPDEST DUP4 DUP4 GT ISZERO PUSH3 0x479 JUMPI PUSH1 0x0 DUP2 DUP6 DUP5 ADD ADD MSTORE JUMPDEST POP POP POP POP SWAP3 SWAP2 POP POP JUMP JUMPDEST PUSH1 0x0 PUSH1 0x20 DUP3 DUP5 SUB SLT ISZERO PUSH3 0x495 JUMPI DUP1 DUP2 REVERT JUMPDEST DUP2 MLOAD PUSH3 0x4A2 DUP2 PUSH3 0x545 JUMP JUMPDEST SWAP4 SWAP3 POP POP POP JUMP JUMPDEST PUSH1 0x0 DUP1 PUSH1 0x0 DUP1 PUSH1 0x80 DUP6 DUP8 SUB SLT ISZERO PUSH3 0x4BF JUMPI DUP3 DUP4 REVERT JUMPDEST DUP5 MLOAD PUSH1 0x1 PUSH1 0x1 PUSH1 0x40 SHL SUB DUP1 DUP3 GT ISZERO PUSH3 0x4D6 JUMPI DUP5 DUP6 REVERT JUMPDEST PUSH3 0x4E4 DUP9 DUP4 DUP10 ADD PUSH3 0x3DC JUMP JUMPDEST SWAP6 POP PUSH1 0x20 DUP8 ADD MLOAD SWAP2 POP DUP1 DUP3 GT ISZERO PUSH3 0x4FA JUMPI DUP5 DUP6 REVERT JUMPDEST POP PUSH3 0x509 DUP8 DUP3 DUP9 ADD PUSH3 0x3DC JUMP JUMPDEST SWAP4 POP POP PUSH1 0x40 DUP6 ADD MLOAD PUSH3 0x51C DUP2 PUSH3 0x545 JUMP JUMPDEST PUSH1 0x60 SWAP6 SWAP1 SWAP6 ADD MLOAD SWAP4 SWAP7 SWAP3 SWAP6 POP POP POP JUMP JUMPDEST PUSH1 0x0 PUSH1 0x20 DUP3 DUP5 SUB SLT ISZERO PUSH3 0x53E JUMPI DUP1 DUP2 REVERT JUMPDEST POP MLOAD SWAP2 SWAP1 POP JUMP JUMPDEST PUSH1 0x1 PUSH1 0x1 PUSH1 0xA0 SHL SUB DUP2 AND DUP2 EQ PUSH3 0x55B JUMPI PUSH1 0x0 DUP1 REVERT JUMPDEST POP JUMP JUMPDEST PUSH2 0x19C6 DUP1 PUSH3 0x56E PUSH1 0x0 CODECOPY PUSH1 0x0 RETURN INVALID PUSH1 0x80 PUSH1 0x40 MSTORE CALLVALUE DUP1 ISZERO PUSH2 0x10 JUMPI PUSH1 0x0 DUP1 REVERT JUMPDEST POP PUSH1 0x4 CALLDATASIZE LT PUSH2 0x142 JUMPI PUSH1 0x0 CALLDATALOAD PUSH1 0xE0 SHR DUP1 PUSH4 0x77DCB53A GT PUSH2 0xB8 JUMPI DUP1 PUSH4 0xA9059CBB GT PUSH2 0x7C JUMPI DUP1 PUSH4 0xA9059CBB EQ PUSH2 0x260 JUMPI DUP1 PUSH4 0xDD62ED3E EQ PUSH2 0x273 JUMPI DUP1 PUSH4 0xE68F6311 EQ PUSH2 0x286 JUMPI DUP1 PUSH4 0xF2FDE38B EQ PUSH2 0x28E JUMPI DUP1 PUSH4 0xF7954DCF EQ PUSH2 0x2A1 JUMPI DUP1 PUSH4 0xF8D89898 EQ PUSH2 0x2A9 JUMPI PUSH2 0x142 JUMP JUMPDEST DUP1 PUSH4 0x77DCB53A EQ PUSH2 0x22D JUMPI DUP1 PUSH4 0x8DA5CB5B EQ PUSH2 0x235 JUMPI DUP1 PUSH4 0x94EE0827 EQ PUSH2 0x23D JUMPI DUP1 PUSH4 0x95D89B41 EQ PUSH2 0x245 JUMPI DUP1 PUSH4 0xA457C2D7 EQ PUSH2 0x24D JUMPI PUSH2 0x142 JUMP JUMPDEST DUP1 PUSH4 0x23B872DD GT PUSH2 0x10A JUMPI DUP1 PUSH4 0x23B872DD EQ PUSH2 0x1C2 JUMPI DUP1 PUSH4 0x313CE567 EQ PUSH2 0x1D5 JUMPI DUP1 PUSH4 0x39509351 EQ PUSH2 0x1EA JUMPI DUP1 PUSH4 0x5FE3B567 EQ PUSH2 0x1FD JUMPI DUP1 PUSH4 0x70A08231 EQ PUSH2 0x212 JUMPI DUP1 PUSH4 0x715018A6 EQ PUSH2 0x225 JUMPI PUSH2 0x142 JUMP JUMPDEST DUP1 PUSH4 0x6FDDE03 EQ PUSH2 0x147 JUMPI DUP1 PUSH4 0x95EA7B3 EQ PUSH2 0x165 JUMPI DUP1 PUSH4 0x18160DDD EQ PUSH2 0x185 JUMPI DUP1 PUSH4 0x1C1005E7 EQ PUSH2 0x19A JUMPI DUP1 PUSH4 0x1EDD0494 EQ PUSH2 0x1AF JUMPI JUMPDEST PUSH1 0x0 DUP1 REVERT JUMPDEST PUSH2 0x14F PUSH2 0x2B1 JUMP JUMPDEST PUSH1 0x40 MLOAD PUSH2 0x15C SWAP2 SWAP1 PUSH2 0x153F JUMP JUMPDEST PUSH1 0x40 MLOAD DUP1 SWAP2 SUB SWAP1 RETURN JUMPDEST PUSH2 0x178 PUSH2 0x173 CALLDATASIZE PUSH1 0x4 PUSH2 0x13AF JUMP JUMPDEST PUSH2 0x347 JUMP JUMPDEST PUSH1 0x40 MLOAD PUSH2 0x15C SWAP2 SWAP1 PUSH2 0x1534 JUMP JUMPDEST PUSH2 0x18D PUSH2 0x364 JUMP JUMPDEST PUSH1 0x40 MLOAD PUSH2 0x15C SWAP2 SWAP1 PUSH2 0x1801 JUMP JUMPDEST PUSH2 0x1AD PUSH2 0x1A8 CALLDATASIZE PUSH1 0x4 PUSH2 0x148F JUMP JUMPDEST PUSH2 0x36A JUMP JUMPDEST STOP JUMPDEST PUSH2 0x1AD PUSH2 0x1BD CALLDATASIZE PUSH1 0x4 PUSH2 0x14BF JUMP JUMPDEST PUSH2 0x4E9 JUMP JUMPDEST PUSH2 0x178 PUSH2 0x1D0 CALLDATASIZE PUSH1 0x4 PUSH2 0x136F JUMP JUMPDEST PUSH2 0x89B JUMP JUMPDEST PUSH2 0x1DD PUSH2 0x922 JUMP JUMPDEST PUSH1 0x40 MLOAD PUSH2 0x15C SWAP2 SWAP1 PUSH2 0x1891 JUMP JUMPDEST PUSH2 0x178 PUSH2 0x1F8 CALLDATASIZE PUSH1 0x4 PUSH2 0x13AF JUMP JUMPDEST PUSH2 0x92B JUMP JUMPDEST PUSH2 0x205 PUSH2 0x979 JUMP JUMPDEST PUSH1 0x40 MLOAD PUSH2 0x15C SWAP2 SWAP1 PUSH2 0x14E3 JUMP JUMPDEST PUSH2 0x18D PUSH2 0x220 CALLDATASIZE PUSH1 0x4 PUSH2 0x12FF JUMP JUMPDEST PUSH2 0x988 JUMP JUMPDEST PUSH2 0x1AD PUSH2 0x9A3 JUMP JUMPDEST PUSH2 0x18D PUSH2 0xA22 JUMP JUMPDEST PUSH2 0x205 PUSH2 0xA28 JUMP JUMPDEST PUSH2 0x205 PUSH2 0xA37 JUMP JUMPDEST PUSH2 0x14F PUSH2 0xA46 JUMP JUMPDEST PUSH2 0x178 PUSH2 0x25B CALLDATASIZE PUSH1 0x4 PUSH2 0x13AF JUMP JUMPDEST PUSH2 0xAA7 JUMP JUMPDEST PUSH2 0x178 PUSH2 0x26E CALLDATASIZE PUSH1 0x4 PUSH2 0x13AF JUMP JUMPDEST PUSH2 0xB0F JUMP JUMPDEST PUSH2 0x18D PUSH2 0x281 CALLDATASIZE PUSH1 0x4 PUSH2 0x1337 JUMP JUMPDEST PUSH2 0xB23 JUMP JUMPDEST PUSH2 0x1AD PUSH2 0xB4E JUMP JUMPDEST PUSH2 0x1AD PUSH2 0x29C CALLDATASIZE PUSH1 0x4 PUSH2 0x12FF JUMP JUMPDEST PUSH2 0xCBD JUMP JUMPDEST PUSH2 0x1AD PUSH2 0xD74 JUMP JUMPDEST PUSH2 0x205 PUSH2 0xD8D JUMP JUMPDEST PUSH1 0x3 DUP1 SLOAD PUSH1 0x40 DUP1 MLOAD PUSH1 0x20 PUSH1 0x1F PUSH1 0x2 PUSH1 0x0 NOT PUSH2 0x100 PUSH1 0x1 DUP9 AND ISZERO MUL ADD SWAP1 SWAP6 AND SWAP5 SWAP1 SWAP5 DIV SWAP4 DUP5 ADD DUP2 SWAP1 DIV DUP2 MUL DUP3 ADD DUP2 ADD SWAP1 SWAP3 MSTORE DUP3 DUP2 MSTORE PUSH1 0x60 SWAP4 SWAP1 SWAP3 SWAP1 SWAP2 DUP4 ADD DUP3 DUP3 DUP1 ISZERO PUSH2 0x33D JUMPI DUP1 PUSH1 0x1F LT PUSH2 0x312 JUMPI PUSH2 0x100 DUP1 DUP4 SLOAD DIV MUL DUP4 MSTORE SWAP2 PUSH1 0x20 ADD SWAP2 PUSH2 0x33D JUMP JUMPDEST DUP3 ADD SWAP2 SWAP1 PUSH1 0x0 MSTORE PUSH1 0x20 PUSH1 0x0 KECCAK256 SWAP1 JUMPDEST DUP2 SLOAD DUP2 MSTORE SWAP1 PUSH1 0x1 ADD SWAP1 PUSH1 0x20 ADD DUP1 DUP4 GT PUSH2 0x320 JUMPI DUP3 SWAP1 SUB PUSH1 0x1F AND DUP3 ADD SWAP2 JUMPDEST POP POP POP POP POP SWAP1 POP SWAP1 JUMP JUMPDEST PUSH1 0x0 PUSH2 0x35B PUSH2 0x354 PUSH2 0xD9C JUMP JUMPDEST DUP5 DUP5 PUSH2 0xDA0 JUMP JUMPDEST POP PUSH1 0x1 SWAP3 SWAP2 POP POP JUMP JUMPDEST PUSH1 0x2 SLOAD SWAP1 JUMP JUMPDEST PUSH1 0x2 PUSH1 0x6 SLOAD EQ ISZERO PUSH2 0x396 JUMPI PUSH1 0x40 MLOAD PUSH3 0x461BCD PUSH1 0xE5 SHL DUP2 MSTORE PUSH1 0x4 ADD PUSH2 0x38D SWAP1 PUSH2 0x1793 JUMP JUMPDEST PUSH1 0x40 MLOAD DUP1 SWAP2 SUB SWAP1 REVERT JUMPDEST PUSH1 0x2 PUSH1 0x6 SSTORE PUSH1 0xA SLOAD DUP2 GT PUSH2 0x3A9 JUMPI PUSH1 0x0 DUP1 REVERT JUMPDEST PUSH1 0x0 PUSH2 0x3B4 CALLER PUSH2 0x988 JUMP JUMPDEST SWAP1 POP DUP1 DUP3 GT ISZERO PUSH2 0x3C3 JUMPI PUSH1 0x0 DUP1 REVERT JUMPDEST PUSH1 0xC SLOAD PUSH1 0x8 SLOAD PUSH1 0x40 MLOAD PUSH4 0x23B872DD PUSH1 0xE0 SHL DUP2 MSTORE PUSH1 0x1 PUSH1 0x1 PUSH1 0xA0 SHL SUB SWAP3 DUP4 AND SWAP3 PUSH4 0x23B872DD SWAP3 PUSH2 0x3FC SWAP3 CALLER SWAP3 SWAP1 SWAP2 AND SWAP1 DUP8 SWAP1 PUSH1 0x4 ADD PUSH2 0x14F7 JUMP JUMPDEST PUSH1 0x20 PUSH1 0x40 MLOAD DUP1 DUP4 SUB DUP2 PUSH1 0x0 DUP8 DUP1 EXTCODESIZE ISZERO DUP1 ISZERO PUSH2 0x416 JUMPI PUSH1 0x0 DUP1 REVERT JUMPDEST POP GAS CALL ISZERO DUP1 ISZERO PUSH2 0x42A JUMPI RETURNDATASIZE PUSH1 0x0 DUP1 RETURNDATACOPY RETURNDATASIZE PUSH1 0x0 REVERT JUMPDEST POP POP POP POP PUSH1 0x40 MLOAD RETURNDATASIZE PUSH1 0x1F NOT PUSH1 0x1F DUP3 ADD AND DUP3 ADD DUP1 PUSH1 0x40 MSTORE POP DUP2 ADD SWAP1 PUSH2 0x44E SWAP2 SWAP1 PUSH2 0x146F JUMP JUMPDEST POP PUSH1 0x8 SLOAD PUSH1 0x40 MLOAD PUSH4 0x3B2B5C7D PUSH1 0xE1 SHL DUP2 MSTORE PUSH1 0x1 PUSH1 0x1 PUSH1 0xA0 SHL SUB SWAP1 SWAP2 AND SWAP1 PUSH4 0x7656B8FA SWAP1 PUSH2 0x481 SWAP1 DUP6 SWAP1 CALLER SWAP1 PUSH1 0x4 ADD PUSH2 0x180A JUMP JUMPDEST PUSH1 0x20 PUSH1 0x40 MLOAD DUP1 DUP4 SUB DUP2 PUSH1 0x0 DUP8 DUP1 EXTCODESIZE ISZERO DUP1 ISZERO PUSH2 0x49B JUMPI PUSH1 0x0 DUP1 REVERT JUMPDEST POP GAS CALL ISZERO DUP1 ISZERO PUSH2 0x4AF JUMPI RETURNDATASIZE PUSH1 0x0 DUP1 RETURNDATACOPY RETURNDATASIZE PUSH1 0x0 REVERT JUMPDEST POP POP POP POP PUSH1 0x40 MLOAD RETURNDATASIZE PUSH1 0x1F NOT PUSH1 0x1F DUP3 ADD AND DUP3 ADD DUP1 PUSH1 0x40 MSTORE POP DUP2 ADD SWAP1 PUSH2 0x4D3 SWAP2 SWAP1 PUSH2 0x14A7 JUMP JUMPDEST PUSH1 0xD SSTORE PUSH2 0x4E0 CALLER DUP4 PUSH2 0xE54 JUMP JUMPDEST POP POP PUSH1 0x1 PUSH1 0x6 SSTORE JUMP JUMPDEST PUSH1 0x2 PUSH1 0x6 SLOAD EQ ISZERO PUSH2 0x50C JUMPI PUSH1 0x40 MLOAD PUSH3 0x461BCD PUSH1 0xE5 SHL DUP2 MSTORE PUSH1 0x4 ADD PUSH2 0x38D SWAP1 PUSH2 0x1793 JUMP JUMPDEST PUSH1 0x2 PUSH1 0x6 SSTORE PUSH1 0xA SLOAD DUP3 GT PUSH2 0x51F JUMPI PUSH1 0x0 DUP1 REVERT JUMPDEST PUSH1 0x0 PUSH2 0x52A CALLER PUSH2 0x988 JUMP JUMPDEST SWAP1 POP DUP1 DUP4 GT ISZERO PUSH2 0x539 JUMPI PUSH1 0x0 DUP1 REVERT JUMPDEST PUSH1 0x8 SLOAD PUSH1 0x40 MLOAD PUSH4 0x3B2B5C7D PUSH1 0xE1 SHL DUP2 MSTORE PUSH1 0x1 PUSH1 0x1 PUSH1 0xA0 SHL SUB SWAP1 SWAP2 AND SWAP1 PUSH4 0x7656B8FA SWAP1 PUSH2 0x56B SWAP1 DUP7 SWAP1 ADDRESS SWAP1 PUSH1 0x4 ADD PUSH2 0x180A JUMP JUMPDEST PUSH1 0x20 PUSH1 0x40 MLOAD DUP1 DUP4 SUB DUP2 PUSH1 0x0 DUP8 DUP1 EXTCODESIZE ISZERO DUP1 ISZERO PUSH2 0x585 JUMPI PUSH1 0x0 DUP1 REVERT JUMPDEST POP GAS CALL ISZERO DUP1 ISZERO PUSH2 0x599 JUMPI RETURNDATASIZE PUSH1 0x0 DUP1 RETURNDATACOPY RETURNDATASIZE PUSH1 0x0 REVERT JUMPDEST POP POP POP POP PUSH1 0x40 MLOAD RETURNDATASIZE PUSH1 0x1F NOT PUSH1 0x1F DUP3 ADD AND DUP3 ADD DUP1 PUSH1 0x40 MSTORE POP DUP2 ADD SWAP1 PUSH2 0x5BD SWAP2 SWAP1 PUSH2 0x14A7 JUMP JUMPDEST PUSH1 0xD SSTORE PUSH1 0xB SLOAD PUSH1 0xC SLOAD PUSH1 0x60 SWAP2 PUSH2 0x5DF SWAP2 PUSH1 0x1 PUSH1 0x1 PUSH1 0xA0 SHL SUB SWAP2 DUP3 AND SWAP2 AND PUSH2 0xF36 JUMP JUMPDEST PUSH1 0xB SLOAD PUSH1 0xD SLOAD PUSH1 0x40 MLOAD PUSH4 0x95EA7B3 PUSH1 0xE0 SHL DUP2 MSTORE SWAP3 SWAP4 POP PUSH1 0x1 PUSH1 0x1 PUSH1 0xA0 SHL SUB SWAP1 SWAP2 AND SWAP2 PUSH4 0x95EA7B3 SWAP2 PUSH2 0x616 SWAP2 DUP8 SWAP2 SWAP1 PUSH1 0x4 ADD PUSH2 0x151B JUMP JUMPDEST PUSH1 0x20 PUSH1 0x40 MLOAD DUP1 DUP4 SUB DUP2 PUSH1 0x0 DUP8 DUP1 EXTCODESIZE ISZERO DUP1 ISZERO PUSH2 0x630 JUMPI PUSH1 0x0 DUP1 REVERT JUMPDEST POP GAS CALL ISZERO DUP1 ISZERO PUSH2 0x644 JUMPI RETURNDATASIZE PUSH1 0x0 DUP1 RETURNDATACOPY RETURNDATASIZE PUSH1 0x0 REVERT JUMPDEST POP POP POP POP PUSH1 0x40 MLOAD RETURNDATASIZE PUSH1 0x1F NOT PUSH1 0x1F DUP3 ADD AND DUP3 ADD DUP1 PUSH1 0x40 MSTORE POP DUP2 ADD SWAP1 PUSH2 0x668 SWAP2 SWAP1 PUSH2 0x146F JUMP JUMPDEST POP PUSH1 0xD SLOAD PUSH1 0x40 MLOAD PUSH4 0x4401EDF7 PUSH1 0xE1 SHL DUP2 MSTORE PUSH1 0x1 PUSH1 0x1 PUSH1 0xA0 SHL SUB DUP6 AND SWAP2 PUSH4 0x8803DBEE SWAP2 PUSH2 0x69E SWAP2 DUP9 SWAP2 DUP7 SWAP1 ADDRESS SWAP1 TIMESTAMP SWAP1 PUSH1 0x4 ADD PUSH2 0x1821 JUMP JUMPDEST PUSH1 0x0 PUSH1 0x40 MLOAD DUP1 DUP4 SUB DUP2 PUSH1 0x0 DUP8 DUP1 EXTCODESIZE ISZERO DUP1 ISZERO PUSH2 0x6B8 JUMPI PUSH1 0x0 DUP1 REVERT JUMPDEST POP GAS CALL ISZERO DUP1 ISZERO PUSH2 0x6CC JUMPI RETURNDATASIZE PUSH1 0x0 DUP1 RETURNDATACOPY RETURNDATASIZE PUSH1 0x0 REVERT JUMPDEST POP POP POP POP PUSH1 0x40 MLOAD RETURNDATASIZE PUSH1 0x0 DUP3 RETURNDATACOPY PUSH1 0x1F RETURNDATASIZE SWAP1 DUP2 ADD PUSH1 0x1F NOT AND DUP3 ADD PUSH1 0x40 MSTORE PUSH2 0x6F4 SWAP2 SWAP1 DUP2 ADD SWAP1 PUSH2 0x13DA JUMP JUMPDEST POP PUSH1 0xC SLOAD PUSH1 0x8 SLOAD PUSH1 0x40 MLOAD PUSH4 0xA9059CBB PUSH1 0xE0 SHL DUP2 MSTORE PUSH1 0x1 PUSH1 0x1 PUSH1 0xA0 SHL SUB SWAP3 DUP4 AND SWAP3 PUSH4 0xA9059CBB SWAP3 PUSH2 0x72B SWAP3 SWAP2 AND SWAP1 DUP9 SWAP1 PUSH1 0x4 ADD PUSH2 0x151B JUMP JUMPDEST PUSH1 0x20 PUSH1 0x40 MLOAD DUP1 DUP4 SUB DUP2 PUSH1 0x0 DUP8 DUP1 EXTCODESIZE ISZERO DUP1 ISZERO PUSH2 0x745 JUMPI PUSH1 0x0 DUP1 REVERT JUMPDEST POP GAS CALL ISZERO DUP1 ISZERO PUSH2 0x759 JUMPI RETURNDATASIZE PUSH1 0x0 DUP1 RETURNDATACOPY RETURNDATASIZE PUSH1 0x0 REVERT JUMPDEST POP POP POP POP PUSH1 0x40 MLOAD RETURNDATASIZE PUSH1 0x1F NOT PUSH1 0x1F DUP3 ADD AND DUP3 ADD DUP1 PUSH1 0x40 MSTORE POP DUP2 ADD SWAP1 PUSH2 0x77D SWAP2 SWAP1 PUSH2 0x146F JUMP JUMPDEST POP PUSH1 0xB SLOAD PUSH1 0x40 MLOAD PUSH4 0x70A08231 PUSH1 0xE0 SHL DUP2 MSTORE PUSH1 0x0 SWAP2 PUSH1 0x1 PUSH1 0x1 PUSH1 0xA0 SHL SUB AND SWAP1 PUSH4 0x70A08231 SWAP1 PUSH2 0x7AF SWAP1 ADDRESS SWAP1 PUSH1 0x4 ADD PUSH2 0x14E3 JUMP JUMPDEST PUSH1 0x20 PUSH1 0x40 MLOAD DUP1 DUP4 SUB DUP2 DUP7 DUP1 EXTCODESIZE ISZERO DUP1 ISZERO PUSH2 0x7C7 JUMPI PUSH1 0x0 DUP1 REVERT JUMPDEST POP GAS STATICCALL ISZERO DUP1 ISZERO PUSH2 0x7DB JUMPI RETURNDATASIZE PUSH1 0x0 DUP1 RETURNDATACOPY RETURNDATASIZE PUSH1 0x0 REVERT JUMPDEST POP POP POP POP PUSH1 0x40 MLOAD RETURNDATASIZE PUSH1 0x1F NOT PUSH1 0x1F DUP3 ADD AND DUP3 ADD DUP1 PUSH1 0x40 MSTORE POP DUP2 ADD SWAP1 PUSH2 0x7FF SWAP2 SWAP1 PUSH2 0x14A7 JUMP JUMPDEST PUSH1 0xB SLOAD PUSH1 0x40 MLOAD PUSH4 0xA9059CBB PUSH1 0xE0 SHL DUP2 MSTORE SWAP2 SWAP3 POP PUSH1 0x1 PUSH1 0x1 PUSH1 0xA0 SHL SUB AND SWAP1 PUSH4 0xA9059CBB SWAP1 PUSH2 0x832 SWAP1 CALLER SWAP1 DUP6 SWAP1 PUSH1 0x4 ADD PUSH2 0x151B JUMP JUMPDEST PUSH1 0x20 PUSH1 0x40 MLOAD DUP1 DUP4 SUB DUP2 PUSH1 0x0 DUP8 DUP1 EXTCODESIZE ISZERO DUP1 ISZERO PUSH2 0x84C JUMPI PUSH1 0x0 DUP1 REVERT JUMPDEST POP GAS CALL ISZERO DUP1 ISZERO PUSH2 0x860 JUMPI RETURNDATASIZE PUSH1 0x0 DUP1 RETURNDATACOPY RETURNDATASIZE PUSH1 0x0 REVERT JUMPDEST POP POP POP POP PUSH1 0x40 MLOAD RETURNDATASIZE PUSH1 0x1F NOT PUSH1 0x1F DUP3 ADD AND DUP3 ADD DUP1 PUSH1 0x40 MSTORE POP DUP2 ADD SWAP1 PUSH2 0x884 SWAP2 SWAP1 PUSH2 0x146F JUMP JUMPDEST POP PUSH2 0x88F CALLER DUP7 PUSH2 0xE54 JUMP JUMPDEST POP POP PUSH1 0x1 PUSH1 0x6 SSTORE POP POP POP JUMP JUMPDEST PUSH1 0x0 PUSH2 0x8A8 DUP5 DUP5 DUP5 PUSH2 0x1097 JUMP JUMPDEST PUSH2 0x918 DUP5 PUSH2 0x8B4 PUSH2 0xD9C JUMP JUMPDEST PUSH2 0x913 DUP6 PUSH1 0x40 MLOAD DUP1 PUSH1 0x60 ADD PUSH1 0x40 MSTORE DUP1 PUSH1 0x28 DUP2 MSTORE PUSH1 0x20 ADD PUSH2 0x1944 PUSH1 0x28 SWAP2 CODECOPY PUSH1 0x1 PUSH1 0x1 PUSH1 0xA0 SHL SUB DUP11 AND PUSH1 0x0 SWAP1 DUP2 MSTORE PUSH1 0x1 PUSH1 0x20 MSTORE PUSH1 0x40 DUP2 KECCAK256 SWAP1 PUSH2 0x8F2 PUSH2 0xD9C JUMP JUMPDEST PUSH1 0x1 PUSH1 0x1 PUSH1 0xA0 SHL SUB AND DUP2 MSTORE PUSH1 0x20 DUP2 ADD SWAP2 SWAP1 SWAP2 MSTORE PUSH1 0x40 ADD PUSH1 0x0 KECCAK256 SLOAD SWAP2 SWAP1 PUSH2 0x11AC JUMP JUMPDEST PUSH2 0xDA0 JUMP JUMPDEST POP PUSH1 0x1 SWAP4 SWAP3 POP POP POP JUMP JUMPDEST PUSH1 0x5 SLOAD PUSH1 0xFF AND SWAP1 JUMP JUMPDEST PUSH1 0x0 PUSH2 0x35B PUSH2 0x938 PUSH2 0xD9C JUMP JUMPDEST DUP5 PUSH2 0x913 DUP6 PUSH1 0x1 PUSH1 0x0 PUSH2 0x949 PUSH2 0xD9C JUMP JUMPDEST PUSH1 0x1 PUSH1 0x1 PUSH1 0xA0 SHL SUB SWAP1 DUP2 AND DUP3 MSTORE PUSH1 0x20 DUP1 DUP4 ADD SWAP4 SWAP1 SWAP4 MSTORE PUSH1 0x40 SWAP2 DUP3 ADD PUSH1 0x0 SWAP1 DUP2 KECCAK256 SWAP2 DUP13 AND DUP2 MSTORE SWAP3 MSTORE SWAP1 KECCAK256 SLOAD SWAP1 PUSH2 0x11D8 JUMP JUMPDEST PUSH1 0x10 SLOAD PUSH1 0x1 PUSH1 0x1 PUSH1 0xA0 SHL SUB AND DUP2 JUMP JUMPDEST PUSH1 0x1 PUSH1 0x1 PUSH1 0xA0 SHL SUB AND PUSH1 0x0 SWAP1 DUP2 MSTORE PUSH1 0x20 DUP2 SWAP1 MSTORE PUSH1 0x40 SWAP1 KECCAK256 SLOAD SWAP1 JUMP JUMPDEST PUSH2 0x9AB PUSH2 0xD9C JUMP JUMPDEST PUSH1 0x7 SLOAD PUSH1 0x1 PUSH1 0x1 PUSH1 0xA0 SHL SUB SWAP1 DUP2 AND SWAP2 AND EQ PUSH2 0x9D8 JUMPI PUSH1 0x40 MLOAD PUSH3 0x461BCD PUSH1 0xE5 SHL DUP2 MSTORE PUSH1 0x4 ADD PUSH2 0x38D SWAP1 PUSH2 0x1694 JUMP JUMPDEST PUSH1 0x7 SLOAD PUSH1 0x40 MLOAD PUSH1 0x0 SWAP2 PUSH1 0x1 PUSH1 0x1 PUSH1 0xA0 SHL SUB AND SWAP1 PUSH32 0x8BE0079C531659141344CD1FD0A4F28419497F9722A3DAAFE3B4186F6B6457E0 SWAP1 DUP4 SWAP1 LOG3 PUSH1 0x7 DUP1 SLOAD PUSH1 0x1 PUSH1 0x1 PUSH1 0xA0 SHL SUB NOT AND SWAP1 SSTORE JUMP JUMPDEST PUSH1 0xF SLOAD DUP2 JUMP JUMPDEST PUSH1 0x7 SLOAD PUSH1 0x1 PUSH1 0x1 PUSH1 0xA0 SHL SUB AND SWAP1 JUMP JUMPDEST PUSH1 0xB SLOAD PUSH1 0x1 PUSH1 0x1 PUSH1 0xA0 SHL SUB AND DUP2 JUMP JUMPDEST PUSH1 0x4 DUP1 SLOAD PUSH1 0x40 DUP1 MLOAD PUSH1 0x20 PUSH1 0x1F PUSH1 0x2 PUSH1 0x0 NOT PUSH2 0x100 PUSH1 0x1 DUP9 AND ISZERO MUL ADD SWAP1 SWAP6 AND SWAP5 SWAP1 SWAP5 DIV SWAP4 DUP5 ADD DUP2 SWAP1 DIV DUP2 MUL DUP3 ADD DUP2 ADD SWAP1 SWAP3 MSTORE DUP3 DUP2 MSTORE PUSH1 0x60 SWAP4 SWAP1 SWAP3 SWAP1 SWAP2 DUP4 ADD DUP3 DUP3 DUP1 ISZERO PUSH2 0x33D JUMPI DUP1 PUSH1 0x1F LT PUSH2 0x312 JUMPI PUSH2 0x100 DUP1 DUP4 SLOAD DIV MUL DUP4 MSTORE SWAP2 PUSH1 0x20 ADD SWAP2 PUSH2 0x33D JUMP JUMPDEST PUSH1 0x0 PUSH2 0x35B PUSH2 0xAB4 PUSH2 0xD9C JUMP JUMPDEST DUP5 PUSH2 0x913 DUP6 PUSH1 0x40 MLOAD DUP1 PUSH1 0x60 ADD PUSH1 0x40 MSTORE DUP1 PUSH1 0x25 DUP2 MSTORE PUSH1 0x20 ADD PUSH2 0x196C PUSH1 0x25 SWAP2 CODECOPY PUSH1 0x1 PUSH1 0x0 PUSH2 0xADE PUSH2 0xD9C JUMP JUMPDEST PUSH1 0x1 PUSH1 0x1 PUSH1 0xA0 SHL SUB SWAP1 DUP2 AND DUP3 MSTORE PUSH1 0x20 DUP1 DUP4 ADD SWAP4 SWAP1 SWAP4 MSTORE PUSH1 0x40 SWAP2 DUP3 ADD PUSH1 0x0 SWAP1 DUP2 KECCAK256 SWAP2 DUP14 AND DUP2 MSTORE SWAP3 MSTORE SWAP1 KECCAK256 SLOAD SWAP2 SWAP1 PUSH2 0x11AC JUMP JUMPDEST PUSH1 0x0 PUSH2 0x35B PUSH2 0xB1C PUSH2 0xD9C JUMP JUMPDEST DUP5 DUP5 PUSH2 0x1097 JUMP JUMPDEST PUSH1 0x1 PUSH1 0x1 PUSH1 0xA0 SHL SUB SWAP2 DUP3 AND PUSH1 0x0 SWAP1 DUP2 MSTORE PUSH1 0x1 PUSH1 0x20 SWAP1 DUP2 MSTORE PUSH1 0x40 DUP1 DUP4 KECCAK256 SWAP4 SWAP1 SWAP5 AND DUP3 MSTORE SWAP2 SWAP1 SWAP2 MSTORE KECCAK256 SLOAD SWAP1 JUMP JUMPDEST PUSH2 0xB56 PUSH2 0xD9C JUMP JUMPDEST PUSH1 0x7 SLOAD PUSH1 0x1 PUSH1 0x1 PUSH1 0xA0 SHL SUB SWAP1 DUP2 AND SWAP2 AND EQ PUSH2 0xB83 JUMPI PUSH1 0x40 MLOAD PUSH3 0x461BCD PUSH1 0xE5 SHL DUP2 MSTORE PUSH1 0x4 ADD PUSH2 0x38D SWAP1 PUSH2 0x1694 JUMP JUMPDEST PUSH1 0xF SLOAD ISZERO PUSH2 0xB90 JUMPI PUSH1 0x0 DUP1 REVERT JUMPDEST PUSH1 0x8 SLOAD PUSH1 0x40 DUP1 MLOAD PUSH4 0x2241A565 PUSH1 0xE1 SHL DUP2 MSTORE SWAP1 MLOAD ADDRESS SWAP3 PUSH1 0x1 PUSH1 0x1 PUSH1 0xA0 SHL SUB AND SWAP2 PUSH4 0x44834ACA SWAP2 PUSH1 0x4 DUP1 DUP4 ADD SWAP3 PUSH1 0x20 SWAP3 SWAP2 SWAP1 DUP3 SWAP1 SUB ADD DUP2 DUP7 DUP1 EXTCODESIZE ISZERO DUP1 ISZERO PUSH2 0xBD4 JUMPI PUSH1 0x0 DUP1 REVERT JUMPDEST POP GAS STATICCALL ISZERO DUP1 ISZERO PUSH2 0xBE8 JUMPI RETURNDATASIZE PUSH1 0x0 DUP1 RETURNDATACOPY RETURNDATASIZE PUSH1 0x0 REVERT JUMPDEST POP POP POP POP PUSH1 0x40 MLOAD RETURNDATASIZE PUSH1 0x1F NOT PUSH1 0x1F DUP3 ADD AND DUP3 ADD DUP1 PUSH1 0x40 MSTORE POP DUP2 ADD SWAP1 PUSH2 0xC0C SWAP2 SWAP1 PUSH2 0x131B JUMP JUMPDEST PUSH1 0x1 PUSH1 0x1 PUSH1 0xA0 SHL SUB AND EQ PUSH2 0xC1F JUMPI PUSH1 0x0 DUP1 REVERT JUMPDEST PUSH2 0xC2B CALLER PUSH1 0x9 SLOAD PUSH2 0x1204 JUMP JUMPDEST PUSH1 0xC SLOAD PUSH1 0x8 SLOAD PUSH1 0x9 SLOAD PUSH1 0x40 MLOAD PUSH4 0x95EA7B3 PUSH1 0xE0 SHL DUP2 MSTORE PUSH1 0x1 PUSH1 0x1 PUSH1 0xA0 SHL SUB SWAP4 DUP5 AND SWAP4 PUSH4 0x95EA7B3 SWAP4 PUSH2 0xC62 SWAP4 SWAP2 AND SWAP2 PUSH1 0x4 ADD PUSH2 0x151B JUMP JUMPDEST PUSH1 0x20 PUSH1 0x40 MLOAD DUP1 DUP4 SUB DUP2 PUSH1 0x0 DUP8 DUP1 EXTCODESIZE ISZERO DUP1 ISZERO PUSH2 0xC7C JUMPI PUSH1 0x0 DUP1 REVERT JUMPDEST POP GAS CALL ISZERO DUP1 ISZERO PUSH2 0xC90 JUMPI RETURNDATASIZE PUSH1 0x0 DUP1 RETURNDATACOPY RETURNDATASIZE PUSH1 0x0 REVERT JUMPDEST POP POP POP POP PUSH1 0x40 MLOAD RETURNDATASIZE PUSH1 0x1F NOT PUSH1 0x1F DUP3 ADD AND DUP3 ADD DUP1 PUSH1 0x40 MSTORE POP DUP2 ADD SWAP1 PUSH2 0xCB4 SWAP2 SWAP1 PUSH2 0x146F JUMP JUMPDEST POP PUSH1 0x9 SLOAD PUSH1 0xF SSTORE JUMP JUMPDEST PUSH2 0xCC5 PUSH2 0xD9C JUMP JUMPDEST PUSH1 0x7 SLOAD PUSH1 0x1 PUSH1 0x1 PUSH1 0xA0 SHL SUB SWAP1 DUP2 AND SWAP2 AND EQ PUSH2 0xCF2 JUMPI PUSH1 0x40 MLOAD PUSH3 0x461BCD PUSH1 0xE5 SHL DUP2 MSTORE PUSH1 0x4 ADD PUSH2 0x38D SWAP1 PUSH2 0x1694 JUMP JUMPDEST PUSH1 0x1 PUSH1 0x1 PUSH1 0xA0 SHL SUB DUP2 AND PUSH2 0xD18 JUMPI PUSH1 0x40 MLOAD PUSH3 0x461BCD PUSH1 0xE5 SHL DUP2 MSTORE PUSH1 0x4 ADD PUSH2 0x38D SWAP1 PUSH2 0x15D5 JUMP JUMPDEST PUSH1 0x7 SLOAD PUSH1 0x40 MLOAD PUSH1 0x1 PUSH1 0x1 PUSH1 0xA0 SHL SUB DUP1 DUP5 AND SWAP3 AND SWAP1 PUSH32 0x8BE0079C531659141344CD1FD0A4F28419497F9722A3DAAFE3B4186F6B6457E0 SWAP1 PUSH1 0x0 SWAP1 LOG3 PUSH1 0x7 DUP1 SLOAD PUSH1 0x1 PUSH1 0x1 PUSH1 0xA0 SHL SUB NOT AND PUSH1 0x1 PUSH1 0x1 PUSH1 0xA0 SHL SUB SWAP3 SWAP1 SWAP3 AND SWAP2 SWAP1 SWAP2 OR SWAP1 SSTORE JUMP JUMPDEST PUSH1 0x0 PUSH2 0xD7F CALLER PUSH2 0x988 JUMP JUMPDEST SWAP1 POP PUSH2 0xD8A DUP2 PUSH2 0x36A JUMP JUMPDEST POP JUMP JUMPDEST PUSH1 0xC SLOAD PUSH1 0x1 PUSH1 0x1 PUSH1 0xA0 SHL SUB AND DUP2 JUMP JUMPDEST CALLER SWAP1 JUMP JUMPDEST PUSH1 0x1 PUSH1 0x1 PUSH1 0xA0 SHL SUB DUP4 AND PUSH2 0xDC6 JUMPI PUSH1 0x40 MLOAD PUSH3 0x461BCD PUSH1 0xE5 SHL DUP2 MSTORE PUSH1 0x4 ADD PUSH2 0x38D SWAP1 PUSH2 0x174F JUMP JUMPDEST PUSH1 0x1 PUSH1 0x1 PUSH1 0xA0 SHL SUB DUP3 AND PUSH2 0xDEC JUMPI PUSH1 0x40 MLOAD PUSH3 0x461BCD PUSH1 0xE5 SHL DUP2 MSTORE PUSH1 0x4 ADD PUSH2 0x38D SWAP1 PUSH2 0x161B JUMP JUMPDEST PUSH1 0x1 PUSH1 0x1 PUSH1 0xA0 SHL SUB DUP1 DUP5 AND PUSH1 0x0 DUP2 DUP2 MSTORE PUSH1 0x1 PUSH1 0x20 SWAP1 DUP2 MSTORE PUSH1 0x40 DUP1 DUP4 KECCAK256 SWAP5 DUP8 AND DUP1 DUP5 MSTORE SWAP5 SWAP1 SWAP2 MSTORE SWAP1 DUP2 SWAP1 KECCAK256 DUP5 SWAP1 SSTORE MLOAD PUSH32 0x8C5BE1E5EBEC7D5BD14F71427D1E84F3DD0314C0F7B2291E5B200AC8C7C3B925 SWAP1 PUSH2 0xE47 SWAP1 DUP6 SWAP1 PUSH2 0x1801 JUMP JUMPDEST PUSH1 0x40 MLOAD DUP1 SWAP2 SUB SWAP1 LOG3 POP POP POP JUMP JUMPDEST PUSH1 0x1 PUSH1 0x1 PUSH1 0xA0 SHL SUB DUP3 AND PUSH2 0xE7A JUMPI PUSH1 0x40 MLOAD PUSH3 0x461BCD PUSH1 0xE5 SHL DUP2 MSTORE PUSH1 0x4 ADD PUSH2 0x38D SWAP1 PUSH2 0x16C9 JUMP JUMPDEST PUSH2 0xE86 DUP3 PUSH1 0x0 DUP4 PUSH2 0x12B8 JUMP JUMPDEST PUSH2 0xEC3 DUP2 PUSH1 0x40 MLOAD DUP1 PUSH1 0x60 ADD PUSH1 0x40 MSTORE DUP1 PUSH1 0x22 DUP2 MSTORE PUSH1 0x20 ADD PUSH2 0x18FC PUSH1 0x22 SWAP2 CODECOPY PUSH1 0x1 PUSH1 0x1 PUSH1 0xA0 SHL SUB DUP6 AND PUSH1 0x0 SWAP1 DUP2 MSTORE PUSH1 0x20 DUP2 SWAP1 MSTORE PUSH1 0x40 SWAP1 KECCAK256 SLOAD SWAP2 SWAP1 PUSH2 0x11AC JUMP JUMPDEST PUSH1 0x1 PUSH1 0x1 PUSH1 0xA0 SHL SUB DUP4 AND PUSH1 0x0 SWAP1 DUP2 MSTORE PUSH1 0x20 DUP2 SWAP1 MSTORE PUSH1 0x40 SWAP1 KECCAK256 SSTORE PUSH1 0x2 SLOAD PUSH2 0xEE9 SWAP1 DUP3 PUSH2 0x12BD JUMP JUMPDEST PUSH1 0x2 SSTORE PUSH1 0x40 MLOAD PUSH1 0x0 SWAP1 PUSH1 0x1 PUSH1 0x1 PUSH1 0xA0 SHL SUB DUP5 AND SWAP1 PUSH32 0xDDF252AD1BE2C89B69C2B068FC378DAA952BA7F163C4A11628F55A4DF523B3EF SWAP1 PUSH2 0xF2A SWAP1 DUP6 SWAP1 PUSH2 0x1801 JUMP JUMPDEST PUSH1 0x40 MLOAD DUP1 SWAP2 SUB SWAP1 LOG3 POP POP JUMP JUMPDEST PUSH1 0x12 SLOAD PUSH1 0x60 SWAP1 PUSH1 0x0 SWAP1 PUSH1 0x1 PUSH1 0x1 PUSH1 0xA0 SHL SUB DUP6 DUP2 AND SWAP2 AND EQ DUP1 PUSH2 0xF65 JUMPI POP PUSH1 0x12 SLOAD PUSH1 0x1 PUSH1 0x1 PUSH1 0xA0 SHL SUB DUP5 DUP2 AND SWAP2 AND EQ JUMPDEST SWAP1 POP DUP1 PUSH2 0xF73 JUMPI PUSH1 0x3 PUSH2 0xF76 JUMP JUMPDEST PUSH1 0x2 JUMPDEST PUSH1 0xFF AND PUSH8 0xFFFFFFFFFFFFFFFF DUP2 GT DUP1 ISZERO PUSH2 0xF8F JUMPI PUSH1 0x0 DUP1 REVERT JUMPDEST POP PUSH1 0x40 MLOAD SWAP1 DUP1 DUP3 MSTORE DUP1 PUSH1 0x20 MUL PUSH1 0x20 ADD DUP3 ADD PUSH1 0x40 MSTORE DUP1 ISZERO PUSH2 0xFB9 JUMPI DUP2 PUSH1 0x20 ADD PUSH1 0x20 DUP3 MUL DUP1 CALLDATASIZE DUP4 CALLDATACOPY ADD SWAP1 POP JUMPDEST POP SWAP2 POP DUP4 DUP3 PUSH1 0x0 DUP2 MLOAD DUP2 LT PUSH2 0xFCA JUMPI INVALID JUMPDEST PUSH1 0x20 MUL PUSH1 0x20 ADD ADD SWAP1 PUSH1 0x1 PUSH1 0x1 PUSH1 0xA0 SHL SUB AND SWAP1 DUP2 PUSH1 0x1 PUSH1 0x1 PUSH1 0xA0 SHL SUB AND DUP2 MSTORE POP POP DUP1 ISZERO PUSH2 0x1023 JUMPI DUP3 DUP3 PUSH1 0x1 DUP2 MLOAD DUP2 LT PUSH2 0xFFE JUMPI INVALID JUMPDEST PUSH1 0x20 MUL PUSH1 0x20 ADD ADD SWAP1 PUSH1 0x1 PUSH1 0x1 PUSH1 0xA0 SHL SUB AND SWAP1 DUP2 PUSH1 0x1 PUSH1 0x1 PUSH1 0xA0 SHL SUB AND DUP2 MSTORE POP POP PUSH2 0x1090 JUMP JUMPDEST PUSH1 0x12 SLOAD DUP3 MLOAD PUSH1 0x1 PUSH1 0x1 PUSH1 0xA0 SHL SUB SWAP1 SWAP2 AND SWAP1 DUP4 SWAP1 PUSH1 0x1 SWAP1 DUP2 LT PUSH2 0x1041 JUMPI INVALID JUMPDEST PUSH1 0x20 MUL PUSH1 0x20 ADD ADD SWAP1 PUSH1 0x1 PUSH1 0x1 PUSH1 0xA0 SHL SUB AND SWAP1 DUP2 PUSH1 0x1 PUSH1 0x1 PUSH1 0xA0 SHL SUB AND DUP2 MSTORE POP POP DUP3 DUP3 PUSH1 0x2 DUP2 MLOAD DUP2 LT PUSH2 0x106F JUMPI INVALID JUMPDEST PUSH1 0x20 MUL PUSH1 0x20 ADD ADD SWAP1 PUSH1 0x1 PUSH1 0x1 PUSH1 0xA0 SHL SUB AND SWAP1 DUP2 PUSH1 0x1 PUSH1 0x1 PUSH1 0xA0 SHL SUB AND DUP2 MSTORE POP POP JUMPDEST POP SWAP3 SWAP2 POP POP JUMP JUMPDEST PUSH1 0x1 PUSH1 0x1 PUSH1 0xA0 SHL SUB DUP4 AND PUSH2 0x10BD JUMPI PUSH1 0x40 MLOAD PUSH3 0x461BCD PUSH1 0xE5 SHL DUP2 MSTORE PUSH1 0x4 ADD PUSH2 0x38D SWAP1 PUSH2 0x170A JUMP JUMPDEST PUSH1 0x1 PUSH1 0x1 PUSH1 0xA0 SHL SUB DUP3 AND PUSH2 0x10E3 JUMPI PUSH1 0x40 MLOAD PUSH3 0x461BCD PUSH1 0xE5 SHL DUP2 MSTORE PUSH1 0x4 ADD PUSH2 0x38D SWAP1 PUSH2 0x1592 JUMP JUMPDEST PUSH2 0x10EE DUP4 DUP4 DUP4 PUSH2 0x12B8 JUMP JUMPDEST PUSH2 0x112B DUP2 PUSH1 0x40 MLOAD DUP1 PUSH1 0x60 ADD PUSH1 0x40 MSTORE DUP1 PUSH1 0x26 DUP2 MSTORE PUSH1 0x20 ADD PUSH2 0x191E PUSH1 0x26 SWAP2 CODECOPY PUSH1 0x1 PUSH1 0x1 PUSH1 0xA0 SHL SUB DUP7 AND PUSH1 0x0 SWAP1 DUP2 MSTORE PUSH1 0x20 DUP2 SWAP1 MSTORE PUSH1 0x40 SWAP1 KECCAK256 SLOAD SWAP2 SWAP1 PUSH2 0x11AC JUMP JUMPDEST PUSH1 0x1 PUSH1 0x1 PUSH1 0xA0 SHL SUB DUP1 DUP6 AND PUSH1 0x0 SWAP1 DUP2 MSTORE PUSH1 0x20 DUP2 SWAP1 MSTORE PUSH1 0x40 DUP1 DUP3 KECCAK256 SWAP4 SWAP1 SWAP4 SSTORE SWAP1 DUP5 AND DUP2 MSTORE KECCAK256 SLOAD PUSH2 0x115A SWAP1 DUP3 PUSH2 0x11D8 JUMP JUMPDEST PUSH1 0x1 PUSH1 0x1 PUSH1 0xA0 SHL SUB DUP1 DUP5 AND PUSH1 0x0 DUP2 DUP2 MSTORE PUSH1 0x20 DUP2 SWAP1 MSTORE PUSH1 0x40 SWAP1 DUP2 SWAP1 KECCAK256 SWAP4 SWAP1 SWAP4 SSTORE SWAP2 MLOAD SWAP1 DUP6 AND SWAP1 PUSH32 0xDDF252AD1BE2C89B69C2B068FC378DAA952BA7F163C4A11628F55A4DF523B3EF SWAP1 PUSH2 0xE47 SWAP1 DUP6 SWAP1 PUSH2 0x1801 JUMP JUMPDEST PUSH1 0x0 DUP2 DUP5 DUP5 GT ISZERO PUSH2 0x11D0 JUMPI PUSH1 0x40 MLOAD PUSH3 0x461BCD PUSH1 0xE5 SHL DUP2 MSTORE PUSH1 0x4 ADD PUSH2 0x38D SWAP2 SWAP1 PUSH2 0x153F JUMP JUMPDEST POP POP POP SWAP1 SUB SWAP1 JUMP JUMPDEST PUSH1 0x0 DUP3 DUP3 ADD DUP4 DUP2 LT ISZERO PUSH2 0x11FD JUMPI PUSH1 0x40 MLOAD PUSH3 0x461BCD PUSH1 0xE5 SHL DUP2 MSTORE PUSH1 0x4 ADD PUSH2 0x38D SWAP1 PUSH2 0x165D JUMP JUMPDEST SWAP4 SWAP3 POP POP POP JUMP JUMPDEST PUSH1 0x1 PUSH1 0x1 PUSH1 0xA0 SHL SUB DUP3 AND PUSH2 0x122A JUMPI PUSH1 0x40 MLOAD PUSH3 0x461BCD PUSH1 0xE5 SHL DUP2 MSTORE PUSH1 0x4 ADD PUSH2 0x38D SWAP1 PUSH2 0x17CA JUMP JUMPDEST PUSH2 0x1236 PUSH1 0x0 DUP4 DUP4 PUSH2 0x12B8 JUMP JUMPDEST PUSH1 0x2 SLOAD PUSH2 0x1243 SWAP1 DUP3 PUSH2 0x11D8 JUMP JUMPDEST PUSH1 0x2 SSTORE PUSH1 0x1 PUSH1 0x1 PUSH1 0xA0 SHL SUB DUP3 AND PUSH1 0x0 SWAP1 DUP2 MSTORE PUSH1 0x20 DUP2 SWAP1 MSTORE PUSH1 0x40 SWAP1 KECCAK256 SLOAD PUSH2 0x1269 SWAP1 DUP3 PUSH2 0x11D8 JUMP JUMPDEST PUSH1 0x1 PUSH1 0x1 PUSH1 0xA0 SHL SUB DUP4 AND PUSH1 0x0 DUP2 DUP2 MSTORE PUSH1 0x20 DUP2 SWAP1 MSTORE PUSH1 0x40 DUP1 DUP3 KECCAK256 SWAP4 SWAP1 SWAP4 SSTORE SWAP2 MLOAD SWAP1 SWAP2 SWAP1 PUSH32 0xDDF252AD1BE2C89B69C2B068FC378DAA952BA7F163C4A11628F55A4DF523B3EF SWAP1 PUSH2 0xF2A SWAP1 DUP6 SWAP1 PUSH2 0x1801 JUMP JUMPDEST POP POP POP JUMP JUMPDEST PUSH1 0x0 PUSH2 0x11FD DUP4 DUP4 PUSH1 0x40 MLOAD DUP1 PUSH1 0x40 ADD PUSH1 0x40 MSTORE DUP1 PUSH1 0x1E DUP2 MSTORE PUSH1 0x20 ADD PUSH32 0x536166654D6174683A207375627472616374696F6E206F766572666C6F770000 DUP2 MSTORE POP PUSH2 0x11AC JUMP JUMPDEST PUSH1 0x0 PUSH1 0x20 DUP3 DUP5 SUB SLT ISZERO PUSH2 0x1310 JUMPI DUP1 DUP2 REVERT JUMPDEST DUP2 CALLDATALOAD PUSH2 0x11FD DUP2 PUSH2 0x18E6 JUMP JUMPDEST PUSH1 0x0 PUSH1 0x20 DUP3 DUP5 SUB SLT ISZERO PUSH2 0x132C JUMPI DUP1 DUP2 REVERT JUMPDEST DUP2 MLOAD PUSH2 0x11FD DUP2 PUSH2 0x18E6 JUMP JUMPDEST PUSH1 0x0 DUP1 PUSH1 0x40 DUP4 DUP6 SUB SLT ISZERO PUSH2 0x1349 JUMPI DUP1 DUP2 REVERT JUMPDEST DUP3 CALLDATALOAD PUSH2 0x1354 DUP2 PUSH2 0x18E6 JUMP JUMPDEST SWAP2 POP PUSH1 0x20 DUP4 ADD CALLDATALOAD PUSH2 0x1364 DUP2 PUSH2 0x18E6 JUMP JUMPDEST DUP1 SWAP2 POP POP SWAP3 POP SWAP3 SWAP1 POP JUMP JUMPDEST PUSH1 0x0 DUP1 PUSH1 0x0 PUSH1 0x60 DUP5 DUP7 SUB SLT ISZERO PUSH2 0x1383 JUMPI DUP1 DUP2 REVERT JUMPDEST DUP4 CALLDATALOAD PUSH2 0x138E DUP2 PUSH2 0x18E6 JUMP JUMPDEST SWAP3 POP PUSH1 0x20 DUP5 ADD CALLDATALOAD PUSH2 0x139E DUP2 PUSH2 0x18E6 JUMP JUMPDEST SWAP3 SWAP6 SWAP3 SWAP5 POP POP POP PUSH1 0x40 SWAP2 SWAP1 SWAP2 ADD CALLDATALOAD SWAP1 JUMP JUMPDEST PUSH1 0x0 DUP1 PUSH1 0x40 DUP4 DUP6 SUB SLT ISZERO PUSH2 0x13C1 JUMPI DUP2 DUP3 REVERT JUMPDEST DUP3 CALLDATALOAD PUSH2 0x13CC DUP2 PUSH2 0x18E6 JUMP JUMPDEST SWAP5 PUSH1 0x20 SWAP4 SWAP1 SWAP4 ADD CALLDATALOAD SWAP4 POP POP POP JUMP JUMPDEST PUSH1 0x0 PUSH1 0x20 DUP1 DUP4 DUP6 SUB SLT ISZERO PUSH2 0x13EC JUMPI DUP2 DUP3 REVERT JUMPDEST DUP3 MLOAD PUSH8 0xFFFFFFFFFFFFFFFF DUP2 GT ISZERO PUSH2 0x1402 JUMPI DUP3 DUP4 REVERT JUMPDEST DUP4 ADD PUSH1 0x1F DUP2 ADD DUP6 SGT PUSH2 0x1412 JUMPI DUP3 DUP4 REVERT JUMPDEST DUP1 MLOAD PUSH2 0x1425 PUSH2 0x1420 DUP3 PUSH2 0x18C6 JUMP JUMPDEST PUSH2 0x189F JUMP JUMPDEST DUP2 DUP2 MSTORE DUP4 DUP2 ADD SWAP1 DUP4 DUP6 ADD DUP6 DUP5 MUL DUP6 ADD DUP7 ADD DUP10 LT ISZERO PUSH2 0x1441 JUMPI DUP7 DUP8 REVERT JUMPDEST DUP7 SWAP5 POP JUMPDEST DUP4 DUP6 LT ISZERO PUSH2 0x1463 JUMPI DUP1 MLOAD DUP4 MSTORE PUSH1 0x1 SWAP5 SWAP1 SWAP5 ADD SWAP4 SWAP2 DUP6 ADD SWAP2 DUP6 ADD PUSH2 0x1445 JUMP JUMPDEST POP SWAP8 SWAP7 POP POP POP POP POP POP POP JUMP JUMPDEST PUSH1 0x0 PUSH1 0x20 DUP3 DUP5 SUB SLT ISZERO PUSH2 0x1480 JUMPI DUP1 DUP2 REVERT JUMPDEST DUP2 MLOAD DUP1 ISZERO ISZERO DUP2 EQ PUSH2 0x11FD JUMPI DUP2 DUP3 REVERT JUMPDEST PUSH1 0x0 PUSH1 0x20 DUP3 DUP5 SUB SLT ISZERO PUSH2 0x14A0 JUMPI DUP1 DUP2 REVERT JUMPDEST POP CALLDATALOAD SWAP2 SWAP1 POP JUMP JUMPDEST PUSH1 0x0 PUSH1 0x20 DUP3 DUP5 SUB SLT ISZERO PUSH2 0x14B8 JUMPI DUP1 DUP2 REVERT JUMPDEST POP MLOAD SWAP2 SWAP1 POP JUMP JUMPDEST PUSH1 0x0 DUP1 PUSH1 0x40 DUP4 DUP6 SUB SLT ISZERO PUSH2 0x14D1 JUMPI DUP2 DUP3 REVERT JUMPDEST DUP3 CALLDATALOAD SWAP2 POP PUSH1 0x20 DUP4 ADD CALLDATALOAD PUSH2 0x1364 DUP2 PUSH2 0x18E6 JUMP JUMPDEST PUSH1 0x1 PUSH1 0x1 PUSH1 0xA0 SHL SUB SWAP2 SWAP1 SWAP2 AND DUP2 MSTORE PUSH1 0x20 ADD SWAP1 JUMP JUMPDEST PUSH1 0x1 PUSH1 0x1 PUSH1 0xA0 SHL SUB SWAP4 DUP5 AND DUP2 MSTORE SWAP2 SWAP1 SWAP3 AND PUSH1 0x20 DUP3 ADD MSTORE PUSH1 0x40 DUP2 ADD SWAP2 SWAP1 SWAP2 MSTORE PUSH1 0x60 ADD SWAP1 JUMP JUMPDEST PUSH1 0x1 PUSH1 0x1 PUSH1 0xA0 SHL SUB SWAP3 SWAP1 SWAP3 AND DUP3 MSTORE PUSH1 0x20 DUP3 ADD MSTORE PUSH1 0x40 ADD SWAP1 JUMP JUMPDEST SWAP1 ISZERO ISZERO DUP2 MSTORE PUSH1 0x20 ADD SWAP1 JUMP JUMPDEST PUSH1 0x0 PUSH1 0x20 DUP1 DUP4 MSTORE DUP4 MLOAD DUP1 DUP3 DUP6 ADD MSTORE DUP3 JUMPDEST DUP2 DUP2 LT ISZERO PUSH2 0x156B JUMPI DUP6 DUP2 ADD DUP4 ADD MLOAD DUP6 DUP3 ADD PUSH1 0x40 ADD MSTORE DUP3 ADD PUSH2 0x154F JUMP JUMPDEST DUP2 DUP2 GT ISZERO PUSH2 0x157C JUMPI DUP4 PUSH1 0x40 DUP4 DUP8 ADD ADD MSTORE JUMPDEST POP PUSH1 0x1F ADD PUSH1 0x1F NOT AND SWAP3 SWAP1 SWAP3 ADD PUSH1 0x40 ADD SWAP4 SWAP3 POP POP POP JUMP JUMPDEST PUSH1 0x20 DUP1 DUP3 MSTORE PUSH1 0x23 SWAP1 DUP3 ADD MSTORE PUSH32 0x45524332303A207472616E7366657220746F20746865207A65726F2061646472 PUSH1 0x40 DUP3 ADD MSTORE PUSH3 0x657373 PUSH1 0xE8 SHL PUSH1 0x60 DUP3 ADD MSTORE PUSH1 0x80 ADD SWAP1 JUMP JUMPDEST PUSH1 0x20 DUP1 DUP3 MSTORE PUSH1 0x26 SWAP1 DUP3 ADD MSTORE PUSH32 0x4F776E61626C653A206E6577206F776E657220697320746865207A65726F2061 PUSH1 0x40 DUP3 ADD MSTORE PUSH6 0x646472657373 PUSH1 0xD0 SHL PUSH1 0x60 DUP3 ADD MSTORE PUSH1 0x80 ADD SWAP1 JUMP JUMPDEST PUSH1 0x20 DUP1 DUP3 MSTORE PUSH1 0x22 SWAP1 DUP3 ADD MSTORE PUSH32 0x45524332303A20617070726F766520746F20746865207A65726F206164647265 PUSH1 0x40 DUP3 ADD MSTORE PUSH2 0x7373 PUSH1 0xF0 SHL PUSH1 0x60 DUP3 ADD MSTORE PUSH1 0x80 ADD SWAP1 JUMP JUMPDEST PUSH1 0x20 DUP1 DUP3 MSTORE PUSH1 0x1B SWAP1 DUP3 ADD MSTORE PUSH32 0x536166654D6174683A206164646974696F6E206F766572666C6F770000000000 PUSH1 0x40 DUP3 ADD MSTORE PUSH1 0x60 ADD SWAP1 JUMP JUMPDEST PUSH1 0x20 DUP1 DUP3 MSTORE DUP2 DUP2 ADD MSTORE PUSH32 0x4F776E61626C653A2063616C6C6572206973206E6F7420746865206F776E6572 PUSH1 0x40 DUP3 ADD MSTORE PUSH1 0x60 ADD SWAP1 JUMP JUMPDEST PUSH1 0x20 DUP1 DUP3 MSTORE PUSH1 0x21 SWAP1 DUP3 ADD MSTORE PUSH32 0x45524332303A206275726E2066726F6D20746865207A65726F20616464726573 PUSH1 0x40 DUP3 ADD MSTORE PUSH1 0x73 PUSH1 0xF8 SHL PUSH1 0x60 DUP3 ADD MSTORE PUSH1 0x80 ADD SWAP1 JUMP JUMPDEST PUSH1 0x20 DUP1 DUP3 MSTORE PUSH1 0x25 SWAP1 DUP3 ADD MSTORE PUSH32 0x45524332303A207472616E736665722066726F6D20746865207A65726F206164 PUSH1 0x40 DUP3 ADD MSTORE PUSH5 0x6472657373 PUSH1 0xD8 SHL PUSH1 0x60 DUP3 ADD MSTORE PUSH1 0x80 ADD SWAP1 JUMP JUMPDEST PUSH1 0x20 DUP1 DUP3 MSTORE PUSH1 0x24 SWAP1 DUP3 ADD MSTORE PUSH32 0x45524332303A20617070726F76652066726F6D20746865207A65726F20616464 PUSH1 0x40 DUP3 ADD MSTORE PUSH4 0x72657373 PUSH1 0xE0 SHL PUSH1 0x60 DUP3 ADD MSTORE PUSH1 0x80 ADD SWAP1 JUMP JUMPDEST PUSH1 0x20 DUP1 DUP3 MSTORE PUSH1 0x1F SWAP1 DUP3 ADD MSTORE PUSH32 0x5265656E7472616E637947756172643A207265656E7472616E742063616C6C00 PUSH1 0x40 DUP3 ADD MSTORE PUSH1 0x60 ADD SWAP1 JUMP JUMPDEST PUSH1 0x20 DUP1 DUP3 MSTORE PUSH1 0x1F SWAP1 DUP3 ADD MSTORE PUSH32 0x45524332303A206D696E7420746F20746865207A65726F206164647265737300 PUSH1 0x40 DUP3 ADD MSTORE PUSH1 0x60 ADD SWAP1 JUMP JUMPDEST SWAP1 DUP2 MSTORE PUSH1 0x20 ADD SWAP1 JUMP JUMPDEST SWAP2 DUP3 MSTORE PUSH1 0x1 PUSH1 0x1 PUSH1 0xA0 SHL SUB AND PUSH1 0x20 DUP3 ADD MSTORE PUSH1 0x40 ADD SWAP1 JUMP JUMPDEST PUSH1 0x0 PUSH1 0xA0 DUP3 ADD DUP8 DUP4 MSTORE PUSH1 0x20 DUP8 DUP2 DUP6 ADD MSTORE PUSH1 0xA0 PUSH1 0x40 DUP6 ADD MSTORE DUP2 DUP8 MLOAD DUP1 DUP5 MSTORE PUSH1 0xC0 DUP7 ADD SWAP2 POP DUP3 DUP10 ADD SWAP4 POP DUP5 JUMPDEST DUP2 DUP2 LT ISZERO PUSH2 0x1870 JUMPI DUP5 MLOAD PUSH1 0x1 PUSH1 0x1 PUSH1 0xA0 SHL SUB AND DUP4 MSTORE SWAP4 DUP4 ADD SWAP4 SWAP2 DUP4 ADD SWAP2 PUSH1 0x1 ADD PUSH2 0x184B JUMP JUMPDEST POP POP PUSH1 0x1 PUSH1 0x1 PUSH1 0xA0 SHL SUB SWAP7 SWAP1 SWAP7 AND PUSH1 0x60 DUP6 ADD MSTORE POP POP POP PUSH1 0x80 ADD MSTORE SWAP4 SWAP3 POP POP POP JUMP JUMPDEST PUSH1 0xFF SWAP2 SWAP1 SWAP2 AND DUP2 MSTORE PUSH1 0x20 ADD SWAP1 JUMP JUMPDEST PUSH1 0x40 MLOAD DUP2 DUP2 ADD PUSH8 0xFFFFFFFFFFFFFFFF DUP2 GT DUP3 DUP3 LT OR ISZERO PUSH2 0x18BE JUMPI PUSH1 0x0 DUP1 REVERT JUMPDEST PUSH1 0x40 MSTORE SWAP2 SWAP1 POP JUMP JUMPDEST PUSH1 0x0 PUSH8 0xFFFFFFFFFFFFFFFF DUP3 GT ISZERO PUSH2 0x18DC JUMPI DUP1 DUP2 REVERT JUMPDEST POP PUSH1 0x20 SWAP1 DUP2 MUL ADD SWAP1 JUMP JUMPDEST PUSH1 0x1 PUSH1 0x1 PUSH1 0xA0 SHL SUB DUP2 AND DUP2 EQ PUSH2 0xD8A JUMPI PUSH1 0x0 DUP1 REVERT INVALID GASLIMIT MSTORE NUMBER ORIGIN ADDRESS GASPRICE KECCAK256 PUSH3 0x75726E KECCAK256 PUSH2 0x6D6F PUSH22 0x6E7420657863656564732062616C616E636545524332 ADDRESS GASPRICE KECCAK256 PUSH21 0x72616E7366657220616D6F756E7420657863656564 PUSH20 0x2062616C616E636545524332303A207472616E73 PUSH7 0x657220616D6F75 PUSH15 0x74206578636565647320616C6C6F77 PUSH2 0x6E63 PUSH6 0x45524332303A KECCAK256 PUSH5 0x6563726561 PUSH20 0x656420616C6C6F77616E63652062656C6F77207A PUSH6 0x726FA2646970 PUSH7 0x73582212202A5F 0xE9 0x27 PUSH16 0x85C5EA358C879EB2EA3942343BD2EA1A DUP2 GT 0xB0 0xD0 DUP6 0x4D POP LT 0xE9 0xDA JUMPI PUSH5 0x736F6C6343 STOP MOD 0xC STOP CALLER LOG2 PUSH5 0x6970667358 0x22 SLT KECCAK256 PUSH2 0x254F 0x4D SWAP11 0xE 0xA5 0xD8 0xCF 0x5F PUSH18 0x21AFA4083C4181C6D0900E33EE67616E1C4A EQ INVALID PUSH30 0x64736F6C634300060C003300000000000000000000000000000000000000 ",
  "sha1": "ca3377df5a95f20766896e36b666ba46e3aca7e3",
  "source": "// SPDX-License-Identifier: AGPL-3.0\npragma solidity 0.6.12;\npragma experimental ABIEncoderV2;\n\nimport './derivatives.sol';\nimport './derivativePool.sol';\n//import './optionFactory.sol';\n//import './screampriceoracle.sol';\nimport {Ownable} from \"@openzeppelin/contracts/access/Ownable.sol\";\n\n\ninterface saleInterface {\n    function newSale(\n        address _saleToken,\n        address _buyToken,\n        address _treasury,\n        address _saleOwner,\n        uint256 _amountOffered, \n        uint256 _purchaseAmount, \n        uint256 _minPurhcase,\n        uint256 _maxPurchase,\n        uint256 _saleTime        \n    ) external returns(uint256);\n\n    function redeemUnpurchased(uint256 _saleNumber) external;\n}\n\n/// this contract holds funds in escrow until option expires allowing buyer to excercise by swapping short for base at pre-agreed exchange rate (amtOwed / collatAmt)\n/// owner also has option to deploy collateral to a vault to earn yield while still being locked + also can re-issue new options once currently issued options have expired\ncontract optionVaultSimple is Ownable {\n\n    using SafeERC20 for IERC20;\n    using Address for address;\n    using SafeMath for uint256;\n\n    IERC20 public base;\n    IERC20 public short;\n    bool public collateralProvided;\n    uint256 constant BPS_adj = 10000;\n    uint256 public minSale;\n    address public vaultAddress = address(0);\n    address public buyerAddress;\n    uint256 public minExcercise;\n    address public salesContract;\n    uint256 public deadline;\n    uint256 public earlyExecute;\n\n    uint256 public collatAmt;\n    uint256 public amtOwed;\n\n    bool public useVault = false;\n    bool public optionsIssued = false;\n    uint256 public mintTime = 3600; // on hour \n    uint256 public expiryTime; // time between option issued and when can be executed\n    uint256 public timeBeforeDeadline; // time before expiry option can be executed i.e. may want to limit to last 24hs\n\n    uint256 public auctionTime = 43200; // 12 hours in seconds\n    uint256 public optionCounter;\n    optionLong public buyer;\n\n\n    constructor(\n        address _base,\n        address _short,\n        uint256 _minExcercise,\n        address _salesContract,\n        uint256 _expiryTime,\n        uint256 _timeBeforeDeadline\n\n\n\n    ) public {\n        base = IERC20(_base);\n        short = IERC20(_short);\n        minExcercise = _minExcercise;\n        salesContract = _salesContract;\n        expiryTime = _expiryTime;\n        timeBeforeDeadline = _timeBeforeDeadline;\n\n        \n    }\n\n    // set pricing paramaters for options \n    // _premium = premium of strike price vs oracle price \n    //  _minSale is used to determine floor price when options are auctioned\n\n\n    // adjust vault paramaters i.e. if vaults are used within option to earn yield on funds locked in escrow by option\n    function setVaultUsage(address _vault, bool _useVault) external onlyOwner {\n        vaultAddress = _vault;\n        useVault = _useVault;\n        base.approve(vaultAddress, uint(-1));\n    }\n\n    /// withdraws base token from vault -> used when option excercised \n    function withdrawAmount(uint256 _amount) internal {\n        uint256 vaultBPS = 1000; /// TO DO UPDATE THIS TO READ FROM VAULT \n        uint256 withdrawAmt = _amount.mul(vaultBPS).div(vault(vaultAddress).getPricePerShare());\n        vault(vaultAddress).withdraw(withdrawAmt);\n    }\n\n    // Adjust timing of options (time to deposit collateral & expiry time from when collateral is deposited)\n    function setOptionTiming(uint256 _mintTime, uint256 _expiryTime, uint256 _auctionTime) external onlyOwner {\n        mintTime = _mintTime;\n        expiryTime = _expiryTime;\n        auctionTime = _auctionTime;\n    }\n\n    /// to check that funds are enough to create options and lock in escrow \n    function balanceBase() public view returns(uint256) {\n        uint256 bal = base.balanceOf(address(this));\n        if (useVault == true ){\n            IERC20 vaultToken = IERC20(vaultAddress);\n            uint256 vaultBPS = 10000; /// TO DO UPDATE THIS TO READ FROM VAULT \n            uint256 vaultBalance = vaultToken.balanceOf(address(this)).mul(vault(vaultAddress).getPricePerShare()).div(vaultBPS);\n\n            bal = bal.add(vaultBalance);\n        }\n        return(bal);\n    }\n\n    function balanceDebt() public view returns(uint256) {\n        uint256 bal = short.balanceOf(address(this));\n        return(bal);\n    }\n\n\n\n    // Issues new options with collateral held in Vault \n    function issueOptions(uint256 _amtOwed, uint256 _collatAmt, uint256 _amtRaised, uint256 _saleTime) internal {\n        collatAmt = _collatAmt;\n        amtOwed = _amtOwed;\n        \n        require(balanceBase() >= collatAmt);\n        if (optionsIssued == true){\n            require(expired() == true);\n        }\n        //collateralProvided = true;\n        earlyExecute = deadline.sub(timeBeforeDeadline);\n        deadline = (block.timestamp).add(expiryTime);\n        buyerERC20 NewBuyer = new buyerERC20(\"OptionTEST\", \"OPT\", address(this), minExcercise);\n        buyerAddress = address(NewBuyer);\n        NewBuyer.mintBuyerTokens();\n        IERC20 buyerToken = IERC20(buyerAddress);\n        buyer = optionLong(buyerAddress);\n        optionsIssued = true;\n        collateralProvided = true;\n        buyerToken.approve(salesContract, _amtOwed);\n        launchSale(buyerAddress, address(short), buyerToken.totalSupply(),  _amtRaised, 0, _amtRaised, _saleTime);\n        \n\n    }\n    // checks if current issued option is expired \n    function expired() public returns(bool){\n        require(collateralProvided == true); \n        return(block.timestamp > deadline);\n    }\n\n    function vaultBalance() internal view returns(uint256) {\n        uint256 bal = vault(vaultAddress).balanceOf(address(this));\n        return(bal);\n    }\n\n    function depositToVault() external onlyOwner {\n        uint256 bal = base.balanceOf(address(this));\n        vault(vaultAddress).deposit(bal);\n    }\n\n    function withdrawFromVault() external onlyOwner {\n        vault(vaultAddress).withdrawAll();\n    }\n\n    // Issue new options with collateral held in Vault \n    function issueOptionsNew(uint256 _amtOwed, uint256 _collatAmt, uint256 _amtRaised, uint256 _saleTime) external  {\n        \n        if (optionsIssued == true){\n            require (expired() == true);\n            ///optionInt.redeemDebt();\n\n        }\n\n        if (balanceBase() < collatAmt){\n            base.transferFrom(owner(), address(this), collatAmt.sub(base.balanceOf(address(this))));\n        }\n        \n        issueOptions(_amtOwed, _collatAmt, _amtRaised, _saleTime);\n    }\n\n    function excerciseOption() external {\n        require(msg.sender == address(buyer)); \n        require(collateralProvided == true);\n        require(block.timestamp >= earlyExecute);\n        require(block.timestamp <= deadline);\n        short.transferFrom(msg.sender, address(this), amtOwed);\n        if (useVault == true){\n            vault(vaultAddress).withdraw(vaultBalance());\n        }\n        base.transferFrom(address(this), address(buyer), collatAmt);\n        //isRepaid = true;\n    }\n\n    function excerciseOptionPartial(uint256 _amt, address _recipient) external returns(uint256) {\n        require(msg.sender == address(buyer)); \n        require(_amt <= amtOwed);\n        require(collateralProvided == true);\n        require(block.timestamp >= earlyExecute);\n        require(block.timestamp <= deadline);\n        uint256 percentRepaid = _amt.mul(BPS_adj).div(amtOwed);\n        uint256 redeemAmt = collatAmt.mul(percentRepaid).div(BPS_adj);\n        if (useVault == true){\n            withdrawAmount(_amt);\n        }\n        base.transfer(_recipient, redeemAmt);\n        //short.transferFrom(msg.sender, address(this), _amt);\n        amtOwed = amtOwed.sub(_amt);\n        collatAmt = collatAmt.sub(redeemAmt);\n        return(redeemAmt);\n    }\n\n    // withdraw specific token \n    function withdrawFunds(address _token) external onlyOwner {\n        require(expired() == true);\n        IERC20 tokenWithdraw =  IERC20(_token);\n        uint256 balance = tokenWithdraw.balanceOf(address(this));\n        tokenWithdraw.transfer(owner(), balance);\n\n    }\n\n    function launchSale(address _buyer, address _debt, uint256 _amtSold, uint256 _amtRaise, uint256 _minSale, uint256 _maxSale, uint256 _saleTime) internal {\n        saleInterface(salesContract).newSale(\n            _buyer,\n            _debt,\n            address(this),\n            address(this),\n            _amtSold, \n            _amtRaise, \n            _minSale,\n            _maxSale,\n            _saleTime            \n        );\n    }\n\n\n}",
  "sourcePath": "contracts/optionVaultSimple.sol",
  "type": "contract"
}